S01A0000666C6173686C6F616465725F6C6F616465722E73726563AF
S113000000000120110400003F3D00003F3D0000BE
S11300103F3D00003F3D00003F3D00000000000068
S11300200000000000000000000000003F3D000050
S11300303F3D0000000000003F3D00003F3D000048
S1130040C53E0000C53E0000C53E0000C53E0000A0
S1130050C53E0000C53E0000C53E0000C53E000090
S1130060C53E0000C53E0000C53E0000C53E000080
S1130070C53E0000C53E0000C53E0000C53E000070
S11303F0C53E0000C53E0000C53E0000FFFFFFFFF4
S1130400FFFFFFFFFFFFFFFFFFFFFFFFFEFFFFFFF9
S113041072B60E480E49886000220023002400258D
S113042000260027B846B946BA46BB46BC4609482A
S1130430854609488047094880470948804762B68D
S113044000200021074A9047FEE70000000000005A
S113045000ED00E0000001203D3E0000413D0000B1
S11304607B3D0000B104000072B60D490020086015
S1130470BFF36F8FBFF34F8F704780B543F6100201
S11304800FF23401074803F02FFCFFF7EDFF064895
S113049080F3088880F309880448BDE802400047D7
S11304A008ED00E00080FF1F88BDFF1F1184FF1FBF
S11304B080B5FFF7E2FFFEE788BDFF1F1184FF1F31
S11304C0AF89FF1F118FFF1F138FFF1F158FFF1F92
S11304D0178FFF1F00000000000000000000000054
S11304E000000000AF89FF1FAF89FF1F000000005C
S11304F0AF89FF1FB787FF1FEFB7FF1FEFB7FF1FBE
S1130500EFB7FF1FEFB7FF1FEFB7FF1FEFB7FF1FD7
S1130510EFB7FF1FEFB7FF1FEFB7FF1FEFB7FF1FC7
S1130520EFB7FF1FEFB7FF1FEFB7FF1FEFB7FF1FB7
S1130530EFB7FF1FEFB7FF1FEFB7FF1FEFB7FF1FA7
S1130540EFB7FF1FEFB7FF1FEFB7FF1FEFB7FF1F97
S1130550EFB7FF1FEFB7FF1FD9A9FF1FDDA9FF1FCB
S1130560D1A9FF1FD5A9FF1FEFB7FF1FEFB7FF1FCB
S1130570EFB7FF1F3DB1FF1FEFB7FF1F49B1FF1FCB
S1130580EFB7FF1F65B1FF1FEFB7FF1FEFB7FF1FE7
S1130590EFB7FF1FEFB7FF1FEFB7FF1FEFB7FF1F47
S11305A0EFB7FF1FEFB7FF1FEFB7FF1FEFB7FF1F37
S11305B0EFB7FF1FEFB7FF1FEFB7FF1FEFB7FF1F27
S11305C0EFB7FF1FEFB7FF1FEFB7FF1FEFB7FF1F17
S11305D0EFB7FF1FEFB7FF1FEFB7FF1FEFB7FF1F07
S11305E0EFB7FF1FEFB7FF1FD188FF1FEFB7FF1F44
S11305F0EFB7FF1FEFB7FF1FEFB7FF1FEFB7FF1FE7
S1130600EFB7FF1FEFB7FF1FEFB7FF1FEFB7FF1FD6
S1130610EFB7FF1FEFB7FF1FEFB7FF1FEFB7FF1FC6
S1130620EFB7FF1FEFB7FF1FEFB7FF1FEFB7FF1FB6
S11308B0EFB7FF1FFFFFFFFFFFFFFFFFFFFFFFFF7C
S11308C0FFFFFFFFFEFFFFFF72B60E480E49886070
S11308D0002200230024002500260027B846B9463C
S11308E0BA46BB46BC46094885460948804709487C
S11308F080470948804762B600200021074A904794
S1130900FEE700000080FF1F00ED00E088BDFF1F30
S113091039B6FF1F7D8DFF1FB78DFF1F458BFF1F4E
S11309205390FF1F000000006590FF1F00000000AF
S1130930FB90FF1F4392FF1FE990FF1F7391FF1F5E
S11309400B93FF1F00000000AD93FF1F0000000089
S11309509F90FF1F000000007990FF1F7391FF1FFD
S11309601F93FF1F000000008993FF1F0000000079
S11309700B90FF1F00000000D390FF1F0000000039
S11309800000000000000000BB93FF1F00000000F7
S1130990CF93FF1F00000000F193FF1F4392FF1F3E
S11309A0000000000000000000000000C9B7FF1FA5
S11309B0D3B7FF1FDDB7FF1F0000000000000000D9
S11309C081A5FF1FCFA5FF1F03A6FF1F0000000086
S11309D00000000023A6FF1F000000000000080024
S11309E00000100000002000000040000000800013
S11309F00000000100000002040002405D95FF1F9A
S1130A008995FF1FC595FF1F8D96FF1F00000000ED
S1130A100797FF1F65ABFF1FD3ABFF1FFDABFF1F86
S1130A20000000000000000013ACFF1FA9ADFF1F71
S1130A3035ACFF1F5DACFF1FD9ACFF1F15ADFF1F09
S1130A4099ACFF1F919DFF1F959DFF1FA79DFF1F41
S1130A50E59DFF1F000000000000000001000000F1
S1130A6000000000F387FF1F1886FF1F2886FF1F62
S1130A703086FF1F02000000000000003B88FF1FBB
S1130A805C85FF1F6C85FF1F3086FF1F040000007C
S1130A90000000008188FF1F0885FF1F1885FF1FC5
S1130AA03086FF1F0000000000000000000000006E
S1130AB0000000000000000000000000CDADFF1F9A
S1130AC0FFADFF1FF9AEFF1FAFAFFF1FA8B9FF1F98
S1130AD011B2FF1F67B2FF1F81B2FF1F00000000A9
S1130AE000000000ADB2FF1F0DB3FF1F13B3FF1FC3
S1130AF07BB3FF1F19B4FF1F11B3FF1F25B4FF1FE2
S1130B00EDB2FF1F38B504463D4D0020C5E9000095
S1130B10C5E90200C5E90400A8612862394800F06B
S1130B209EF8E8612046BDE834400FF2590100F018
S1130B303BB900F04EB970B5314D0C46A96907298F
S1130B4004BF296A88421AD100F08EF8C0EB00165F
S1130B50D5E90001D5E902231018B6FBF0F00A210B
S1130B6048434FF49661B0FBF1F0401D0A21B0FBFD
S1130B70F1F04FF4966148432060002070BD0120DD
S1130B8070BD00002DE9F843064600F058F81C4FEC
S1130B900446D7E904598846B8690021421C651BFC
S1130BA068EB0909F869494502D82CBFA84201221B
S1130BB0012ABA6106D0042A08D0052A0ED0072AD1
S1130BC00FD018E0C7E900483E6214E0D7E90001FD
S1130BD0201A68EB0101C7E900010CE0C7E90248EB
S1130BE009E0D7E90201201A68EB0101C7E9020113
S1130BF0304600F0EEF8C7E90448BDE8F183000090
S1130C00C8B8FF1F803801001C48002101606FF044
S1130C107F421B494A6000228A6007220A60194900
S1130C20194A0968C900B1FBF2F101B90121416017
S1130C3070471348016821F00601016070470F49AD
S1130C400A68124800680B68C0430002000A9A420E
S1130C50F6D1002110EB026051EB122170470749D5
S1130C6049684843C008704706480068704703480D
S1130C700168491C01607047000000009CB9FF1F17
S1130C8010E000E0C0B8FF1F40420F0018E000E091
S1130C900901002806D5594A00F00F00801800F811
S1130CA0041C7047564A8154704708BB554A56483D
S1130CB019B1022912D006D37047016811400160AE
S1130CC04168114013E00168114041F480710160F2
S1130CD04E48016821F48031016070470168114079
S1130CE041F4407101604168114041F44071416038
S1130CF0704700B1704710B5454A4648464B414CD1
S1130D0011B102290AD010BD19682140196059682F
S1130D102140596000211160016010BD59682140D3
S1130D2041F4E06159601968214041F4E0611960BF
S1130D3001210160116010BD28BB324A374811B14E
S1130D4002290CD0704701681140016041681140CC
S1130D504160816811408160C168114012E00168FE
S1130D60114041F4007101604168114041F4007187
S1130D7041608168114041F400718160C168114093
S1130D8041F40071C160704710B51F4C2068C0F376
S1130D90006040B122480168080004D00020884760
S1130DA04FF0FF30206610BD10B50C4680B901210C
S1130DB03C20FFF76DFF1B491B4A4FF08050086031
S1130DC011480168114041F4202101601448046075
S1130DD010BD00B1704780B514494FF080500860D1
S1130DE000213C20FFF754FF07480F4A01681140D7
S1130DF0016000200A49086001BD000018ED00E010
S1130E0000E400E0FFF8FFFE40A0044054F00F406F
S1130E10140198429401984208C0044040D0044010
S1130E20A4B9FF1F04E100E0FFFFF0FE84E100E04D
S1130E30012811D80FF22C028056012904D100F0A8
S1130E401F029140054A04E0012100F01F02914075
S1130E50034A400942F820107047000000E100E016
S1130E6080E100E01A1BFEE7012811D80FF22C02E2
S1130E708056012904D100F01F029140054A04E084
S1130E80012100F01F029140034A400942F820105A
S1130E907047000000E100E080E100E0181950F81C
S1130EA0041B61B150F8042BD30744BFA9F101031B
S1130EB09A180023091F42F8043BFAD1EFE7704760
S1130EC038B504460D46002000F0DAF86648674A53
S1130ED00560446000211160016881F3088881F392
S1130EE0098840688047BDE83240002000F0C8B857
S1130EF05F498968096900281EBF10F1010F5D4A26
S1130F00904206D00A69904203D34B699A189042E2
S1130F1008D34A6A904207D3896A89188842804173
S1130F20C00F704701207047002070472DE9F0473B
S1130F304F4F514CB868006900F1700925460AE02A
S1130F4099F81010014205D06869EA68816952680D
S1130F5028469047183528680028F1D14FF47A7054
S1130F60FFF77DFE054600F0E3F8002650BBFFF7CF
S1130F70BFFF38B3B868006990F88E00C00703D487
S1130F8000210846FFF79CFFB9F812004FF6FF71E5
S1130F90884208BF41F2883005FB00F6FFF74FFE98
S1130FA080468A4676B1FFF74AFEB0EB080061EB53
S1130FB00A010027B94201D8B04203D300210846F0
S1130FC0FFF77EFF254600E0183528680028E9D0A1
S1130FD0E9680968284688470028F5D0002DE1D043
S1130FE006E0A54203D0E1688968204688471834A2
S1130FF020680028F5D12846BDE8F08738B500F010
S11310009BF800F06FF81A4CA06800688047002035
S113101000F0A0F8FFF7F8FD04F1200000F09CF8C0
S1131020206800688047A06840688047FFF77EFF1B
S1131030E061016919B109680A0018BF8847E069CD
S1131040416919B109680A0018BF8847E068006857
S11310508047E569E06840688047E868C16808003F
S1131060F8D028468847F5E7ECB8FF1F08ED00E004
S113107010B8FF1F1184FF1FA485FF1F70470000D5
S113108070B50446022C04D0002000F0C9F8012CED
S11310900ED00026114D06E04019C16889680A0087
S11310A018BF8847761C1820704341590029F3D192
S11310B074B900F047F8FFF7BCFD00F0D8F8084910
S11310C000200860012000F045F800F011F862B635
S11310D0BFF36F8FBFF34F8F70BD00BFA485FF1F99
S11310E008ED00E00F48016841F478510160704751
S11310F00C48016821F47851016070470A480B4A92
S1131100016800681268000F401CC1F3036150437A
S1131110491CB0FBF1F0704710B9044800687047EF
S1131120002070473880044044800440C0B8FF1F4A
S1131130002070477047000072B60549002008601F
S113114062B6704772B602480168491C0160704774
S11311508CB9FF1F7047000008B9042070471F4A6C
S11311601F491268C2F3036231F81210090301D156
S1131170642070470022026041604FF480720221B3
S113118081604FF40061C160164991F900309A40C2
S11311904261C97881610021FFE701610020704745
S11311A008B9042070475B1E194208BF1A4201D0D7
S11311B0652070470368994221BF4068C0185118E0
S11311C0884201D266207047002070470649884251
S11311D001D06B2070470020704700004C80044011
S11311E02085FF1F280002406B66656B68B1042AE6
S11311F002D0082A0BD008E079B110290DD3202998
S11312000BD0A1F12100132807D304207047102923
S113121003D0A1F111000328F7D200207047000089
S11312200349096851F47001014A1160704700BF15
S113123004F0014080B51849184808601849194855
S1131240421A194888421CBF002A00F03DF817488A
S11312501749091A18BF00F073F816491648421ABC
S113126004D0BDE80840154800F02EB801BD14486C
S11312704FF0FF31016041608160C16001614161F3
S11312808161C1610F48016041608160C160016199
S113129041618161C161704708ED00E00080FF1F7A
S11312A0CCB6FF1F80B7FF1F10B8FF1FC8B8FF1FC1
S11312B088BBFF1F10B8FF1F10B8FF1F88BBFF1F9C
S11312C080E100E080E200E062B38B0708D0521EA8
S11312D011F8013B00F8013B00F024808B07F6D1A4
S11312E0830740F0208000BF103A07D330B4B1E840
S11312F03810103AA0E83810F9D230BC530724BF94
S1131300B1E80810A0E8081044BF51F8043B40F8C5
S1131310043BD20724BF31F8022B20F8022B44BF30
S11313200B7803707047083A07D3B1E80810083AFD
S113133040F8043B40F804CBF7D25307E4E700003D
S1131340002200F001B80000401810F0030308D098
S1131350C91A1FD3DB0748BF00F8012D28BF20F8A6
S1131360022D130030B414461546103928BF20E965
S11313703C00FAD8490728BF20E90C0048BF40F8D0
S1131380042D890028BF20F8022D48BF00F8012D44
S113139030BC7047C91818BF00F8012DCB0728BF0F
S11313A000F8012D70470000BFF34F8F0448054A31
S11313B0016801F4E06111430160BFF34F8FFEE760
S11313C00CED00E00400FA05EEE7EDE7ECE7EBE7EF
S11313D0DFF8F015C968C9680020086070472DE976
S11313E0F041DFF8E055E86982B000248DF801404F
S11313F04669002E62D0E968C9680A68012A4CD09F
S113140001F1080274680023091DA04704001FBFEE
S113141042F21270844242F2137084424ED1E86860
S1131420C168D1F80880B8F1000F47D04E6837780A
S113143037B1122F04DA806800EBC700083800E0E7
S11314400020086200281CBF006800281CD000A9E6
S113145005F1200000F0C0FA040017D19DF8000047
S113146048B14FF4E750791E20FA01F2D00758BF73
S113147042F211740AD5EA68D268126A12684146C7
S113148030469047002406E042F210743946204664
S113149000F01FFA94B901200DE0086A48B14168D0
S11314A0080003D00DF10100884704460CB1002068
S11314B001E09DF80100E968C96808602046BDE8BC
S11314C0F68180B50178002000F003FADFF8F40417
S11314D0C0694169096988470220FFF7D1FDBFF35C
S11314E04F8FDFF8E404DFF8E424016801F4E061DD
S11314F011430160BFF34F8FFEE7DFF8C804C068F3
S1131500C06814210C3000F081BA10B5044600F014
S113151071FBFFE72178BDE81040DAE110B5DFF890
S1131520A424126852690446A16860689047F1E7F0
S113153010B500F04AF8DFF88C04C068C068616830
S11315400161082101770020217800F0C2F9BDE88B
S1131550104000F0CABC30B583B0DFF86844A56819
S113156000210191009100AB81684068AD6801AA37
S1131570C9B2C0B2A847E268D268002111610099DB
S11315808A08019900F0B9F937BD10B5DFF83424A1
S11315909268D26804466068A168C0B29047B9E70F
S11315A010B500F012F800F012F8042101770020C1
S11315B0B0E710B500F009F800F009F8032101774D
S11315C00020A168BDE81040AEE1044695E7DFF8CD
S11315D0F403C068C068A168016161684161704733
S11315E038B5DFF8E0530446E868C068002141617B
S11315F00161007F042804D128680069804704B988
S11316000446E868C068017F204600F062F942F2AF
S11316101270844208D1E868C068007F082804BFBB
S1131620BDE8314000F0A3BC31BD2DE9FC4100F020
S1131630C2F821B900202070FFF7D2FF5AE001213F
S1131640217006694769002000900123E869D0F8F9
S113165014C0DCF804C000AA01A9E0475FEA00084E
S113166005D0E8694169C9688847404603E00098A5
S113167030B942F21270FFF7B3FF002020703AE055
S1131680B04288BF30460090E868C068017F0829EE
S113169013D10199C160009981610198009900F00A
S11316A02EFC804642F27D7080451CBF42F274706D
S11316B080450BD14FF0000808E02B68019A00998F
S11316C09B683846984780460098C7190098361A90
S11316D006D0B8F1000F09D0E8694169C9688847A4
S11316E04046FFF77DFF0020207003E0E868C068F3
S11316F0066147610020BDE8F6812DE9F04700F05E
S11317005AF88AB021B900202070FFF769FF4EE033
S11317100121217006694769C168027F212E2CBF0F
S11317204FF02008B046A9B1424601A8FFF7CCFD0E
S1131730E869D0F814C0DCF808C00123424601A9C6
S1131740E047A6EB080606B168B3FFF749FF00209F
S113175020702CE0032A08EB070906D12B685B688C
S113176001AA4146384698470CE0102A18BF4F4654
S1131770DED1407F0090434601AA394605F120009E
S113178000F01AFC5FEA000A4F46D1D0E8694569C7
S1131790AD680123002201A9A8475046FFF720FFA6
S11317A00020207004E0E868C068066147610020FA
S11317B00AB0BDE8F087834D0446E868C068016953
S11317C0704710B57F4B1B68DB680446E268A1686C
S11317D0606898479EE62DE9F04105467C4C6E68AA
S11317E0D5F80880E86877492060002749680C31FB
S11317F030B10A68904223BF4968491C81420427DA
S11318003046FFF775FB00B904272978384600F005
S113181060F89FB966600020FFF732FC2068C4F8C6
S1131820088018B180F3088880F30988616840460D
S11318308847BDE8F0410020FFF722BCBDE8F081F5
S113184038B504466068FFF753FB08B9042005E087
S113185065680120FFF714FCA068A8472178BDE85B
S1131860344036E010B50446211D5A4800F0ECFB24
S113187050E610B50446A3686168564804F10C02AA
S113188000F00AFC46E61CB5044600A8002100222C
S113189006C0A36861684F4800AA00F029FCA2684A
S11318A000A900F045F813BD10B5FFF78EFE4548BA
S11318B0C168C968A2680A6162684A6110220A772D
S11318C0C068C068E16841770020A168BDE81040A5
S11318D05BE010B584B0A02201908DF800200022B6
S11318E000F06AF88DF80220029102228DF803209C
S11318F000234469A4680C225BE010B588B0A723D8
S113190000F03AF80020531C8DF8033006E000ACD8
S113191051F8203004EB8004401CA3609042F6DBB5
S113192000F021F800231AE010B584B0A3222FE0C0
S113193010B588B0AF2300F01FF802238DF80330F0
S113194040B99008801C8DF80300029203A8FFF7A9
S1131950CBFC01E000200290002300F004F800A971
S1131960A04708B010BD1748C0699DF8031044692A
S1131970A46889000A1D70478DF800300190002387
S11319808DF801308DF80230704710B584B0B02264
S11319908DF800200190012200F00EF8029100223F
S11319A08DF80220002302228DF803200C224469C2
S11319B0A46800A9A0471FBD0248C0698DF8012092
S11319C07047000010B8FF1F0CED00E00400FA059A
S11319D018B9FF1F30B8FF1F002818BF002901D114
S11319E0042070470848007800F00302022A08BF68
S11319F0002005D000F0C00080280CBF0120022088
S1131A0008700020704700BF02000240002200F06E
S1131A109BBB000038B5924C65682A46042104F14A
S1131A20200000F0ABFB00AA012104F1200000F02B
S1131A30A5FB286800990818401E6860002032BD84
S1131A40F8B5044686480D46416B16464A4202EAFA
S1131A500401671AEF197F423A4000AB524220302A
S1131A6000F0B0FB48B99DF8000008B16C20F2BD4D
S1131A7032462946204600F0E9FBF2BD2DE9F04745
S1131A80774C88B08046A0680069056B8A464FEAA7
S1131A909A06B6009146AAEB060705B101254FF058
S1131AA0FF3004902FB13A4606EB090104A8FFF772
S1131AB00BFCCAF1000080088000414203AA4046A2
S1131AC000F0ACF8002834D19DF80C0000B10025DA
S1131AD006EB080A3EB133464A46414604F120006B
S1131AE000F0E6FB38B93FB1042304AA514604F1DF
S1131AF0200000F0DDFBE0B9EDB2CDB16EB105A878
S1131B0002904B4606A80190324600F015F8414673
S1131B1004F1200000F0FEFB48B94FB100F048F892
S1131B2000F00AF8514604F1200000F0F3FB00B97C
S1131B30002008B0BDE8F087A0680069806DC0B2DD
S1131B4000907047F0B5464D0446A8680069066BDE
S1131B5087B006B1012648428008049280004742BB
S1131B6003AA3946204600F059F8F8B99DF80C004C
S1131B7018B1002601E0241D3F1FB7B1042304AAB5
S1131B80214605F1200000F093FB78B9002EF2D035
S1131B9000F00EF8A868FFF7D0FF214605F12000F9
S1131BA000F0B8FB0028E6D000E0002007B0F0BD4C
S1131BB005A8029004AB06A801900422704770B5F2
S1131BC004460D46264E274B2A46214606F12000A0
S1131BD000F0D0FB68B9B16809690A6B4AB12A46BA
S1131BE006F120008B6D2146BDE87040DBB200F0A9
S1131BF0FDBB70BD10B51A4C1A4904F1200000F069
S1131C0033FC50B9A16809690A6B1AB1896D00F0F7
S1131C102DF810B9144A0121117010BD38B51546BC
S1131C2000222A700A460E4C014600AB04F1200043
S1131C3000F0C8FA90B99DF8001029709DF80010C2
S1131C4061B1094D297849B9A0680069816D00F036
S1131C500DF808B16C2032BD0121297032BD00009D
S1131C6010B8FF1F6B66656B84BBFF1FC9B204F11C
S1131C70200000F011BC0000416882688A4209D249
S1131C80891A416082660FF2ED11016001218160C1
S1131C900020704742F2787070470FF2050113E09C
S1131CA0416ADFF8F4324A898282CA68921E42602D
S1131CB04A689A4202D1097A022902DB42F275701B
S1131CC070470FF20D0100BF016000207047000053
S1131CD010B5044682B0606A41686268A161016817
S1131CE0C91E9142A16002D342F2767016BD0089EA
S1131CF010B142F2777016BD8DF8000000A9A74814
S1131D00FFF76AFE9DF8000010B142F2817016BD23
S1131D102046FFF7B1FF16BD38B5A14D2B689B686F
S1131D200446626A216EE06D984780B928680069AC
S1131D30804760B900F03AF800F033F80098616E1B
S1131D40884200D038E00FF22D102060002032BD10
S1131D5038B50446924D00F029F82B68626AE06DAC
S1131D609B6810219847D8B9E06D1030E065206E6B
S1131D7010382066112828BF8A480FD208B18A4833
S1131D800CE028680069804750B900F00AF8009810
S1131D90616E884200D00FE00FF2D900206000206D
S1131DA032BD00A904F11C0000F09EBB616A102240
S1131DB004F11C0000F082BB42F27A7032BD10B50F
S1131DC0044604F11C0000F073FB206E11282CBFA4
S1131DD07448754890E0724B1B68426E016EC06D8A
S1131DE0DB68184710B5044642F27F70E26D1100BB
S1131DF00ED0606E04F118019047012803D12046EB
S1131E00BDE8104038E7022802D100F06EF8002047
S1131E1010BD10B500F15C01031D1C684A685A60CE
S1131E20944202D242F2767010BD0A7AD20707D5E4
S1131E300A685C69A24203D148689860002010BD1A
S1131E4090F85A10C9075CBFBDE81040FFF714BFF3
S1131E5042F27C7010BD90F85A10C90748BFFFF7D2
S1131E60C9BE4F4A126852695C3041680068104725
S1131E7000000000B0B5044604F15805606A0FC8BC
S1131E8085E80F005A270120415D7F18401C102867
S1131E90FAD32878F9B2884202D042F27970B0BD00
S1131EA0687807281ED8DFE800F01B04080C10131C
S1131EB01B172046BDE8B040ABE72046BDE8B04064
S1131EC07DE72046BDE8B04085E742F21270B0BD20
S1131ED02046BDE8B04085E72046BDE8B040BAE7FB
S1131EE00020B0BD42F27B70B0BD10B52F4C702104
S1131EF02046FFF78BFD2E482060002010BDF8B56A
S1131F0004460D46002000262A4FAE4217D03869F9
S1131F10C0F11000A91B09E079B13B69325DDA55C3
S1131F20761C3A69521C3A61401E491E0028F3D1BE
S1131F30386100F005F810B9E7E742F27D70F2BDB0
S1131F401A491C4A4A620020CA6842B10869904290
S1131F5002D2401C086104E042F2747070478A6E39
S1131F6012B9084609680847521E8A66704738B590
S1131F700E4890F8591004290CD100F15C0425682E
S1131F80280004D00020FFF77BF8A068A84742F29D
S1131F907E7032BD002032BD53544D5030B8FF1F07
S1131FA010B8FF1F9998FF1F6198FF1F64BAFF1FA5
S1131FB0E397FF1FD4BAFF1F2DE9F8435FEA000837
S1131FC0914614BFB9F1000F04200F461D4619D0E5
S1131FD0089C22462946384600F01AF890B904E0D5
S1131FE0716849F8041B3F1D2D1F5DB10648066842
S1131FF006483760032101700472404600F08AFCF1
S11320000028EDD0BDE8F2834085FF1F07000240A1
S113201010B510F0030F08BF11F0030F01D06520B5
S113202010BD022A0EDA0C18641E012A06D10028FB
S113203004BF481E072805D1002010BD002AFBD18B
S1132040FF2CF9D9042010BD10B50A46002818BF8A
S1132050002A01D1042010BD0E4B1C78002104F08D
S11320600304022C14D04521597111785972517806
S113207019729178D971D17899711179597351790B
S113208019739179D972D179997200F043FC0146A0
S1132090084610BD02000240F8B5160004460D467D
S11320A01F4601D10420F2BD3A46FFF79FF8C8B994
S11320B00D48432141700570102D0C4800683168AB
S11320C0416003D0A5F11101032903D2082F04BFF5
S11320D071688160204600F01DFC05462046FFF72C
S11320E09FF82846F2BD00BF060002404085FF1F4E
S11320F0F8B5150007460C461E4601D10420F2BD72
S11321003246FFF773F8A8B90B48412141700470B7
S1132110384600F0FFFB68B9084909684A682A6034
S1132120102C03D0A4F11102032A03D2082E04BFF9
S113213089686960F2BD00BF060002404085FF1F48
S113214062F30F2262F31F4200B500BF13009646EC
S11321509446103928BFA0E80C50FAD85FEA417CB5
S113216028BF0CC048BF40F8042BC90728BF20F87B
S1132170022B48BF00F8012B00BD0000002818BF47
S1132180002A01D104207047072918D8DFE801F09C
S113219004080A0D0F111315C06810600020704761
S11321A04068FAE740684008F7E78068F5E70068A8
S11321B0F3E70120F1E74069EFE78069EDE76A2082
S11321C0704700002DE9F04180461E000D46174679
S11321D008BF042034D00423FEF7E2FF80BBD8F804
S11321E014307A195F42C2F1000C07EA0C0CCCF1EE
S11321F0000C2F40ACEB07070021B7FBF3F7DFF827
S113220044C00AE0DCF800E0203C6FEA0E0E2EFA2F
S113221004F4E40748BF491C5D1995420AD2B5FB92
S1132220F3F4202C38BFDCF804E0EED3D8F818E03F
S11322307445E7D319B1B94234BF02210121317089
S1132240BDE8F0811800024000F07EBB134680B563
S11322500A4601461846FFF737F8002002BD70B55C
S113226010F0030F0C46154612D0B0F1005F0FD2E8
S11322702118491EB1F1005F0AD3C0F1005632465D
S11322802946FFF721F8A21B71194FF0005001E015
S113229022462946FFF718F8002070BD10B51446F1
S11322A00A462146BDE81040012300F087BB000028
S11322B02DE9F041044615000E461F4608BF0420D0
S11322C022D004233A46FEF76BFF5FEA000802D0EF
S11322D01AE0361D3F1F9FB10C480068066055F890
S11322E0041B416006200A490870204600F012FBD6
S11322F080462069010018BF8047B8F1000FE8D07C
S11323002046FEF78DFF4046BDE8F0814085FF1F63
S1132310070002402DE9F04106465FEA03080D4636
S1132320174608BF04201ED00423FEF739FFD0B996
S1132330069C01E03F1F2D1DAFB10C480C490068FD
S1132340056002220A700C7158F8041B8160304643
S113235000F0E0FA0028EDD0079901B10D6008996A
S113236009B100220A60BDE8F08100BF4085FF1F6B
S1132370070002402DE9F041984604460D461646F2
S11323800823FEF70DFF07001AD17019461EE068F6
S1132390B6FBF0F100FB11622AB1491C4843461E0A
S11323A001E0E0684519AE4217D30E480E490068B3
S11323B00560092008704046FEF708FF070002D0B8
S11323C03846BDE8F081204600F0A4FA07462069AB
S11323D0010018BF8047002FE3D02046FEF720FFFE
S11323E0EEE700BF4085FF1F070002402DE9F84FCC
S11323F0984604460D4692460823FEF7D1FE60BB7C
S11324006068A168164FB0FBF1F96842C9F1000198
S113241008404642AE4208BF4E4403E0AAEB0B0A12
S11324205D444E44BAF1000F16D00E4909680D60A0
S1132430701BD346824588BF8346012139704FEA19
S1132440DB00010A3971F87087F80280204600F039
S113245061FA0028E2D000E00020BDE8F28F00BF5E
S1132460070002404085FF1F38B50400084601D12B
S1132470042032BD074A44211170FEF7A7FE05006F
S113248007D1204600F046FA05462046FEF7C8FE6E
S1132490284632BD0700024008B904207047034AA9
S11324A040235370117000F035BA00BF060002409B
S11324B04FF0FF31016000214160704730B544683E
S11324C00368141944600FF24C0407E011F8015B2F
S11324D085EA136554F8255085EA032315466A1ED8
S11324E0002DF3D1036030BD30B54368026813F0AA
S11324F0030F0CD003F00303C3F104030FF214041D
S1132500150E54F825505B1E85EA0222F8D10260AC
S11325100A6030BD00000000B71DC1046E3B820993
S1132520D926430DDC7604136B6BC517B24D861A9E
S11325300550471EB8ED08260FF0C922D6D68A2FBB
S113254061CB4B2B649B0C35D386CD310AA08E3CDA
S1132550BDBD4F3870DB114CC7C6D0481EE0934553
S1132560A9FD5241ACAD155F1BB0D45BC296975622
S1132570758B5652C836196A7F2BD86EA60D9B638D
S113258011105A6714401D79A35DDC7D7A7B9F701E
S1132590CD665E74E0B6239857ABE29C8E8DA19114
S11325A0399060953CC0278B8BDDE68F52FBA5826A
S11325B0E5E66486585B2BBEEF46EABA3660A9B7F7
S11325C0817D68B3842D2FAD3330EEA9EA16ADA416
S11325D05D0B6CA0906D32D42770F3D0FE56B0DD45
S11325E0494B71D94C1B36C7FB06F7C32220B4CE26
S11325F0953D75CA28803AF29F9DFBF646BBB8FB11
S1132600F1A679FFF4F63EE143EBFFE59ACDBCE891
S11326102DD07DEC77708634C06D4730194B043D66
S1132620AE56C539AB0682271C1B4323C53D002E7D
S11326307220C12ACF9D8E1278804F16A1A60C1B42
S113264016BBCD1F13EB8A01A4F64B057DD00808F9
S1132650CACDC90C07AB9778B0B6567C6990157192
S1132660DE8DD475DBDD936B6CC0526FB5E6116201
S113267002FBD066BF469F5E085B5E5AD17D1D5744
S11326806660DC5363309B4DD42D5A490D0B1944BD
S1132690BA16D84097C6A5AC20DB64A8F9FD27A5D7
S11326A04EE0E6A14BB0A1BFFCAD60BB258B23B6C9
S11326B09296E2B22F2BAD8A98366C8E41102F83FE
S11326C0F60DEE87F35DA9994440689D9D662B90B5
S11326D02A7BEA94E71DB4E0500075E4892636E9C4
S11326E03E3BF7ED3B6BB0F38C7671F7555032FA05
S11326F0E24DF3FE5FF0BCC6E8ED7DC231CB3ECFC8
S113270086D6FFCB8386B8D5349B79D1EDBD3ADC30
S11327105AA0FBD8EEE00C6959FDCD6D80DB8E60CC
S113272037C64F643296087A858BC97E5CAD8A734E
S1132730EBB04B77560D044FE110C54B3836864647
S11327408F2B47428A7B005C3D66C158E44082552A
S1132750535D43519E3B1D252926DC21F0009F2C0F
S1132760471D5E28424D1936F550D8322C769B3FD2
S11327709B6B5A3B26D6150391CBD40748ED970A99
S1132780FFF0560EFAA011104DBDD014949B93196E
S11327902386521D0E562FF1B94BEEF5606DADF840
S11327A0D7706CFCD2202BE2653DEAE6BC1BA9EB9A
S11327B00B0668EFB6BB27D701A6E6D3D880A5DE03
S11327C06F9D64DA6ACD23C4DDD0E2C004F6A1CDE6
S11327D0B3EB60C97E8D3EBDC990FFB910B6BCB4E1
S11327E0A7AB7DB0A2FB3AAE15E6FBAACCC0B8A756
S11327F07BDD79A3C660369B717DF79FA85BB4929D
S11328001F4675961A163288AD0BF38C742DB08161
S1132810C330718599908A5D2E8D4B59F7AB08545E
S113282040B6C95045E68E4EF2FB4F4A2BDD0C47AD
S11328309CC0CD43217D827B9660437F4F460072CE
S1132840F85BC176FD0B86684A16476C93300461C9
S1132850242DC565E94B9B115E565A1587701918CE
S1132860306DD81C353D9F0282205E065B061D0B31
S1132870EC1BDC0F51A69337E6BB52333F9D113E50
S11328808880D03A8DD097243ACD5620E3EB152D8D
S113289054F6D4297926A9C5CE3B68C1171D2BCC83
S11328A0A000EAC8A550ADD6124D6CD2CB6B2FDF79
S11328B07C76EEDBC1CBA1E376D660E7AFF023EA0A
S11328C018EDE2EE1DBDA5F0AAA064F4738627F905
S11328D0C49BE6FD09FDB889BEE0798D67C63A80E0
S11328E0D0DBFB84D58BBC9A62967D9EBBB03E93B5
S11328F00CADFF97B110B0AF060D71ABDF2B32A654
S11329006836F3A26D66B4BCDA7B75B8035D36B580
S1132910B440F7B10B487021017080210170017837
S1132920C909FCD00078810601D567207047C1062B
S113293001D568207047C00701D569207047002081
S1132940704700BF000002401A480068000B00F006
S11329500F00C01E08282BD8DFE800F005080B0E76
S11329601114172A1A004FF4804013E04FF4C040AA
S113297010E04FF400400DE04FF440400AE04FF403
S1132980803007E04FF4C03004E04FF4003001E041
S11329904FF48020084949680322B0FBF2F0C0F1EB
S11329A0005241F80C2F6FF0604202EB4000486087
S11329B0002070470070044010B8FF1F002A01D1A6
S11329C001207047F0B41F46034603242340002B24
S11329D009D00424E31A017001300824E141521E95
S11329E026D05B1EF7D1042A1ADB13D0002F11D096
S11329F00C460D460E46102A02DB72C0103AFAE766
S1132A000C2A02DB32C00C3AFAE7082A02DB12C0B5
S1132A10083AFAE7042A03DB01600430121FF9E7DD
S1132A20002A05D0017001300824E141521EF7D17B
S1132A30F0BC00207047000040682C49405C70479F
S1132A402B494A6842B10A6813780370501C086025
S1132A504868401E4860704700210170704710B5F7
S1132A605A280CD1214A01238B54142404FB01213C
S1132A700FF20D03CB60BDE81040D16A084710BDCA
S1132A801A49C96A084730B5184DE96285B0044649
S1132A9000A80FF260011422FEF726FC6068A26809
S1132AA0022190476068142101FB00510A1D00A90E
S1132AB000F091F8002005B030BD10B504460B4875
S1132AC06168142202FB0100001D00F0EAF860684E
S1132AD0A268BDE81040002110470548016042602B
S1132AE041680029FCD10020704700002CB9FF1F69
S1132AF024B9FF1F89A5FF1FA7A5FF1F0000000021
S1132B0008000000010100002DE9F041044682B0F4
S1132B10D4F800800FF2E41050F82870F86A261DEB
S1132B2000012BD5B268100028D041464FF49670AE
S1132B30904723E000F04BF820699DF800500928E5
S1132B4005D300F044F89DF8000045EA002520690B
S1132B50112805D300F03BF89DF8000045EA004534
S1132B602069192805D300F032F89DF8000045EAE1
S1132B7000657D63F86A40F00070F862F86A8001CD
S1132B80D8D4F86A800320D5BD6BF86A40F40030CD
S1132B90F86241467268E8B290472069092804D374
S1132BA0280472684146000E90472069112804D316
S1132BB0280272684146000E904720691928E0D324
S1132BC072684146280E9047DBE7BDE8F38132681E
S1132BD0414600A81047F0B504460FF2201050F803
S1132BE024700D46164685B014213046FEF70EFFBC
S1132BF00ECD301D0C3D0EC03460E86830613D4898
S1132C0014B1012C04D007E0016841F4805102E0C2
S1132C10016841F400510160384600F09AF8002040
S1132C208DF80000ADF80C0000A9E8680190287C3C
S1132C308DF80800687C8DF80900384600F066F8C5
S1132C4068BB386820F4804038600122012138468E
S1132C5000F0ABF82848002100F8341000EBC40061
S1132C60012246601921384600F0EAF801221121B8
S1132C70384600F0E5F801221B21384600F0E0F860
S1132C80002078630121F86A40F00070F862204661
S1132C90FEF7CEF83868400840003860002005B0E0
S1132CA0F0BD70B505680FF25400124C50F8256061
S1132CB015B1012D06D00CE02068C00418D5002100
S1132CC0002004E02068800412D500210120FEF7D2
S1132CD0AFF8304600F03DF815B1012D04D070BDB9
S1132CE0206820F4805002E0206820F40050206026
S1132CF070BD00003C8004405CB9FF1F00C002406E
S1132D0000D002404001474A1150704738B50D4683
S1132D1004462878444A6101C043505000212046AB
S1132D20FFF7F0FF2A1D0021204600F044F810B1FF
S1132D3040F2311032BD6A7B297B204600F021F835
S1132D4000F001F832BD206820F0405020600020DF
S1132D50704710B504460122206820F480402060AA
S1132D60012020600146204600F01FF82F48E06251
S1132D700020A060E0602061206344F20100206034
S1132D8010BD30B50368C3F380331BB1046824F469
S1132D90804404604401264D295126490A511BB13F
S1132DA0016841F48041016030BD4001224B19505B
S1132DB022490A50704730B51568042D09D3112DE6
S1132DC002D30368DB0F04D1212D05D30368DB0F85
S1132DD002D140F2311030BD00EB81016D1E5379F8
S1132DE014790068ED065B06A406C00FC86803F0FA
S1132DF0007304F080640CD020F0FE4005F0F04530
S1132E009279284320431206184302F0807210433B
S1132E1004E020F0FC40284320431843C86000200D
S1132E2030BD00007C0000423800004200000A9AD5
S1132E3034000042300000422C00004228000042CE
S1132E4010B5036B01248C40A34302FA01F119432A
S1132E50016310BD80B5094901EBC00211F83000CF
S1132E6028B1074840B15068C046C04601BD054876
S1132E7010B15068FFF748FE01BD00005CB9FF1FA8
S1132E800000000051A6FF1F0020E3E70120E1E756
S1132E90002000E0012038B50FF2781151F82040ED
S1132EA0594901EB0013E178E27801F012052A4355
S1132EB0E27001F05002102A10D04A0614D54807D7
S1132EC0A0780CD540F01000A07000208DF8000010
S1132ED000A8196888479DF80000207131BD00F0F2
S1132EE0EF00A070207931BDA278C2F300121AB1AC
S1132EF0C807EAD5A078F2E72279014610465A6855
S1132F00904731BD0FF20C1151F82000002181705F
S1132F10017081717047F8B504000FF2F8003A4F60
S1132F2050F824600D4695E80F0007EB041787E876
S1132F300F00364801680CBF402280221143016013
S1132F400020B07001214020B0710220F0702046B2
S1132F50FDF78AFF3078297B400849413170002011
S1132F607071B0717070B07840F08000B070B0785B
S1132F7040F04000B070F1BD38B50500234C03D1DA
S1132F802068400605D431BD012D10D1206800060B
S1132F900DD500212846FDF767FF2846FFF7B2FF4D
S1132FA02068002D0CBF402180218843206031BD62
S1132FB030B50FF2600353F820004FF47A73B1FB7D
S1132FC0F3F1134BB3FBF1F1002300E023465C1C47
S1132FD001FB04F59542F9D32BB90A2462438A42D2
S1132FE004D3012302E0202B28BF1F23817901F0A1
S1132FF0A00103F00F021143817130BD024A02EBBC
S113300000104160704700006CB9FF1F3480044019
S113301040420F00006006400070064040682F499F
S11330204018007C70472E494A6842B10A681378F8
S11330300370501C08604868401E486070470021B7
S11330400170704725494969084738B504465A2C28
S113305008460BD1214D4219012111742149FFF772
S1133060CDFF6969BDE834405A20084731BD10B529
S113307004461A49FFF74FFFFEF740F80146204681
S1133080BDE810403222FFF793BF10B50446134841
S1133090416115498968096991F88110FF2918BFB0
S11330A001736068A268022190476068FFF7DFFF40
S11330B0002010BD10B504466068FFF75DFF60682E
S11330C0A268BDE810400021104705480160426035
S11330D041680029FCD100207047000060B8FF1F40
S11330E090B9FF1F8DABFF1F10B8FF1F70B50D0007
S11330F082B00446164601D1002076BD00AA00F035
S113310071F830B9009B9B685B68324629462046BB
S1133110984776BD70B50D0082B00446164601D1BD
S1133120002076BD00F07FF800B14CE000F047F8D5
S113313068B9009B9B689B6832462946204698479D
S11331404E49002806BF009A926800220A6076BDA4
S113315038B504460D4600AA00F044F8A0B900981A
S11331608068406908B9662032BD2946204600F0CF
S11331705AF810B142F2D87032BD009A926852697E
S113318029462046904732BD002DFCD1002032BD97
S113319070B50D0082B00446164601D1002076BDFC
S11331A000F041F800B10EE000F009F830B9009BDE
S11331B09B68DB68324629462046984776BD00AABC
S11331C0294620460EE042F2D87076BD10B52B4C4D
S11331D02168002029B109690A0002D0884700212A
S11331E0216010BD70B5264C6468002918BF002A00
S11331F042F2D87314D000E00C348CB12568002D51
S113320004BF6668002E01D1A6684EB1A84224BF4F
S113321065688542F0D30818401E854228BF002304
S11332201460184670BD30B5154A92681269536B24
S1133230A3B10918491E002302EBC3046034656876
S11332402468002C08BF002D05D0854228BFA14268
S113325001D3012030BD5B1C022BEDDB002030BD0F
S113326010B50748446804E00068010018BF8047AF
S11332700C34A0680028F7D110BD000098B9FF1FD6
S113328010B8FF1F10B58F488068006900F1700402
S113329030224FF470712046FEF726F820688A49E0
S11332A0884204D0FF2230212046FEF749FFFDF773
S11332B041FF002010BD38B5824CA06805694B2041
S11332C0E87005F110020120A8700421052068703F
S11332D0012028705020E8710120A8710220687133
S11332E0002028715420E8720120A872002068721E
S11332F028720120286368634EF6FF70A86300F00B
S113330052F805F11402012100F04DF805F11802FC
S1133310002100F048F805F11C02022100F043F8F6
S113332005F12002032100F03EF805F14C020521CD
S113333000F039F805F15002062100F034F805F1E7
S11333405402072100F02FF8002028666866002147
S11333505E48A8665E48E8666069E96007E095F83B
S11333608030134202D0EB681A43EA60491C1822E9
S113337002FB01021268002AF1D156480168A964CF
S11333804168696481682964C068E863606850F8CA
S11333900C1F696241680068081A401CA862012079
S11333A0A865002032BD04F12000FEF7E7BE00004E
S11333B0F8B51446434A484F91680426401E0969EB
S11333C017281D464CD8DFE800F00C121416181A02
S11333D0204B4B22262D241C1E30333E41434547AF
S11333E04B4905B12E6004B121600020F2BD0C31BF
S11333F0F7E71031F5E71431F3E71831F1E720313D
S1133400EFE72431EDE72831EBE73831E9E73031F4
S1133410E7E73431E5E7D0694169496988473860AD
S11334203946DEE710266031DBE72C480068F6E712
S113343000A902F12000FEF7CFFA9DF80000002851
S1133440EDD00120EBE710263C31CAE74C31C8E748
S11334505031C6E75431C4E75831C2E70831C0E7F8
S113346042F63C00F2BD174A92681369401E0628D2
S113347042F63E0220D909380CD0401E01281BD93F
S1133480801E0DD0401E032816D908380ED0801E89
S113349012D014E0002918BF012909D1196370471B
S11334A0002918BF012903D159637047032901D3A7
S11334B0104670479965704742F63D00704742F6E2
S11334C03C00704710B8FF1F6B6366670080FF1FE6
S11334D087BDFF1F5480044060BAFF1F248004404E
S11334E0012100F01F0291406D4A04E0012100F027
S11334F01F0291406B4A400942F820107047002196
S1133500C170817001700421417000218172417485
S11335107047F8B5644E3360130191FBF3F6330141
S11335200025B1FBF3F3044693424FF0FF3038BF5C
S1133530761E00D310D001274B0007EB461CB3FBCB
S1133540FCF39A4234BF9B1AD31A984224BF1846FC
S11335503D467F1C212FEFDB642192FBF1F101EB4F
S1133560410188423FD25149514F8C4206D05149C2
S11335708C420AD050498C420ED014E01F20FFF731
S1133580AFFF386840F480600CE02120FFF7A8FF0B
S1133590386840F4006005E02320FFF7A1FF386895
S11335A040F480503860E07800F0F300E070310AB5
S11335B00020A07001F01F01207800F0E000084313
S11335C020706670A07A00F0E0002843A072C0204A
S11335D06074E07840F02000E070E07840F00C0087
S11335E0E0700020F2BD0120F2BD02791206FCD584
S11335F0C171704731480178890600D50AE07047E7
S11336002F4801788A0701D5C0787047890600D50C
S113361000E07047C07824490968084729480178C0
S1133620890600D5F6E7704758B52049204E8842F0
S1133630044606D01F4988420AD01F4988420ED04A
S113364014E01F20FFF752FF306840F480600CE064
S11336502120FFF74BFF306840F4006005E0232091
S1133660FFF744FF306840F4805030602046FFF795
S113367046FF0E48844206D00E48844207D00E48C6
S1133680844208D051BD306820F4806006E0306880
S113369020F4006002E0306820F48050306051BDB6
S11336A000E100E080E100E0E8BAFF1F00A006406E
S11336B03480044000B0064000C0064004A0064028
S11336C004B0064004C0064038B5044600A960684A
S11336D0FDF731FA08BB6068FDF71EFD014660681E
S11336E0012804D002280CBF2A482B4800E02B48AC
S11336F02B4D009A2B68FFF70CFF58B96068A2683D
S11337000221904729685A2088472968A6208847BB
S1133710012032BD6068FDF7F5F9002032BD10B517
S113372004461F4801606068A268012190476068F0
S1133730FDF7E8F9002010BD10B5044660680128C3
S113374004D002280CBF1348134800E01348FFF7C5
S11337506BFF6068FDF7EDF96068A268BDE8104092
S11337600021104770B504460D46164602E009785C
S1133770FFF73BFF3046461E58B1294660684D1C92
S1133780012804D002280CBF02480348EFE703488D
S1133790EDE770BD00C0064000A0064000B0064042
S11337A0ECBAFF1FA649D1F88820531C5218C1F85F
S11337B0883082F82000D1F8880000F03F00C1F87A
S11337C08800704700207047B8E02DE9FC410C00E8
S11337D0154614BF002D0420984628D0984F002089
S11337E007F190062860707000F0A8F818B11EE088
S11337F0A22000F075F820213846FEF707F942466A
S1133800394600A800F0E7F810B1002129600EE065
S1133810394600A800F030F9BDF804108142E7D120
S1133820012030702760BDF8020028600020BDE848
S1133830F6812DE9F0410C0082B015461E4635D0C4
S1133840212D33D200F07AF800283FD1DFF8F0813F
S113385098F8910010B1002088F8910008F16007F1
S11338605A203870A42078700EB1A52078707D801D
S11338702DB12A46214608F16600FDF725FD08F121
S11338806601384600F0F8F8B880A91D384600F003
S113389064F8D8B900A800F0DDF8B8B99DF80100C3
S11338A0A12812D0A22806D0A32801D004200DE01C
S11338B042F212700AE07888811D384600F04DF813
S11338C020B99DF80100A228E4D00020BDE8F681CB
S11338D05C480121817000210170704720207047ED
S11338E080B55A218DF800108DF80100012054494B
S11338F081F89100022100A800F02FF802BD10B554
S1133900044650480178427880781140014282B0E0
S113391011D10FF294100088ADF80000022223693F
S11339205B6800A92046984723690FF280115B6801
S113393008222046984742F2137016BD4148017888
S113394019B100210170A12004E0817819B100218E
S11339508170A320C4E7002070473B4AD3690A461C
S1133960014618461B695B6818472DE9F14F8B46E1
S11339701446FDF764F906464FF47A7089466043AD
S1133980FDF76DF90025DFF8B8A00446A8460AF152
S113399088070EE07868396888420CD05044009952
S11339A090F8200068546D1C7868401C00F03F00BB
S11339B078605D450CD0002CECD0FDF740F9801BFD
S11339C061EB0901414501D8A042E3D3052000E0A1
S11339D00020BDE8F28F70B582B005460C4616464D
S11339E000F038F858BB6878A62804D11648C06996
S11339F0FFF785FF76BDA42106B1A521884201D039
S1133A00012076BD00F022F8BDF800106980B0B93D
S1133A1008462128A8BF2020688000F017F8BDF8C8
S1133A200010A98058B9698849B12046FDF788FC7F
S1133A3069880A2000FB01F22046FFF796FF76BD55
S1133A40F0BAFF1F80BBFF1F10B8FF1F1422022112
S1133A5000A88AE710B50446002201212046FFF79A
S1133A6084FF40B920785A28F6D1601CBDE8104084
S1133A700A22012179E710BD30B583B004460D4612
S1133A8000A800F017F80422214600A800F015F859
S1133A906288294600A800F010F801A900A800F0E7
S1133AA023F8BDF804003EBD5AA7000000020150EF
S1133AB00000AAEA00210180704770B50388002441
S1133AC00EE0655C83EA052308255E001B0444BF01
S1133AD086F4805686F021066D1E3346F5D1641CAB
S1133AE09442EED3038070BD0088088070470000C4
S1133AF00748016841F4700101604CF22051054807
S1133B00C1814DF62811C1814FF4E97101807047DC
S1133B1088ED00E0002005404EF68851CEF2000109
S1133B20086840F470000860BFF34F8FBFF36F8FD5
S1133B304FF00070E1EE100A7047000000F00BF83F
S1133B40002801D000F00AF80020C046C046FDF766
S1133B5055FAFDF793FA01207047000010B50749A4
S1133B6079441831064C7C44163404E00A68081D74
S1133B70511888470146A142F8D110BD3C0100000C
S1133B80480100007485FF1F78B8FF1F0486FF1FDB
S1133B9050B8FF1F00000000A485FF1F00000000B4
S1133BA00000000000000000000000000000000011
S1133BB00000000000000000000000000000000001
S1133BC000000000198FFF1F278FFF1F6884FF1F4D
S1133BD0F4B8FF1F6FABFF1F93ABFF1FB7ABFF1F03
S1133BE010000000000000000000000000000000C1
S1133BF0FFFF07004485FF1F0080FF1FFFFF002019
S1133C008C85FF1F00000040FFFF0740F084FF1F6A
S1133C1000F00F40FFFF0F40F084FF1F000000E0A2
S1133C20FFFF0FE0F084FF1F000000000000000011
S1133C30000000000000400130B504E012F8014B20
S1133C4000F8014B491ED1B1C507F7D40129F5D0BD
S1133C50850701D4042904D232F8024B20F8024B20
S1133C60891E8B08EFD000EB830403E052F8045B59
S1133C7040F8045BA042F9D3A1EB8301E3E730BD34
S1133C8080B513460246184600E080B5FFF7D4FF1E
S1133C90002002BD10B514460A462146BDE8104076
S1133CA00123FEF78BBEFFF7FEBFC046C046FFF7F9
S1133CB033FFFFF743FF0000E7D1FFFFC00200001E
S1133CC0C8B8FF1F0000000062B38B0708D0521E63
S1133CD011F8013B00F8013B00F024808B07F6D17A
S1133CE0830740F0208000BF103A07D330B4B1E816
S1133CF03810103AA0E83810F9D230BC530724BF6A
S1133D00B1E80810A0E8081044BF51F8043B40F89B
S1133D10043BD20724BF31F8022B20F8022B44BF06
S1133D200B7803707047083A07D3B1E80810083AD3
S1133D3040F8043B40F804CBF7D25307E4E7FEE72E
S1133D4080B518491848086018491948421A194892
S1133D5088421CBF002AFFF7B7FF17481749091A02
S1133D6018BF00F037F816491648421A04D0BDE8C7
S1133D7008401548FFF7A8BF01BD14484FF0FF31B4
S1133D80016041608160C160016141618161C16123
S1133D900F48016041608160C160016141618161DE
S1133DA0C161704708ED00E0000000000000000061
S1133DB000000000000000000000000000000000FF
S1133DC0D43E0000D43E000000FE002080E100E06C
S1133DD080E200E0002200F001B80000401810F07A
S1133DE0030308D0C91A1FD3DB0748BF00F8012D0D
S1133DF028BF20F8022D130030B41446154610399C
S1133E0028BF20E93C00FAD8490728BF20E90C0064
S1133E1048BF40F8042D890028BF20F8022D48BF70
S1133E2000F8012D30BC7047C91818BF00F8012DE7
S1133E30CB0728BF00F8012D704700000748016830
S1133E4041F4700101604CF220510548C1814DF6E6
S1133E502811C1814FF4E9710180704788ED00E0B9
S1133E60002005404EF68851CEF20001086840F467
S1133E7070000860BFF34F8FBFF36F8F4FF0007077
S1133E80E1EE100A7047000000F00BF8002801D0A2
S1133E90C046C0460020C046C046FCF709FB00F0FF
S1133EA002F80120704700F001B8000007463846C8
S1133EB000F002F8FBE70000202109032631182056
S1133EC0ABBEF9E7FFF7FEBFC046C046FFF7CAFF27
S1073ED0FFF7DAFF1B
S9030411E7
