S01A0000666C6173686C6F616465725F6C6F616465722E73726563AF
S11300000040002011040000F7330000F733000023
S1130010F7330000F7330000F7330000000000005E
S1130020000000000000000000000000F7330000A2
S1130030F733000000000000F7330000F73300003E
S11300409334000093340000933400009334000090
S11300509334000093340000933400009334000080
S11300609334000093340000933400009334000070
S11300709334000093340000933400009334000060
S1130400FFFFFFFFFFFFFFFFFFFFFFFFFEFFFFFFF9
S113041072B60E480E49886000220023002400258D
S113042000260027B846B946BA46BB46BC4609482A
S1130430854609488047094880470948804762B68D
S113044000200021074A9047FEE70000000000005A
S113045000ED00E000400020F5340000F933000016
S113046033340000B104000072B60D490020086066
S1130470BFF36F8FBFF34F8F704780B542F6C862EA
S11304800FF23401074802F08BFFFFF7EDFF064837
S113049080F3088880F309880448BDE802400047D7
S11304A008ED00E000E0FF1FE013002011E4FF1F4F
S11304B080B5FFF7E2FFFEE7E013002011E4FF1F21
S11304C0CBEAFF1F09F0FF1F0BF0FF1F0DF0FF1F0A
S11304D00FF0FF1F000000000000000000000000FB
S11304E000000000CBEAFF1FCBEAFF1F0000000062
S11304F0CBEAFF1FB7E7FF1F2FEBFF1F2FEBFF1FF9
S11305002FEBFF1F2FEBFF1F2FEBFF1F2FEBFF1F07
S11305102FEBFF1F2FEBFF1F2FEBFF1F2FEBFF1FF7
S11305202FEBFF1F2FEBFF1F2FEBFF1F2FEBFF1FE7
S11305302FEBFF1F2FEBFF1F2FEBFF1F2FEBFF1FD7
S11305402FEBFF1F2FEBFF1F2FEBFF1F2FEBFF1FC7
S11305502FEBFF1F2FEBFF1F450000204900002059
S11305603D000020410000202FEBFF1F2FEBFF1F59
S11305702FEBFF1FF90700202FEBFF1F05080020BA
S11305802FEBFF1F210800202FEBFF1F2FEBFF1F76
S11305902FEBFF1F2FEBFF1F2FEBFF1F2FEBFF1F77
S11305A02FEBFF1F2FEBFF1F2FEBFF1F2FEBFF1F67
S11305B02FEBFF1F2FEBFF1F2FEBFF1F2FEBFF1F57
S11305C02FEBFF1F2FEBFF1F2FEBFF1FF50C00205E
S11305D02FEBFF1F2FEBFF1F2FEBFF1F2FEBFF1F37
S11305E02FEBFF1F2FEBFF1F2FEBFF1FA1E9FF1FB7
S11305F02FEBFF1FC5E9FF1F2FEBFF1F2FEBFF1F83
S11306002FEBFF1F2FEBFF1F2FEBFF1F2FEBFF1F06
S11306102FEBFF1F2FEBFF1F2FEBFF1F2FEBFF1FF6
S11306202FEBFF1F2FEBFF1F2FEBFF1F2FEBFF1FE6
S11306302FEBFF1F2FEBFF1F2FEBFF1F2FEBFF1FD6
S11308B02FEBFF1F2FEBFF1FFFFFFFFFFFFFFFFFCC
S11308C0FFFFFFFFFEFFFFFF72B60E480E49886070
S11308D0002200230024002500260027B846B9463C
S11308E0BA46BB46BC46094885460948804709487C
S11308F080470948804762B600200021074A904794
S1130900FEE7000000E0FF1F00ED00E0E013002020
S1130910090D002075EEFF1FAFEEFF1FC5ECFF1F92
S11309204BF1FF1F000000005DF1FF1F00000000FD
S1130930CDF1FF1FC5F2FF1FBBF1FF1F21F2FF1F07
S11309400000000000000000FDF3FF1F0000000095
S113095071F1FF1F00000000000000000000000013
S11309608DF3FF1F000000000000000000000000E5
S113097003F1FF1F00000000A5F1FF1F00000000AD
S11309800000000000000000000000000000000063
S11309900000000000000000000000000000000053
S11309A0000000000000000000000000990E00207C
S11309B0A30E002000000000000000000000000062
S11309C0EDFBFF1F3BFCFF1F6FFCFF1F000000003F
S11309D0000000008FFCFF1F000000000000080062
S11309E00000100000002000000040000000800013
S11309F000000001000000020400024019F5FF1F7E
S1130A0045F5FF1F81F5FF1F0000000000000000F6
S1130A1057F6FF1FD10100203F0200206902002089
S1130A2000000000000000007F020020E703002017
S1130A30A1020020C902002000000000530300208E
S1130A4005030020F1F8FF1FF5F8FF1F07F9FF1F4A
S1130A500000000000000000000000000100000091
S1130A600100000011E8FF1F18E6FF1F28E6FF1F22
S1130A7030E6FF1F02000000010000009FE8FF1F96
S1130A805CE5FF1F6CE5FF1F30E6FF1F040000005C
S1130A9001000000E7E8FF1F08E5FF1F18E5FF1F3E
S1130AA030E6FF1F0000000000000000000000000E
S1130AB00000000000000000000000008904002085
S1130AC0BB040020B50500206B0600206810002040
S1130AD0CD080020230900203D090020000000006B
S1130AE00000000069090020C9090020CF09002086
S1130AF0370A0020D50A0020CD090020E10A002091
S1130B00A909002038B504463D4D0020C5E9000080
S1130B10C5E90200C5E90400A8612862394800F06B
S1130B209EF8E8612046BDE834400FF2590100F018
S1130B30B7B900F0DBB970B5314D0C46A969072986
S1130B4004BF296A88421AD100F08EF8C0EB00165F
S1130B50D5E90001D5E902231018B6FBF0F00A210B
S1130B6048434FF49661B0FBF1F0401D0A21B0FBFD
S1130B70F1F04FF4966148432060002070BD0120DD
S1130B8070BD00002DE9F843064600F058F81C4FEC
S1130B900446D7E904598846B8690021421C651BFC
S1130BA068EB0909F869494502D82CBFA84201221B
S1130BB0012ABA6106D0042A08D0052A0ED0072AD1
S1130BC00FD018E0C7E900483E6214E0D7E90001FD
S1130BD0201A68EB0101C7E900010CE0C7E90248EB
S1130BE009E0D7E90201201A68EB0101C7E9020113
S1130BF0304600F07BF9C7E90448BDE8F183000002
S1130C00800F0020803801001C48002101606FF033
S1130C107F421B494A6000228A6007220A60194900
S1130C20194A0968C900B1FBF2F101B90121416017
S1130C3070471348016821F00601016070470F49AD
S1130C400A68124800680B68C0430002000A9A420E
S1130C50F6D1002110EB026051EB122170470749D5
S1130C6049684843C008704706480068704703480D
S1130C700168491C016070470000000060100020FA
S1130C8010E000E0780F002040420F0018E000E080
S1130C90012100F01F029140A24A04E0012100F06A
S1130CA01F029140A04A400942F8201070470901F0
S1130CB0002806D59D4A00F00F00801800F8041C97
S1130CC070479B4A815470479A4A10B1012821D039
S1130CD07047994819B1022911D006D370470168A9
S1130CE0114001604168114012E00168114041F473
S1130CF0807101609148016821F0080129E00168D0
S1130D00114041F4E06101604168114041F4E06147
S1130D10416070478A4819B1022911D006D370473F
S1130D204168114041600168114012E0416811407E
S1130D3041F4807141608348016821F0020108E0B8
S1130D404168114041F4407141600168114041F42F
S1130D50407101607047012800D0704710B57A488F
S1130D607A4B744C7A4A11B1022909D010BD11682A
S1130D7021401160516821405160002119600CE04C
S1130D801168214041F4007111600121196051681A
S1130D90214041F4007151600121016010BD01281E
S1130DA025D1644A6B4811B102290CD070470168FF
S1130DB011400160416811404160816811408160C7
S1130DC0C168114012E00168114041F4E061016022
S1130DD04168114041F4E06141608168114041F48F
S1130DE0E0618160C168114041F4E061C160704715
S1130DF080B500F0C7F85848416B41F4785141631D
S1130E00016821F0406141F080610160016841F4B2
S1130E104031016001BD5048504A416B21F4785182
S1130E20416301681140016070474D484D490068B5
S1130E300968C0F30360401CB1FBF0F0704710B1C7
S1130E40012802D004E048487047464800687047CB
S1130E50002070470020704737480068C0F30060E6
S1130E6000B9704780B541480168080005D00020EA
S1130E7088473F494FF0FF30086001BD3D48006896
S1130E80C0F3006000B9704780B538484168080075
S1130E9005D00120884738494FF0FF30086001BD74
S1130EA070B50C46314D354E10B101280CD070BDD3
S1130EB001213D20FFF7FBFE3D20FFF7E9FE1E4820
S1130EC000F00EF82C6070BD01213F20FFF7EFFE0B
S1130ED03F20FFF7DDFE274800F002F86C6070BD8C
S1130EE00168314041F420210160704738B51F4C3E
S1130EF0224D10B101280AD031BD3D20FFF7CEFEAE
S1130F000D480168294001600020206031BD3F2068
S1130F10FFF7C4FE174801682940016000206060A3
S1130F2031BD000000E100E080E100E018ED00E0E8
S1130F3000E400E0FFF8FFFE0CB0044094F00F4022
S1130F4000D0044014F10F409405964214059642D3
S1130F5028B0044010C0044004800440FFFFF8F3AC
S1130F6044800440780F0020006CDC02481000200C
S1130F70A0B0044004D00440A0D00440FFFFF0FE21
S1130F807047FEE70848817804290BD1017801F005
S1130F909F010170FF218278012A04BF034A12785D
S1130FA0491EF8D17047000001E0074002D0074015
S1130FB0012811D80FF22C028056012904D100F027
S1130FC01F029140054A04E0012100F01F029140F4
S1130FD0034A400942F820107047000000E100E095
S1130FE080E100E01A1BFEE7012811D80FF22C0261
S1130FF08056012904D100F01F029140054A04E003
S1131000012100F01F029140034A400942F82010D8
S11310107047000000E100E080E100E0181950F89A
S1131020041B61B150F8042BD30744BFA9F1010399
S11310309A180023091F42F8043BFAD1EFE77047DE
S113104038B504460D46002000F0DAF86648674AD1
S11310500560446000211160016881F3088881F310
S1131060098840688047BDE83240002000F0C8B8D5
S11310705F498968096900281EBF10F1010F5D4AA4
S1131080904206D00A69904203D34B699A18904261
S113109008D34A6A904207D3896A891888428041F2
S11310A0C00F704701207047002070472DE9F047BA
S11310B04F4F514CB868006900F1700925460AE0A9
S11310C099F81010014205D06869EA68816952688C
S11310D028469047183528680028F1D14FF47A70D3
S11310E0FFF7BDFD0546FFF7B5FE002650BBFFF731
S11310F0BFFF38B3B868006990F88E00C00703D406
S113110000210846FFF79CFFB9F812004FF6FF7163
S1131110884208BF41F2883005FB00F6FFF78FFDD7
S113112080468A4676B1FFF78AFDB0EB080061EB92
S11311300A010027B94201D8B04203D3002108466E
S1131140FFF77EFF254600E0183528680028E9D01F
S1131150E9680968284688470028F5D0002DE1D0C1
S113116006E0A54203D0E168896820468847183420
S113117020680028F5D12846BDE8F08738B500F08E
S113118071F8FFF735FE1A4CA0680068804700200C
S113119000F076F8FFF738FD04F1200000F072F853
S11311A0206800688047A06840688047FFF77EFF9A
S11311B0E061016919B109680A0018BF8847E0694C
S11311C0416919B109680A0018BF8847E0680068D6
S11311D08047E569E06840688047E868C1680800BE
S11311E0F8D028468847F5E7A40F002008ED00E072
S11311F0C80E002011E4FF1FA4E5FF1F7047000084
S113120070B50446022C04D0002000F085F8012CAF
S11312100ED00026114D06E04019C16889680A0005
S113122018BF8847761C1820704341590029F3D110
S113123074B900F01DF8FFF7FCFC00F094F80849BD
S113124000200860012000F01BF8FFF7E4FD62B6FF
S1131250BFF36F8FBFF34F8F70BD00BFA4E5FF1FB7
S113126008ED00E072B605490020086062B67047D8
S113127072B602480168491C01607047441000209E
S11312807047000008B9042070471F4A1F491268BC
S1131290C2F3036231F81210090301D164207047CC
S11312A00022026041604FF48072012181604FF49A
S11312B00061C160164991F900309A404261C978D1
S11312C081610021FFE701610020704708B9042013
S11312D070475B1E194208BF1A4201D0652070474F
S11312E00368994221BF4068C0185118884201D24E
S11312F066207047002070470649884201D06B2061
S113130070470020704700004C80044020E5FF1F18
S1131310280002406B66656B0349096851F470014B
S1131320014A1160704700BF04F0014080B51849BC
S11313301848086018491948421A194888421CBFBD
S1131340002A00F03DF817481749091A18BF00F0A1
S113135073F816491648421A04D0BDE808401548E7
S113136000F02EB801BD14484FF0FF310160416018
S11313708160C160016141618161C1610F480160A7
S113138041608160C160016141618161C1617047F7
S113139008ED00E000E0FF1F9C0D0020500E00202F
S11313A0C80E0020800F0020DC110020C80E002091
S11313B0C80E0020DC11002080E100E080E200E0A3
S11313C062B38B0708D0521E11F8013B00F8013BB1
S11313D000F024808B07F6D1830740F0208000BF03
S11313E0103A07D330B4B1E83810103AA0E83810F6
S11313F0F9D230BC530724BFB1E80810A0E80810A4
S113140044BF51F8043B40F8043BD20724BF31F8F1
S1131410022B20F8022B44BF0B7803707047083A64
S113142007D3B1E80810083A40F8043B40F804CB6D
S1131430F7D25307E4E70000002200F001B80000EF
S1131440401810F0030308D0C91A1FD3DB0748BFA4
S113145000F8012D28BF20F8022D130030B41446E3
S11314601546103928BF20E93C00FAD8490728BF9F
S113147020E90C0048BF40F8042D890028BF20F85B
S1131480022D48BF00F8012D30BC7047C91818BFA1
S113149000F8012DCB0728BF00F8012D704700008C
S11314A0BFF34F8F0448054A016801F4E06111431A
S11314B00160BFF34F8FFEE70CED00E00400FA0576
S11314C0EEE7EDE7ECE7EBE7DFF8B414C968C968C9
S11314D00020086070472DE9F041DFF8A454E86962
S11314E082B000248DF801404669002E62D0E9687C
S11314F0C9680A68012A4CD001F108027468002303
S1131500091DA04704001FBF42F21270844242F238
S1131510137084424ED1E868C168D1F80880B8F1EC
S1131520000F47D04E68377837B1122F04DA80683D
S113153000EBC700083800E00020086200281CBF48
S1131540006800281CD000A905F1200000F022FA50
S1131550040017D19DF8000048B14FF4E750791EFC
S113156020FA01F2D00758BF42F211740AD5EA6892
S1131570D268126A1268414630469047002406E059
S113158042F210743946204600F09BF994B90120C8
S11315900DE0086A48B14168080003D00DF101006C
S11315A0884704460CB1002001E09DF80100E96879
S11315B0C96808602046BDE8F68180B5017800203E
S11315C000F07FF9DFF8B803C06941690969884709
S11315D00220FFF715FEBFF34F8FDFF8A803DFF8F3
S11315E0A823016801F4E06111430160BFF34F8F48
S11315F0FEE7DFF88C03C068C06814210C3000F0EB
S1131600E3B910B5044600F09DFAFFE72178BDE880
S1131610104056E110B5DFF8682312685269044699
S1131620A16860689047F1E730B583B0DFF85043B4
S1131630A56800210191009100AB81684068AD6804
S113164001AAC9B2C0B2A847E268D26800211161F8
S113165000998A08019900F048F937BD10B5DFF800
S113166020239268D26804466068A168C0B290479B
S1131670CCE710B500F012F800F012F8042101775D
S11316800020C3E710B500F009F800F009F80321C1
S113169001770020A168BDE810403DE10446A8E7B9
S11316A0DFF8DC02C068C068A1680161616841615B
S11316B0704738B500F0C1F8002141610161007F35
S11316C0042804D128680069804704B90446E868FE
S11316D0C068017F2046EAE02DE9FC41DFF8A06202
S11316E00446F068C068016921B900202070FFF742
S11316F0E0FF40E001212170056947690020009066
S11317000123F069D0F814C0DCF804C000AA01A9D0
S1131710E0475FEA000805D0F0694169C968884775
S1131720404603E0009830B942F21270FFF7C1FF5F
S11317300020207020E0A8423368019A88BF284620
S1131740009001469B683846984780460098C71920
S11317502D1A06D0B8F1000F09D0F0694169C968A3
S113176088474046FFF7A5FF0020207003E0F0689B
S1131770C068056147610020BDE8F6812DE9F047A6
S113178000F05BF801698AB021B900202070FFF7EE
S113179090FF4EE00121217006694769C168027F0C
S11317A0212E2CBF4FF02008B046A9B1424601A813
S11317B0FFF706FEE869D0F814C0DCF808C001237E
S11317C0424601A9E047A6EB080606B168B3FFF755
S11317D070FF002020702CE0032A08EB070906D1D3
S11317E02B685B6801AA4146384698470CE0102AEA
S11317F018BF4F46DED1407F0090434601AA3946C8
S113180005F1200000F0E0F95FEA000A4F46D1D06C
S1131810E8694569AD680123002201A9A84750463B
S1131820FFF747FF0020207004E0E868C068066105
S1131830476100200AB0BDE8F087514D0446E868CE
S1131840C06870472DE9F0410546504C6E68D5F8E4
S11318500880E8684A492060002749680C3130B1A3
S11318600A68904223BF4968491C814204273046D4
S1131870FFF7FEFB00B904272978384600F021F869
S11318809FB966600020FFF7BBFC2068C4F808809D
S113189018B180F3088880F3098861684046884756
S11318A0BDE8F0410020FFF7ABBCBDE8F081BDE826
S11318B0344006E010B50446211D354800F0CCF94B
S11318C0A4E610B584B0A02201908DF80020002277
S11318D000F050F88DF80220029102228DF80320C6
S11318E000234469A4680C2241E010B588B0A72302
S11318F000F023F80020531C8DF8033006E000AC00
S113190051F8203004EB8004401CA3609042F6DBC5
S113191000F00AF8002303E010B584B0A32215E018
S113192000A9A04708B010BD1548C0699DF8031070
S11319304469A46889000A1D70478DF8003001903D
S113194000238DF801308DF8023070478DF80020A7
S11319500190012200F00EF8029100228DF802207D
S1131960002302228DF803200C224469A46800A9F4
S1131970A0471FBD0248C0698DF8012070470000D0
S1131980C80E00200CED00E00400FA05D00F002082
S1131990E80E0020002818BF002901D10420704758
S11319A00848007800F00302022A08BF002005D08E
S11319B000F0C00080280CBF012002200870002025
S11319C0704700BF02000240002200F071B900001D
S11319D038B5774C65682A46042104F1200000F0EC
S11319E081F900AA012104F1200000F07BF92868A4
S11319F000990818401E6860002032BDF8B50446FE
S1131A006B480D46416B16464A4202EA0401671AC6
S1131A10EF197F423A4000AB5242203000F082F985
S1131A2048B99DF8000008B16C20F2BD3246294641
S1131A30204600F0BBF9F2BD2DE9F0475C4C88B0BC
S1131A408046A0680069056B8A464FEA9A06B6008C
S1131A509146AAEB060705B101254FF0FF3004902B
S1131A602FB13A4606EB090104A8FFF7A9FCCAF115
S1131A70000080088000414203AA404600F076F846
S1131A80002834D19DF80C0000B1002506EB080AAB
S1131A903EB133464A46414604F1200000F0AEF917
S1131AA038B93FB1042304AA514604F1200000F0E0
S1131AB0A5F9E0B9EDB2CDB16EB105A802904B46DF
S1131AC006A80190324600F015F8414604F12000C2
S1131AD000F0C6F948B94FB100F012F800F00AF866
S1131AE0514604F1200000F0BBF900B9002008B011
S1131AF0BDE8F087A0680069806DC0B200907047AF
S1131B0005A8029004AB06A801900422704770B5A2
S1131B1004460D46264E274B2A46214606F1200050
S1131B2000F0CEF968B9B16809690A6B4AB12A466E
S1131B3006F120008B6D2146BDE87040DBB200F059
S1131B40FBB970BD10B51A4C1A4904F1200000F01D
S1131B5031FA50B9A16809690A6B1AB1896D00F0AC
S1131B602DF810B9144A0121117010BD38B515466D
S1131B7000222A700A460E4C014600AB04F12000F4
S1131B8000F0D0F890B99DF8001029709DF800106D
S1131B9061B1094D297849B9A0680069816D00F0E7
S1131BA00DF808B16C2032BD0121297032BD00004E
S1131BB0C80E00206B66656BD8110020C9B204F111
S1131BC0200000F00FBA00002DE9F8435FEA000896
S1131BD0914614BFB9F1000F04200F461D4619D0D9
S1131BE0089C22462946384600F01AF890B904E0C9
S1131BF0716849F8041B3F1D2D1F5DB10648066836
S1131C0006483760032101700472404600F0F6F97B
S1131C100028EDD0BDE8F28340E5FF1F0700024035
S1131C2010B510F0030F08BF11F0030F01D06520A9
S1131C3010BD022A0EDA0C18641E012A06D10028EF
S1131C4004BF481E072805D1002010BD002AFBD17F
S1131C50FF2CF9D9042010BD10B50A46002818BF7E
S1131C60002A01D1042010BD0E4B1C78002104F081
S1131C700304022C14D045215971117859725178FA
S1131C8019729178D971D1789971117959735179FF
S1131C9019739179D972D179997200F0AFF901462B
S1131CA0084610BD0200024062F30F2262F31F4295
S1131CB000B500BF130096469446103928BFA0E82B
S1131CC00C50FAD85FEA417C28BF0CC048BF40F8EA
S1131CD0042BC90728BF20F8022B48BF00F8012BAA
S1131CE000BD0000002818BF002A01D1042070475D
S1131CF0072915D8DFE801F00408080A0C0E1012B1
S1131D00C0681060002070474068FAE78068F8E710
S1131D100068F6E70120F4E74069F2E78069F0E73C
S1131D206A2070472DE9F04180461E000D46174693
S1131D3008BF042034D00423FFF7C8FA80BBD8F8C6
S1131D4014307A195F42C2F1000C07EA0C0CCCF192
S1131D50000C2F40ACEB07070021B7FBF3F7DFF8CB
S1131D6044C00AE0DCF800E0203C6FEA0E0E2EFAD4
S1131D7004F4E40748BF491C5D1995420AD2B5FB37
S1131D80F3F4202C38BFDCF804E0EED3D8F818E0E4
S1131D907445E7D319B1B94234BF0221012131702E
S1131DA0BDE8F0811800024000F042B9134680B546
S1131DB00A4601461846FFF703FB002002BD70B532
S1131DC010F0030F0C46154612D0B0F1005F0FD28D
S1131DD02118491EB1F1005F0AD3C0F10056324602
S1131DE02946FFF7EDFAA21B71194FF0005001E0EC
S1131DF022462946FFF7E4FA002070BD2DE9F041A0
S1131E00044615000E461F4608BF042022D00423B2
S1131E103A46FFF75BFA5FEA000802D01AE0361D83
S1131E203F1F9FB10C480068066055F8041B4160D1
S1131E3006200A490870204600F0E0F88046206930
S1131E40010018BF8047B8F1000FE8D02046FFF723
S1131E5063FA4046BDE8F08140E5FF1F07000240F9
S1131E602DE9F04106465FEA03080D46174608BF10
S1131E7004201ED00423FFF729FAD0B9069C01E000
S1131E803F1F2D1DAFB10C480C49006805600222AC
S1131E900A700C7158F8041B8160304600F0AEF8EB
S1131EA00028EDD0079901B10D60089909B100220D
S1131EB00A60BDE8F08100BF40E5FF1F0700024053
S1131EC02DE9F041984604460D4616460823FFF7CF
S1131ED0FDF907001AD17019461EE068B6FBF0F14F
S1131EE000FB11622AB1491C4843461E01E0E06828
S1131EF04519AE4217D30E480E4900680560092003
S1131F0008704046FFF7F8F9070002D03846BDE8EC
S1131F10F081204600F072F807462069010018BFDE
S1131F208047002FE3D02046FFF7F6F9EEE700BF25
S1131F3040E5FF1F070002402DE9F84F984604468C
S1131F400D4692460823FFF7C1F960BB6068A1689B
S1131F50164FB0FBF1F96842C9F10001084046424E
S1131F60AE4208BF4E4403E0AAEB0B0A5D444E4464
S1131F70BAF1000F16D00E4909680D60701BD346E4
S1131F80824588BF8346012139704FEADB00010A8C
S1131F903971F87087F80280204600F02FF8002885
S1131FA0E2D000E00020BDE8F28F00BF070002404D
S1131FB040E5FF1F38B50400084601D1042032BDB6
S1131FC0074A44211170FFF797F9050007D120460D
S1131FD000F014F805462046FFF79EF9284632BD66
S1131FE00700024008B904207047034A4023537095
S1131FF0117000F003B800BF060002400B487021C6
S11320000170802101700178C909FCD00078810633
S113201001D567207047C10601D568207047C00705
S113202001D5692070470020704700BF00000240BE
S11320301A480068000B00F00F00C01E08282BD8B7
S1132040DFE800F005080B0E1114172A1A004FF4EC
S1132050804013E04FF4C04010E04FF400400DE026
S11320604FF440400AE04FF4803007E04FF4C030B2
S113207004E04FF4003001E04FF48020084949683F
S11320800322B0FBF2F0C0F1005241F80C2F6FF0C4
S1132090604202EB4000486000207047007004403A
S11320A0C80E002040682C49405C70472B494A68A0
S11320B042B10A6813780370501C08604868401ED7
S11320C04860704700210170704710B55A280CD140
S11320D0214A01238B54142404FB01210FF20D0324
S11320E0CB60BDE81040D16A084710BD1A49C96ADF
S11320F0084730B5184DE96285B0044600A80FF2D0
S113210060011422FFF76CF96068A268022190470D
S11321106068142101FB00510A1D00A900F091F828
S1132120002005B030BD10B504460B486168142288
S113213002FB0100001D00F0EAF86068A268BDE837
S113214010400021104705480160426041680029A1
S1132150FCD1002070470000E40F0020DC0F0020B9
S1132160F5FBFF1F13FCFF1F000000000800000028
S1132170010100002DE9F041044682B0D4F800804A
S11321800FF2E41050F82870F86A261D00012BD5D0
S1132190B268100028D041464FF49670904723E06F
S11321A000F04BF820699DF80050092805D300F091
S11321B044F89DF8000045EA00252069112805D35C
S11321C000F03BF89DF8000045EA00452069192815
S11321D005D300F032F89DF8000045EA00657D6300
S11321E0F86A40F00070F862F86A8001D8D4F86A9E
S11321F0800320D5BD6BF86A40F40030F862414694
S11322007268E8B290472069092804D328047268E8
S11322104146000E90472069112804D328027268B1
S11322204146000E904720691928E0D37268414660
S1132230280E9047DBE7BDE8F3813268414600A8E9
S11322401047F0B504460FF2201050F824700D46E4
S1132250164685B014213046FFF7B6FB0ECD301D6F
S11322600C3D0EC03460E86830613D4814B1012C67
S113227004D007E0016841F4805102E0016841F4B0
S113228000510160384600F09AF800208DF80000F3
S1132290ADF80C0000A9E8680190287C8DF80800CE
S11322A0687C8DF80900384600F066F868BB386829
S11322B020F48040386001220121384600F0ABF858
S11322C02848002100F8341000EBC40001224660C5
S11322D01921384600F0EAF801221121384600F0AD
S11322E0E5F801221B21384600F0E0F8002078636D
S11322F00121F86A40F00070F8622046FEF758FEAB
S11323003868400840003860002005B0F0BD70B562
S113231005680FF25400124C50F8256015B1012DD8
S113232006D00CE02068C00418D50021002004E089
S11323302068800412D500210120FEF739FE3046C2
S113234000F03DF815B1012D04D070BD206820F4D3
S1132350805002E0206820F40050206070BD00002E
S11323603C8004401410002000C0024000D0024011
S11323704001474A1150704738B50D460446287845
S1132380444A6101C043505000212046FFF7F0FF4A
S11323902A1D0021204600F044F810B140F231100B
S11323A032BD6A7B297B204600F021F800F001F859
S11323B032BD206820F0405020600020704710B5E6
S11323C004460122206820F480402060012020601F
S11323D00146204600F01FF82F48E0620020A0606C
S11323E0E0602061206344F20100206010BD30B53C
S11323F00368C3F380331BB1046824F4804404608D
S11324004401264D295126490A511BB1016841F462
S11324108041016030BD4001224B195022490A50CD
S1132420704730B51568042D09D3112D02D3036804
S1132430DB0F04D1212D05D30368DB0F02D140F259
S1132440311030BD00EB81016D1E537914790068A1
S1132450ED065B06A406C00FC86803F0007304F021
S113246080640CD020F0FE4005F0F04592792843BA
S113247020431206184302F08072104304E020F057
S1132480FC40284320431843C860002030BD0000AE
S11324907C0000423800004200000A9A34000042E6
S11324A0300000422C0000422800004210B5036BAB
S11324B001248C40A34302FA01F11943016310BDC6
S11324C080B5094901EBC00211F8300028B1074872
S11324D040B15068C046C04601BD054810B15068BF
S11324E0FFF748FE01BD00001410002000000000AA
S11324F0BDFCFF1F0020E3E70120E1E7002000E02E
S1132500012038B50FF2781151F82040594901EBF8
S11325100013E178E27801F012052A43E27001F039
S11325205002102A10D04A0614D54807A0780CD5BA
S113253040F01000A07000208DF8000000A8196879
S113254088479DF80000207131BD00F0EF00A070B5
S1132550207931BDA278C2F300121AB1C807EAD5B6
S1132560A078F2E72279014610465A68904731BDB7
S11325700FF20C1151F8200000218170017081715B
S11325807047F8B504000FF2F8003A4F50F8246091
S11325900D4695E80F0007EB041787E80F0036484F
S11325A001680CBF40228022114301600020B070FA
S11325B001214020B0710220F0702046FEF714FD86
S11325C03078297B40084941317000207071B07126
S11325D07070B07840F08000B070B07840F0400087
S11325E0B070F1BD38B50500234C03D12068400616
S11325F005D431BD012D10D1206800060DD5002170
S11326002846FEF7F1FC2846FFF7B2FF2068002DAC
S11326100CBF402180218843206031BD30B50FF2CA
S1132620600353F820004FF47A73B1FBF3F1134BBA
S1132630B3FBF1F1002300E023465C1C01FB04F52D
S11326409542F9D32BB90A2462438A4204D3012365
S113265002E0202B28BF1F23817901F0A00103F0A1
S11326600F021143817130BD024A02EB0010416038
S113267070470000241000203480044040420F00C2
S1132680006006400070064040682F494018007CF6
S113269070472E494A6842B10A6813780370501C87
S11326A008604868401E4860704700210170704708
S11326B025494969084738B504465A2C08460BD1C0
S11326C0214D4219012111742149FFF7CDFF696998
S11326D0BDE834405A20084731BD10B504461A49B4
S11326E0FFF74FFFFEF7A1FB01462046BDE810406F
S11326F03222FFF793BF10B50446134841611549D0
S11327008968096991F88110FF2918BF017360680D
S1132710A268022190476068FFF7DFFF002010BD28
S113272010B504466068FFF75DFF6068A268BDE805
S113273010400021104705480160426041680029AB
S1132740FCD1002070470000180F00205410002016
S1132750F9010020C80E002070B50D0082B00446B7
S1132760164601D1002076BD00AA00F05AF830B90F
S1132770009B9B685B68324629462046984776BD95
S113278070B50D0082B00446164601D1002076BD16
S113279000F068F800B135E000F030F868B9009B4B
S11327A09B689B683246294620469847434900283F
S11327B006BF009A926800220A6076BD38B50446C6
S11327C00D4600AA00F02DF8A0B900988068406971
S11327D008B9662032BD2946204600F043F810B1FE
S11327E042F2D87032BD009A926852692946204656
S11327F0904732BD002DFCD1002032BD00AA2946ED
S113280020460EE042F2D87076BD10B52B4C2168FC
S1132810002029B109690A0002D0884700212160FB
S113282010BD70B5264C6468002918BF002A42F216
S1132830D87314D000E00C348CB12568002D04BF8B
S11328406668002E01D1A6684EB1A84224BF65680F
S11328508542F0D30818401E854228BF0023146027
S1132860184670BD30B5164A92681269536BA3B10D
S11328700918491E002302EBC30460346568246808
S1132880002C08BF002D05D0854228BFA14201D3EA
S1132890012030BD5B1C022BEDDB002030BD10B5E8
S11328A00748446804E00068010018BF80470C34FE
S11328B0A0680028F7D110BD000000005C100020C3
S11328C0C80E0020002A01D101207047F0B41F4631
S11328D0034603242340002B09D00424E31A017087
S11328E001300824E141521E26D05B1EF7D1042A90
S11328F01ADB13D0002F11D00C460D460E46102AB9
S113290002DB72C0103AFAE70C2A02DB32C00C3A3E
S1132910FAE7082A02DB12C0083AFAE7042A03DBC2
S113292001600430121FF9E7002A05D0017001305C
S11329300824E141521EF7D1F0BC0020704700008A
S113294010B58F488068006900F1700430224FF49C
S113295070712046FEF744FD20688A49884204D0FD
S1132960FF2230212046FFF79FF9FEF709FB0020E4
S113297010BD38B5824CA06805694B20E87005F19C
S113298010020120A870042105206870012028701D
S11329905020E8710120A87102206871002028717C
S11329A05420E8720120A872002068722872012065
S11329B02863686340F66F50A86300F052F805F18D
S11329C01402012100F04DF805F11802002100F075
S11329D048F805F11C02022100F043F805F1200239
S11329E0032100F03EF805F14C02052100F039F80E
S11329F005F15002062100F034F805F154020721D4
S1132A0000F02FF800202866686600215E48A8665A
S1132A105E48E8666069E96007E095F88030134233
S1132A2002D0EB681A43EA60491C182202FB010237
S1132A301268002AF1D156480168A96441686964A2
S1132A4081682964C068E863606850F80C1F696293
S1132A5041680068081A401CA8620120A86500208B
S1132A6032BD04F12000FFF73DB90000F8B514466B
S1132A70434A484F91680426401E096917281D4699
S1132A804CD8DFE800F00C121416181A204B4B2215
S1132A90262D241C1E30333E414345474B4905B186
S1132AA02E6004B121600020F2BD0C31F7E7103133
S1132AB0F5E71431F3E71831F1E72031EFE724317A
S1132AC0EDE72831EBE73831E9E73031E7E7343136
S1132AD0E5E7D06941694969884738603946DEE7E6
S1132AE010266031DBE72C480068F6E700A902F104
S1132AF02000FEF74FFF9DF800000028EDD00120D4
S1132B00EBE710263C31CAE74C31C8E75031C6E741
S1132B105431C4E75831C2E70831C0E742F63C00FB
S1132B20F2BD174A92681369401E062842F63E0217
S1132B3020D909380CD0401E01281BD9801E0DD085
S1132B40401E032816D908380ED0801E12D014E077
S1132B50002918BF012909D119637047002918BF3A
S1132B60012903D159637047032901D310467047E3
S1132B709965704742F63D00704742F63C00704745
S1132B80C80E00206B63666700E0FF1FDF130020A0
S1132B90548004402011002024800440012100F0CE
S1132BA01F0291406D4A04E0012100F01F02914090
S1132BB06B4A400942F8201070470021C1708170AF
S1132BC00170042141700021817241747047F8B58D
S1132BD0644E3360130191FBF3F633010025B1FB1E
S1132BE0F3F3044693424FF0FF3038BF761E00D310
S1132BF010D001274B0007EB461CB3FBFCF39A42B1
S1132C0034BF9B1AD31A984224BF18463D467F1CF2
S1132C10212FEFDB642192FBF1F101EB41018842AA
S1132C203FD25149514F8C4206D051498C420AD06F
S1132C3050498C420ED014E01F20FFF7AFFF3868D4
S1132C4040F480600CE02120FFF7A8FF386840F4CE
S1132C50006005E02320FFF7A1FF386840F48050AE
S1132C603860E07800F0F300E070310A0020A070D2
S1132C7001F01F01207800F0E00008432070667026
S1132C80A07A00F0E0002843A072C0206074E078CD
S1132C9040F02000E070E07840F00C00E07000208C
S1132CA0F2BD0120F2BD02791206FCD5C171704754
S1132CB031480178890600D50AE070472F48017829
S1132CC08A0701D5C0787047890600D500E07047AF
S1132CD0C07824490968084729480178890600D53D
S1132CE0F6E7704758B52049204E8842044606D07E
S1132CF01F4988420AD01F4988420ED014E01F2081
S1132D00FFF752FF306840F480600CE02120FFF7A9
S1132D104BFF306840F4006005E02320FFF744FFD8
S1132D20306840F4805030602046FFF746FF0E487C
S1132D30844206D00E48844207D00E48844208D00C
S1132D4051BD306820F4806006E0306820F40060F3
S1132D5002E0306820F48050306051BD00E100E0B2
S1132D6080E100E02411002000A0064034800440EB
S1132D7000B0064000C0064004A0064004B006406F
S1132D8004C0064038B5044600A96068FDF7D3FEC8
S1132D9008BB6068FEF753F801466068012804D058
S1132DA002280CBF2A482B4800E02B482B4D009AE0
S1132DB02B68FFF70CFF58B96068A268022190479E
S1132DC029685A2088472968A6208847012032BDEF
S1132DD06068FDF797FE002032BD10B504461F4819
S1132DE001606068A268012190476068FDF78AFE6F
S1132DF0002010BD10B504466068012804D00228E4
S1132E000CBF1348134800E01348FFF76BFF6068DA
S1132E10FDF78FFE6068A268BDE8104000211047EE
S1132E2070B504460D46164602E00978FFF73BFFED
S1132E303046461E58B1294660684D1C012804D00E
S1132E4002280CBF02480348EFE70348EDE770BDD2
S1132E5000C0064000A0064000B006402811002033
S1132E60A649D1F88820531C5218C1F8883082F83A
S1132E702000D1F8880000F03F00C1F888007047B6
S1132E8000207047B8E02DE9FC410C00154614BF42
S1132E90002D0420984628D0984F002007F1900672
S1132EA02860707000F0A8F818B11EE0A22000F0AD
S1132EB075F820213846FEF787FD4246394600A8BA
S1132EC000F0E7F810B1002129600EE0394600A8AF
S1132ED000F030F9BDF804108142E7D101203070D0
S1132EE02760BDF8020028600020BDE8F6812DE9C6
S1132EF0F0410C0082B015461E4635D0212D33D248
S1132F0000F07AF800283FD1DFF8F08198F89100BA
S1132F1010B1002088F8910008F160075A20387039
S1132F20A42078700EB1A52078707D802DB12A463A
S1132F30214608F16600FEF743FA08F166013846B7
S1132F4000F0F8F8B880A91D384600F064F8D8B944
S1132F5000A800F0DDF8B8B99DF80100A12812D04E
S1132F60A22806D0A32801D004200DE042F212705A
S1132F700AE07888811D384600F04DF820B99DF8A4
S1132F800100A228E4D00020BDE8F6815C480121BC
S1132F9081700021017070472020704780B55A214C
S1132FA08DF800108DF801000120544981F891003A
S1132FB0022100A800F02FF802BD10B504465048C5
S1132FC00178427880781140014282B011D10FF229
S1132FD094100088ADF80000022223695B6800A900
S1132FE02046984723690FF280115B680822204627
S1132FF0984742F2137016BD4148017819B1002177
S11330000170A12004E0817819B100218170A3200E
S1133010C4E7002070473B4AD3690A460146184674
S11330201B695B6818472DE9F14F8B461446FDF781
S113303006FE06464FF47A7089466043FDF70FFE9C
S11330400025DFF8B8A00446A8460AF188070EE078
S11330507868396888420CD05044009990F8200070
S113306068546D1C7868401C00F03F0078605D4532
S11330700CD0002CECD0FDF7E2FD801B61EB0901C4
S1133080414501D8A042E3D3052000E00020BDE87B
S1133090F28F70B582B005460C46164600F038F83B
S11330A058BB6878A62804D11648C069FFF785FF85
S11330B076BDA42106B1A521884201D0012076BDA8
S11330C000F022F8BDF800106980B0B90846212844
S11330D0A8BF2020688000F017F8BDF80010A98070
S11330E058B9698849B12046FEF7A6F969880A20CB
S11330F000FB01F22046FFF796FF76BD2C1100205D
S1133100BC110020C80E00201422022100A88AE766
S113311010B50446002201212046FFF784FF40B980
S113312020785A28F6D1601CBDE810400A220121FB
S113313079E710BD30B583B004460D4600A800F011
S113314017F80422214600A800F015F862882946E1
S113315000A800F010F801A900A800F023F8BDF8B9
S113316004003EBD5AA70000000201500000AAEA74
S113317000210180704770B5038800240EE0655C6F
S113318083EA052308255E001B0444BF86F48056A9
S113319086F021066D1E3346F5D1641C9442EED3AD
S11331A0038070BD008808807047000003480168F0
S11331B00A001CBF4068084770470000C011002087
S11331C00748016841F4700101604CF22051054840
S11331D0C1814DF62811C1814FF4E9710180704716
S11331E088ED00E0002005404EF68851CEF2000143
S11331F0086840F470000860BFF34F8FBFF36F8F0F
S11332004FF00070E1EE100A7047000000F00BF878
S1133210002801D000F00AF80020C046C046FDF79F
S1133220ADFFFDF7EBFF01207047000010B5074923
S113323079441831064C7C44163404E00A68081DAD
S1133240511888470146A142F8D110BD240100005D
S11332503001000074E5FF1F300F002004E6FF1F5B
S1133260080F002000000000A4E5FF1F000000007C
S1133270000000000000000000000000000000004A
S1133280000000000000000000000000000000003A
S11332900000000011F0FF1F1FF0FF1F68E4FF1F74
S11332A0AC0F0020DB010020FF01002023020020DE
S11332B010000000000000000000000000000000FA
S11332C0FFFF010044E5FF1F00E0FF1FFF3F002058
S11332D08CE5FF1F00000040FFFF0740F0E4FF1FE4
S11332E000F00F40FFFF0F40F0E4FF1F000000E07C
S11332F0FFFF0FE0F0E4FF1F0000000000000000EB
S1133300000000000000400130B504E012F8014B59
S113331000F8014B491ED1B1C507F7D40129F5D0F6
S1133320850701D4042904D232F8024B20F8024B59
S1133330891E8B08EFD000EB830403E052F8045B92
S113334040F8045BA042F9D3A1EB8301E3E730BD6D
S113335080B513460246184600E080B5FFF7D4FF57
S1133360002002BDC046C046FFF73EFFFFF74EFFF8
S1133370AFDCFFFF5C020000800F002000000000B3
S113338062B38B0708D0521E11F8013B00F8013BD1
S113339000F024808B07F6D1830740F0208000BF23
S11333A0103A07D330B4B1E83810103AA0E8381016
S11333B0F9D230BC530724BFB1E80810A0E80810C4
S11333C044BF51F8043B40F8043BD20724BF31F812
S11333D0022B20F8022B44BF0B7803707047083A85
S11333E007D3B1E80810083A40F8043B40F804CB8E
S11333F0F7D25307E4E7FEE780B518491848086098
S113340018491948421A194888421CBF002AFFF774
S1133410B7FF17481749091A18BF00F037F81649BB
S11334201648421A04D0BDE808401548FFF7A8BF63
S113343001BD14484FF0FF31016041608160C160FB
S1133440016141618161C1610F4801604160816036
S1133450C160016141618161C161704708ED00E0B3
S11334600000000000000000000000000000000058
S113347000000000000000008835000088350000CE
S1133480003E002080E100E080E200E0002200F045
S113349001B8FEE7401810F0030308D0C91A1FD37F
S11334A0DB0748BF00F8012D28BF20F8022D1300C8
S11334B030B414461546103928BF20E93C00FAD828
S11334C0490728BF20E90C0048BF40F8042D8900B3
S11334D028BF20F8022D48BF00F8012D30BC7047EA
S11334E0C91818BF00F8012DCB0728BF00F8012D1B
S11334F0704700000748016841F4700101604CF214
S113350020510548C1814DF62811C1814FF4E9715C
S11335100180704788ED00E0002005404EF6885198
S1133520CEF20001086840F470000860BFF34F8FCA
S1133530BFF36F8F4FF00070E1EE100A7047000088
S113354000F00BF8002801D0C046C0460020C04659
S1133550C046FCF7ADFF00F002F80120704700F010
S113356001B800000746384600F002F8FBE7000007
S11335702021090326311820ABBEF9E7C046C04616
S10B3580FFF7CCFFFFF7DCFFAD
S9030411E7
