S0180000746F7765725F626F6F746C6F616465722E7372656351
S1130000C0E5FF1F11040000D7070000DD15000044
S1130010DF150000E1150000E315000000000000FA
S1130020000000000000000000000000D7070000EE
S1130030D707000000000000D7070000670A00008F
S1130040770B0000770B0000770B0000770B0000A4
S1130050770B0000770B0000770B0000770B000094
S1130060770B0000770B0000770B0000770B000084
S1130070770B0000770B0000770B0000770B000074
S1130080770B0000770B0000770B0000770B000064
S1130090770B0000770B0000770B0000770B000054
S11300A045310000770B000019310000770B000088
S11300B0770B0000770B0000770B0000C9380000B5
S11300C0770B0000D5380000770B0000770B000099
S11300D0770B0000770B0000770B0000770B000014
S11300E0770B0000770B0000770B0000770B000004
S11300F0770B0000770B0000770B0000770B0000F4
S1130100770B0000770B0000770B0000770B0000E3
S1130110770B0000770B0000770B0000770B0000D3
S1130120770B0000770B0000770B0000770B0000C3
S1130130770B0000770B0000FD0D0000770B00002B
S1130140770B0000770B0000770B0000770B0000A3
S1130150770B0000770B0000770B0000770B000093
S1130160770B0000770B0000770B0000AF3F000017
S1130170B13F0000B73F0000770B0000770B000091
S1130180BD3F0000770B0000770B0000770B0000E9
S1130190770B0000770B0000770B0000770B000053
S11301A0770B0000770B0000770B0000770B000043
S11301B0770B0000770B0000C53F0000C73F00002D
S11301C0CF3F0000770B0000770B0000D13F000009
S11301D0770B0000770B0000770B0000770B000013
S11301E0770B0000770B0000770B0000770B000003
S11301F0770B0000770B0000770B0000770B0000F3
S1130200770B0000770B0000770B0000770B0000E2
S11303F0770B0000770B0000770B0000FFFFFFFF77
S1130400FFFFFFFFFFFFFFFFFFFFFFFFFEFFFFFFF9
S113041072B60E480E49886000220023002400258D
S113042000260027B846B946BA46BB46BC4609482A
S1130430854609488047094880470948804762B68D
S113044000200021074A9047FEE70000000000005A
S113045000ED00E0C0E5FF1F913D0000B113000076
S1130460EB1300003B1000001F1700000000000009
S11304703117000000000000A117000099180000C7
S11304808F170000F517000061190000000000003C
S1130490E5190000000000004517000000000000FE
S11304A000000000000000007519000000000000BA
S11304B00000000000000000D7160000000000004B
S11304C07917000000000000000000000000000098
S11304D00000000000000000000000000000000018
S11304E00000000000000000000000000000000008
S11304F000000000893F0000933F00009D3F000082
S113050000000000000000006D230000BB23000079
S1130510EF23000000000000000000000F24000092
S1130520000000000000080000001000000020008F
S113053000004000000080000000000100000002F4
S113054004000240011B00002D1B0000691B000079
S1130550531C000000000000EF1C000055270000A1
S1130560D5280000EF280000000000000000000073
S113057007290000002003400040024000500240D0
S113058050634D604C5F4B5EE13200004F3300001E
S11305907933000000000000000000008F330000E9
S11305A025350000B1330000D93300005534000074
S11305B09134000015340000092000000D200000D3
S11305C01F2000005D20000000000000000000006B
S11305D00100000000000000EF0C00005C060000B9
S11305E06C06000074060000020000000000000019
S11305F0370D00008805000098050000740600000F
S113060004000000000000007D0D0000080500004B
S11306101805000074060000080000000000000037
S1130620CD0D00005C0500006C05000074060000A0
S113063000000000000000000000000000000000B6
S11306400000000000000000493500007B35000078
S11306508D3600004737000064E2FF1F693900004F
S1130660B7390000D139000000000000000000008C
S1130670F5390000493A00004F3A0000B73A00004B
S1130680553B00004D3A0000613B0000293A000050
S1130690416F11F1010F01BF816F11F1010FC16FA2
S11306A011F1010F02D042F6A20101E042F6A301CA
S11306B0C1627047FEB5254881680C69E16A01256D
S11306C042F6A30291423FD004F1700100258A68EA
S11306D0002A36D00E1D534231688B4222BF406837
S11306E00368994221BF40685118491E884228D3A3
S11306F000A800F02DF80C2000F52340C03031682C
S11307007268071DB9423CBF5318984208D2421A76
S113071000A800F023F8306871680818C21B394635
S113072000A800F01BF802A900A800F03FF8029806
S1130730E16F884206BF012542F6A00042F6A100FF
S113074001E042F6A400E0622846FEBD00E0FF1F7F
S11307504FF0FF3101600021416070477FB50446CE
S113076001208DF800000E462068019015460E48C1
S113077002900020ADF80C008DF80E006DB100F071
S11307808CF800A9002000F0A9F82A463146002080
S113079000F0BDF8019000F086F8019820606068D0
S11307A0281860607FBD0000B71DC10438B5044639
S11307B00D46207910F0030007D000A900220A603A
S11307C0C0F104022046FFF7C9FF2068286000201A
S11307D000F08EF831BDFEE770B5384E04460D4684
S11307E0D6E90001002908BF002806D14FF47A7029
S11307F000F031F90021C6E9000165700020207085
S1130800C4E90200206170BD38B504460D46607825
S113081038B172B66078401E60700020207062B6F5
S113082032BD9DB1207898B100F005F9D4E90223D6
S1130830801A224D9941D5E9002300F025F9216958
S1130840814211D272B60020207062B6022032BDFD
S113085015F1010F08D072B60120207062B600F0C5
S1130860EAF8C4E902012561032032BD4178FF2979
S113087001D10120704772B64178491C417062B6BB
S11308800020704700207047016062B6704772B65E
S11308900B490020086062B6704772B608480168C8
S11308A0491C0160704706480168022901D20021F1
S11308B0EAE70168491E01607047000070E1FF1F0C
S11308C048E2FF1F08304001484A115070478268CF
S11308D09200920842EA81718160704709B901204F
S11308E0704720B9424A136843F48023136051E0EF
S11308F0404951F8201041F221024A6000228A60E6
S113090020B93B48016821F4802101607047F8B5A3
S11309100E46384951F82040A068870F154605D087
S1130920022F07D004D3032F06D00EE0032104E0E6
S1130930022102E0012100E000212046FFF7C7FF69
S113094003E016F8010B20706D1E16F0030006D0AC
S1130950002DF6D103E056F8040B20602D1F042D62
S1130960F9D2012D0AD00BD3032D03D03CBF30881C
S1130970208005E030882080B07800E03078207056
S1130980204600F0F9F8054639462046FFF79FFF58
S11309902846F2BD70B50C0001D1012070BD154987
S11309A051F82050144905F1080046012078885177
S11309B02846217BFFF78BFF607BA968000721F0A5
S11309C0405100F040500843A8600C49A07B885176
S11309D00121A06868602846FFF774FF60682860FA
S11309E000212846FFF76EFF002070BD640000421E
S11309F03C8004407405000060000042680000422E
S1130A001C48002101606FF07F421B494A600022AC
S1130A108A6007220A601949194A0968C900B1FBAA
S1130A20F2F101B90121416070471348016821F0D6
S1130A300601016070470F490A68124800680B6894
S1130A40C0430002000A9A42F6D1002110EB026072
S1130A5051EB12217047074949684843C008704761
S1130A6006480068704703480168491C01607047E4
S1130A700000000058E2FF1F10E000E024E1FF1F27
S1130A8040420F0018E000E01B4213D1094236D166
S1130A902AB18446B0FBF2F002FB10C2704700F0AA
S1130AA085B8FCD30022002370470B00020000210C
S1130AB000207047904271EB030CF6D370B5B1FA85
S1130AC081F4B3FA83F52C1BA340C4F1200532FA58
S1130AD005F63343A2405FF00046E64002E05B08BF
S1130AE05FEA3202841A71EB030524BF20462946CB
S1130AF07641F4D302000B003000002170BD012ABE
S1130B00CFD970B5140C20D0B1FA81F4B2FA82F5C1
S1130B10C4F120046419B4F12006D6D3B2405FF0C6
S1130B200044F440002502E052085FEA3303C61A89
S1130B3071EB020E24BF3046714664416D41F3D31C
S1130B4002000B002000290070BD0C46B1FBF2F13D
S1130B5002FB11452D0445EA1045B5FBF2F402FBF6
S1130B60145580B240EA0545B5FBF2F002FB105281
S1130B7040EA044070BDFEE700F1080252010A4B4E
S1130B809A580021D2B21AB1012A08BF016808E0BC
S1130B908168090F01F0030102291ABF03290188A2
S1130BA0418808467047000060000042704750F8D2
S1130BB0041B61B150F8042BD30744BFA9F101030E
S1130BC09A180023091F42F8043BFAD1EFE7704753
S1130BD038B504463D4D0020C5E90000C5E90200D2
S1130BE0C5E90400A86128623948FFF734FFE861C9
S1130BF02046BDE834400FF2590100F011B900F06D
S1130C0024B970B5314D0C46A969072904BF296A76
S1130C1088421AD1FFF724FFC0EB0016D5E9000182
S1130C20D5E902231018B6FBF0F00A2148434FF42B
S1130C309661B0FBF1F0401D0A21B0FBF1F04FF4D6
S1130C40966148432060002070BD012070BD000003
S1130C502DE9F8430646FFF7EEFE1C4F0446D7E99C
S1130C6004598846B8690021421C651B68EB0909D0
S1130C70F869494502D82CBFA8420122012ABA6169
S1130C8006D0042A08D0052A0ED0072A0FD018E06F
S1130C90C7E900483E6214E0D7E90001201A68EB76
S1130CA00101C7E900010CE0C7E9024809E0D7E9FE
S1130CB00201201A68EB0101C7E90201304600F085
S1130CC0C4F8C7E90448BDE8F183000028E1FF1F28
S1130CD0803801000901002806D5664A00F00F009B
S1130CE0801800F8041C7047634A8154704708BB9D
S1130CF0624A634819B1022912D006D370470168C9
S1130D00114001604168114013E00168114041F451
S1130D10807101605B48016821F040010160704707
S1130D200168114041F4407101604168114041F48F
S1130D3040714160704700B1704710B5524A534842
S1130D40534B4E4C11B102290AD010BD19682140F1
S1130D50196059682140596000211160016010BD7B
S1130D605968214041F4007159601968214041F4E7
S1130D700071196001210160116010BD28BB3F4A58
S1130D80444811B102290CD0704701681140016038
S1130D90416811404160816811408160C16811401F
S1130DA012E00168114041F4007101604168114092
S1130DB041F4007141608168114041F40071816027
S1130DC0C168114041F40071C1607047A8B932484C
S1130DD02A4A11B1022906D0704741681140416086
S1130DE00168114008E04168114041F4007141601C
S1130DF00168114041F400710160704720480068A7
S1130E00C0F3006000B9704780B524480168080049
S1130E1005D00020884722494FF0FF30086001BD0B
S1130E2010B50C4680B901213E20FFF753FF1D4940
S1130E301D4A4FF08040086011480168114041F498
S1130E40202101601548046010BD00B1704780B5D1
S1130E5016494FF08040086000213E20FFF73AFF1A
S1130E600748114A01681140016000200B490860DD
S1130E7001BD000018ED00E000E400E0FFF8FFFE13
S1130E8018C00440D4F00F401400944294009442DB
S1130E9000A0044040D004403090044060E2FF1FB2
S1130EA0A0C0044004E100E0FFFFF0FE84E100E0A4
S1130EB030B901290CBF034903494FF08060086031
S1130EC0704700BF00E100E080E100E030B9012993
S1130ED00CBF034903494FF080700860704700BF9E
S1130EE000E100E080E100E038B504460D46002052
S1130EF000F0E6F86C486D4A056044604FF4204108
S1130F001160016881F3088881F30988406880478B
S1130F10BDE83240002000F0D3B86549896809690A
S1130F2000281EBF10F1010F624A904206D00A69E0
S1130F30904203D34B699A18904208D34A6A90426C
S1130F4007D3896A891888428041C00F70470120FD
S1130F507047002070472DE9F84F554D564EA8684C
S1130F60006900F1700A37460AE09AF8101001424D
S1130F7005D07869FA68816952683846904718370D
S1130F8038680028F1D14FF47A70FFF764FD074602
S1130F904FF42040002441680091D0F800B000F0E4
S1130FA0E1F870BB0098FFF7B8FF50B3FFF782FB7E
S1130FB038B3A868006990F88E00C00703D400987D
S1130FC05946FFF791FFBAF812004FF6FF718842B5
S1130FD008BF41F2883007FB00F4FFF72CFD804680
S1130FE0894674B1FFF727FDB0EB080061EB0901F6
S1130FF00025A94201D8A04203D300985946FFF71F
S113100073FF374600E0183738680028E9D0F968DC
S11310100968384688470028F5D0002FE1D006E05B
S1131020B74203D0F168896830468847183630687B
S11310300028F5D13846BDE8F28F38B5FFF727FC14
S113104000F070F81A4CA06800688047002000F097
S1131050B5F8FFF7D5FC04F1200000F028F920686A
S113106000688047A06840688047FFF774FFE0612C
S1131070016919B109680A0018BF8847E069416924
S113108019B109680A0018BF8847E06800688047FA
S1131090E569E06840688047E868C1680800F8D0FE
S11310A028468847F5E7000078E1FF1F08ED00E0D7
S11310B000E0FF1F11040000D0050000704700008D
S11310C070B50446022C04D0002000F05CF9012C19
S11310D00ED00026114D06E04019C16889680A0047
S11310E018BF8847761C1820704341590029F3D152
S11310F074B9FFF7D2FBFFF798FC00F076F90849C2
S113110000200860012000F059F800F014F862B6DD
S1131110BFF36F8FBFF34F8F70BD00BFD0050000CA
S113112008ED00E080B500F08DF91D48016841F438
S11311307851016001BD1A48016821F478510160B9
S11311407047FFE71748184900680968C0F303604F
S1131150401CB1FBF0F0704710B9134800687047A9
S1131160002070471148124A0168114041F480710F
S1131170016010494A6822F080024A60026842F025
S11311801302026000204FF4FA720B68C3F3C01319
S11311901818521EF9D1FA288041C00F7047000078
S11311A0388004404480044024E1FF1F1CB0044004
S11311B0FFF8FFFE90F00F4070470000F0B50028E4
S11311C0274949D1086827488068006900F17002FE
S11311D02548137FDB0708D50968090F4FF0A07273
S11311E0491CB2FBF1F10160F0BD527F1F4BD243A9
S11311F002F00F02541C00E0641C4FF0A072B2FB1A
S1131200F4F29A42F8D225462346194F00E06D1CA9
S11312104FF0A076B6FBF5F6BE42F8D24FF0A076BA
S1131220B6FBF3F6134FBE4228BF5B1CF6D2012C6B
S113123003D1092D38BF092B11D26D1E2D065B1E5B
S1131240641E05F070651B0445EA047403F47023FE
S113125023430B600260F0BD012808BF0A60F0BDA3
S11312604480044000E0FF1F24E1FF1F010E270714
S11312700187930341787D0108B904207047C06950
S113128020B10068022801D1002070476D2070470A
S113129010B508B9042010BDC469606800F0EFF807
S11312A0A06800F063F802202060002010BD10B593
S11312B0040001D1042010BD224923480968C1F368
S11312C0036130F81100000301D1642010BD002136
S11312D0216060604FF480710120A0604FF4805061
S11312E0E0601A4890F9002091406161C078A061E3
S11312F0002020612046FFF7BFFF20B11448E061C1
S11313002046FFF7C5FF002010BD08B90420704730
S11313105B1E194208BF1A4201D06520704703685A
S1131320994221BF4068C0185118884201D26620F2
S11313307047002070470749884201D06B207047EE
S1131340002070474C800440200500002800024023
S113135050E0FF1F6B66656B016841F4700101602A
S1131360BFF36F8FBFF34F8F7047704710B50446BC
S11313700B480C490A1A411E204600F0AFF80A49EE
S1131380601C086010BD38B504002000FFF774FF2E
S11313900500002D03D1054803490968884731BD7C
S11313A0591300006B130000B0E1FF1F04F001406B
S11313B080B518491848086018491948421A19484C
S11313C088421CBF002A00F089F817481749091AF7
S11313D018BF00F0BFF816491648421A04D0BDE8F9
S11313E00840154800F07AB801BD14484FF0FF31A9
S11313F0016041608160C160016141618161C161DD
S11314000F48016041608160C16001614161816197
S1131410C161704708ED00E000000000183E0000C4
S1131420403F000000E0FF1F28E1FF1FC0E3FF1F53
S1131430F03F0000F03F0000C0E3FF1F80E100E048
S113144080E200E00848817804290BD1017801F09A
S11314509F010170FF218278012A04BF034A127898
S1131460491EF8D17047000001E0074002D0074050
S11314708021017001780906FCD57047704710B5CA
S11314800446124812490A1A411E204600F026F862
S11314901049601C086010BD10B50F4C70212170FC
S11314A0FFF7EAFE88B90B49096820468847207887
S11314B0810601D5672010BDC10601D5682010BD85
S11314C0C00701D5692010BD002010BD71140000B3
S11314D07D140000B4E1FF1F0000024062B38B07DB
S11314E008D0521E11F8013B00F8013B00F02480A3
S11314F08B07F6D1830740F0208000BF103A07D352
S113150030B4B1E83810103AA0E83810F9D230BC41
S1131510530724BFB1E80810A0E8081044BF51F8ED
S1131520043B40F8043BD20724BF31F8022B20F8D7
S1131530022B44BF0B7803707047083A07D3B1E815
S11315400810083A40F8043B40F804CBF7D253079C
S1131550E4E70000002200F001B80000401810F099
S1131560030308D0C91A1FD3DB0748BF00F8012DB5
S113157028BF20F8022D130030B414461546103944
S113158028BF20E93C00FAD8490728BF20E90C000D
S113159048BF40F8042D890028BF20F8022D48BF19
S11315A000F8012D30BC7047C91818BF00F8012D90
S11315B0CB0728BF00F8012D70470000BFF34F8F01
S11315C00448054A016801F4E06111430160BFF376
S11315D04F8FFEE70CED00E00400FA05EEE7EDE7BF
S11315E0ECE7EBE7DFF8C814C968C96800200860B5
S11315F070472DE9F041DFF8B854E86982B000245F
S11316008DF801404669002E62D0E968C9680A680D
S1131610012A4CD001F1080274680023091DA04777
S113162004001FBF42F21270844242F213708442DB
S11316304ED1E868C168D1F80880B8F1000F47D0EE
S11316404E68377837B1122F04DA806800EBC70090
S1131650083800E00020086200281CBF0068002849
S11316601CD000A905F1200000F02CFA040017D1C9
S11316709DF8000048B14FF4E750791E20FA01F2BA
S1131680D00758BF42F211740AD5EA68D268126AC8
S11316901268414630469047002406E042F2107436
S11316A03946204600F0A5F994B901200DE0086AF6
S11316B048B14168080003D00DF101008847044691
S11316C00CB1002001E09DF80100E968C9680860D8
S11316D02046BDE8F68180B50178002000F089F944
S11316E0DFF8CC03C0694169096988470220FFF724
S11316F0E7FCBFF34F8FDFF8BC03DFF8BC230168BE
S113170001F4E06111430160BFF34F8FFEE7DFF89E
S1131710A003C068C06814210C3000F0EDB910B506
S1131720044600F00AFBFFE72178BDE8104060E1C1
S113173010B5DFF87C23126852690446A16860681A
S11317409047F1E730B583B0DFF86443A568002122
S11317500191009100AB81684068AD6801AAC9B2EB
S1131760C0B2A847E268D2680021116100998A08D2
S1131770019900F052F937BD10B5DFF834239268AF
S1131780D26804466068A168C0B29047CCE710B53F
S113179000F012F800F012F8042101770020C3E7EA
S11317A010B500F009F800F009F8032101770020D2
S11317B0A168BDE8104047E10446A8E7DFF8F0025D
S11317C0C068C068A168016161684161704738B54B
S11317D000F0C1F8002141610161007F042804D1B7
S11317E028680069804704B90446E868C068017F36
S11317F02046F4E02DE9FC41DFF8B4620446F068C9
S1131800C068016921B900202070FFF7E0FF40E0C3
S11318100121217005694769002000900123F069C6
S1131820D0F814C0DCF804C000AA01A9E0475FEABC
S1131830000805D0F0694169C9688847404603E05B
S1131840009830B942F21270FFF7C1FF00202070F7
S113185020E0A8423368019A88BF284600900146D8
S11318609B683846984780460098C7192D1A06D0B9
S1131870B8F1000F09D0F0694169C968884740464A
S1131880FFF7A5FF0020207003E0F068C068056141
S113189047610020BDE8F6812DE9F04700F05BF8D0
S11318A001698AB021B900202070FFF790FF4EE053
S11318B00121217006694769C168027F212E2CBF6E
S11318C04FF02008B046A9B1424601A8FFF706FE32
S11318D0E869D0F814C0DCF808C00123424601A925
S11318E0E047A6EB080606B168B3FFF770FF0020D7
S11318F020702CE0032A08EB070906D12B685B68EB
S113190001AA4146384698470CE0102A18BF4F46B2
S1131910DED1407F0090434601AA394605F12000FC
S113192000F082FA5FEA000A4F46D1D0E8694569BF
S1131930AD680123002201A9A8475046FFF747FFDD
S11319400020207004E0E868C06806614761002058
S11319500AB0BDE8F087564D0446E868C068704791
S113196010B5534B1B68DB680446E268A1686068E5
S11319709847D9E62DE9F0410546504C6E68D5F8F4
S11319800880E8684A492060002749680C3130B172
S11319900A68904223BF4968491C814204273046A3
S11319A0FFF7BBFA00B904272978384600F021F87C
S11319B09FB966600020FFF783FB2068C4F80880A5
S11319C018B180F3088880F3098861684046884725
S11319D0BDE8F0410020FFF773BBBDE8F081BDE82E
S11319E0344006E010B50446211D354800F064FA81
S11319F09AE610B584B0A02201908DF80020002250
S1131A0000F050F88DF80220029102228DF8032094
S1131A1000234469A4680C2241E010B588B0A723D0
S1131A2000F023F80020531C8DF8033006E000ACCE
S1131A3051F8203004EB8004401CA3609042F6DB94
S1131A4000F00AF8002303E010B584B0A32215E0E7
S1131A5000A9A04708B010BD1548C0699DF803103F
S1131A604469A46889000A1D70478DF8003001900C
S1131A7000238DF801308DF8023070478DF8002076
S1131A800190012200F00EF8029100228DF802204C
S1131A90002302228DF803200C224469A46800A9C3
S1131AA0A0471FBD0248C0698DF80120704700009F
S1131AB000E0FF1F0CED00E00400FA0580E1FF1FC9
S1131AC020E0FF1F002818BF002901D1042070471F
S1131AD00848007800F00302022A08BF002005D05D
S1131AE000F0C00080280CBF0120022008700020F4
S1131AF0704700BF02000240002200F009BA000053
S1131B0038B5C64C65682A46042104F1200000F06B
S1131B1019FA00AA012104F1200000F013FA286840
S1131B2000990818401E6860002032BDF8B50446CC
S1131B30BA480D46416B16464A4202EA0401671A46
S1131B40EF197F423A4000AB5242203000F01AFABB
S1131B5048B99DF8000008B16C20F2BD3246294610
S1131B60204600F053FAF2BD2DE9F04FDFF8AC82C5
S1131B708146D8F8080000690D4687B0AE08B60063
S1131B80046B9246AF1B04B101244FF0FF30049064
S1131B902FB13A4606EB0A0104A8FFF79FFCFEF7B3
S1131BA07CFE684280088000414203AA484600F057
S1131BB010F9050002D0FEF776FE3DE09DF80C001A
S1131BC000B1002406EB090B46B1334652464946A0
S1131BD008F1200000F04CFA050008D13FB10423BD
S1131BE004AA594608F1200000F042FA0546FEF71F
S1131BF05AFE0DBBE4B20CB3FEF74FFE76B105A856
S1131C000290534606A80190324600F01BF849465C
S1131C1008F1200000F05EFA05000AD14FB100F08F
S1131C205FF800F00FF8594608F1200000F052FA6E
S1131C300546FEF738FE0DB1284600E0002007B047
S1131C40BDE8F08FD8F808000069806DC0B200903C
S1131C5070472DE9F041714D8046A8680069066B14
S1131C6088B006B1012648428008049280004742A9
S1131C7003AA3946404600F0ACF804002AD19DF886
S1131C800C0020B1002602E008F104083F1F1FB336
S1131C90FEF703FE042304AA414605F1200000F0E8
S1131CA0E7F90446FEF7FFFDA4B9002EECD0FEF7D9
S1131CB0F4FD00F015F8A8680069806DC0B20090CA
S1131CC0414605F1200000F005FA0446FEF7EBFD5D
S1131CD0002CD9D0204600E0002008B0BDE8F081F7
S1131CE005A8029004AB06A8019004227047F8B539
S1131CF004460D46FEF7D1FD484E494B2A4621467F
S1131D0006F1200000F016FA0746FEF7CCFD97B95D
S1131D10B0680069006B70B1FEF7BFFDB068006980
S1131D20836DDBB22A46214606F1200000F03EFA1C
S1131D300746FEF7B8FD3846F2BDF8B5374EB06831
S1131D40006900F160040025216821B96268521E0F
S1131D509241D20F00E000228369406BB8B1B2B95E
S1131D605F4231B1394004D00020FFF7C0FF0500C5
S1131D702DD17168606849684042384040428842C9
S1131D8025D2491C091AFFF7B2FF05461FE0FEF7EA
S1131D9084FD234906F1200000F046FA0546FEF7CB
S1131DA082FDA5B9B0680069006B68B1FEF775FDE6
S1131DB0B0680069816DC9B206F1200000F04CFAE8
S1131DC00546FEF770FD15B916490120087028462E
S1131DD0F2BD38B5154600222A700A460F4C01465A
S1131DE000AB04F1200000F0CDF8A8B99DF8001074
S1131DF029709DF8001079B10A4D297861B9A0685D
S1131E000069816DC9B204F1200000F025FA08B11F
S1131E106C2032BD0121297032BD000000E0FF1F9B
S1131E206B66656BBCE3FF1F2DE9F8435FEA0008AE
S1131E30914614BFB9F1000F04200F461D4619D076
S1131E40089C22462946384600F01AF890B904E066
S1131E50716849F8041B3F1D2D1F5DB106480668D3
S1131E60064837600321017004724046FFF714FBF3
S1131E700028EDD0BDE8F2834005000007000240D1
S1131E8010B510F0030F08BF11F0030F01D0652047
S1131E9010BD022A0EDA0C18641E012A06D100288D
S1131EA004BF481E072805D1002010BD002AFBD11D
S1131EB0FF2CF9D9042010BD10B50A46002818BF1C
S1131EC0002A01D1042010BD0E4B1C78002104F01F
S1131ED00304022C14D04521597111785972517898
S1131EE019729178D971D17899711179597351799D
S1131EF019739179D972D1799972FFF7CDFA0146A4
S1131F00084610BD0200024062F30F2262F31F4232
S1131F1000B500BF130096469446103928BFA0E8C8
S1131F200C50FAD85FEA417C28BF0CC048BF40F887
S1131F30042BC90728BF20F8022B48BF00F8012B47
S1131F4000BD0000002818BF002A01D104207047FA
S1131F50072915D8DFE801F00408080A0C0E10124E
S1131F60C0681060002070474068FAE78068F8E7AE
S1131F700068F6E70120F4E74069F2E78069F0E7DA
S1131F806A2070472DE9F04180461E000D46174631
S1131F9008BF042034D00423FFF7B7F980BBD8F876
S1131FA014307A195F42C2F1000C07EA0C0CCCF130
S1131FB0000C2F40ACEB07070021B7FBF3F7DFF869
S1131FC044C00AE0DCF800E0203C6FEA0E0E2EFA72
S1131FD004F4E40748BF491C5D1995420AD2B5FBD5
S1131FE0F3F4202C38BFDCF804E0EED3D8F818E082
S1131FF07445E7D319B1B94234BF022101213170CC
S1132000BDE8F0811800024000F032B9134680B5F3
S11320100A4601461846FFF761FA002002BD70B572
S113202010F0030F0C46154612D0B0F1005F0FD22A
S11320302118491EB1F1005F0AD3C0F1005632469F
S11320402946FFF74BFAA21B71194FF0005001E02B
S113205022462946FFF742FA002070BD10B5144607
S11320600A462146BDE81040012300F041B90000B2
S11320702DE9F041044615000E461F4608BF042012
S113208022D004233A46FFF740F95FEA000802D061
S11320901AE0361D3F1F9FB10C480068066055F8D2
S11320A0041B416006200A4908702046FFF7F4F932
S11320B080462069010018BF8047B8F1000FE8D0BE
S11320C02046FFF760F94046BDE8F0814005000076
S11320D0070002402DE9F04106465FEA03080D4679
S11320E0174608BF04201ED00423FFF70EF9D0B909
S11320F0069C01E03F1F2D1DAFB10C480C49006840
S1132100056002220A700C7158F8041B8160304685
S1132110FFF7C2F90028EDD0079901B10D600899C5
S113212009B100220A60BDE8F08100BF400500004B
S1132130070002402DE9F041984604460D46164634
S11321401023FFF7E2F807001AD17019461EE06861
S1132150B6FBF0F100FB11622AB1491C4843461E4C
S113216001E0E0684519AE4217D30E480E490068F5
S11321700560092008704046FFF7DDF8070002D02B
S11321803846BDE8F0812046FFF786F90746206906
S1132190010018BF8047002FE3D02046FFF7F3F873
S11321A0EEE700BF40050000070002402DE9F84FAC
S11321B0984604460D4692461023FFF7A6F860BBE6
S11321C06068A168164FB0FBF1F96842C9F10001DB
S11321D008404642AE4208BF4E4403E0AAEB0B0A55
S11321E05D444E44BAF1000F16D00E4909680D60E3
S11321F0701BD346824588BF8346012139704FEA5C
S11322001B10010A3971F87087F802802046FFF725
S113221043F90028E2D000E00020BDE8F28F00BFBF
S1132220070002404005000038B50400084601D10B
S1132230042032BD074A44211170FFF77CF80500E1
S113224007D12046FFF728F905462046FFF79BF8FB
S1132250284632BD0700024008B904207047034AEB
S1132260402353701170FFF717B900BF06000240F6
S11322701D480068000B00F00F00C01E082830D86D
S1132280DFE800F005080B0E1114172F1A004FF4A5
S1132290804013E04FF4C04010E04FF400400DE0E4
S11322A04FF440400AE04FF4803007E04FF4C03070
S11322B004E04FF4003001E04FF480200121421E7D
S11322C010420A4A526818BF02214B1CB0FBF3F0BB
S11322D0C0F1005342F80C3F6FF0604301FB003043
S11322E050600020704700BF0070044000E0FF1FF2
S11322F0002A01D101207047F0B41F46034603248D
S11323002340002B09D00424E31A0170013008246F
S1132310E141521E26D05B1EF7D1042A1ADB13D0EA
S1132320002F11D00C460D460E46102A02DB72C057
S1132330103AFAE70C2A02DB32C00C3AFAE7082A10
S113234002DB12C0083AFAE7042A03DB0160043016
S1132350121FF9E7002A05D0017001300824E14179
S1132360521EF7D1F0BC00207047000040682C4991
S1132370405C70472B494A6842B10A68137803707D
S1132380501C08604868401E486070470021017076
S1132390704710B55A280CD1214A01238B541424B8
S11323A004FB01210FF20D03CB60BDE810409169DD
S11323B0084710BD1A498969084730B5184DA96105
S11323C085B0044600A80FF260011422FFF796F8C6
S11323D06068A268022190476068142101FB0051E3
S11323E00A1D00A900F091F8002005B030BD10B519
S11323F004460B486168142202FB0100001D00F032
S1132400E3F86068A268BDE8104000211047054861
S11324100160426041680029FCD10020704700003F
S113242094E1FF1F8CE1FF1F75230000932300003C
S11324300000000008000000010100002DE9F04147
S1132440044682B0D4F800800FF2B41050F828701B
S1132450F86A261D00012BD5B268100028D0414629
S11324604FF49670904723E000F04BF820699DF8F4
S11324700050092805D300F044F89DF8000045EA0F
S113248000252069112805D300F03BF89DF80000D1
S113249045EA00452069192805D300F032F89DF873
S11324A0000045EA00657D63F86A40F00070F86258
S11324B0F86A8001D8D4F86A800320D5BD6BF86A25
S11324C040F40030F86241467268E8B290472069EF
S11324D0092804D3280472684146000E90472069F5
S11324E0112804D3280272684146000E90472069DF
S11324F01928E0D372684146280E9047DBE7BDE80F
S1132500F3813268414600A81047F0B504460FF243
S1132510F00050F824700D46164685B0142130465C
S1132520FFF7EAFA0ECD301D0C3D0EC03460E868AA
S1132530306124B93048016841F480510160384663
S113254000F087F800208DF80000ADF80C0000A919
S1132550E8680190287C8DF80800687C8DF80900F3
S1132560384600F053F868BB386820F4804038607F
S113257001220121384600F098F82048002100F893
S1132580341000EBC400012246601921384600F0E3
S1132590D7F801221121384600F0D2F801221B217C
S11325A0384600F0CDF8002078630121F86A40F045
S11325B00070F8622046FEF77BFC38684008400053
S11325C03860002005B0F0BD70B504680FF230002B
S11325D0094E50F8245034B93068C0040BD500219A
S11325E00020FEF765FC284600F033F81CB930687B
S11325F020F48050306070BD3C80044000E2FF1F36
S113260000C002404001474A1150704738B50D469A
S113261004462878444A6101C043505000212046B2
S1132620FFF7F0FF2A1D0021204600F044F810B106
S113263040F2311032BD6A7B297B204600F021F83C
S113264000F001F832BD206820F0405020600020E6
S1132650704710B504460122206820F480402060B1
S1132660012020600146204600F01FF82F48E06258
S11326700020A060E0602061206344F2010020603B
S113268010BD30B50368C3F380331BB1046824F470
S1132690804404604401264D295126490A511BB146
S11326A0016841F48041016030BD4001224B195062
S11326B022490A50704730B51568042D09D3112DED
S11326C002D30368DB0F04D1212D05D30368DB0F8C
S11326D002D140F2311030BD00EB81016D1E5379FF
S11326E014790068ED065B06A406C00FC86803F001
S11326F0007304F080640CD020F0FE4005F0F04537
S11327009279284320431206184302F08072104342
S113271004E020F0FC40284320431843C860002014
S113272030BD00007C0000423800004200000A9ADC
S113273034000042300000422C00004228000042D5
S113274010B5036B01248C40A34302FA01F1194331
S1132750016310BD4068A049405C704738B5044629
S11327605A2C08460BD19C4D012141550FF2110101
S113277000F0C4FA6968BDE834405A20084731BD06
S1132780954949680847F0B587B00446102004907D
S11327904FF6FF770020ADF81400904D9048806804
S11327A0016901F19C0205F140061388BB421ABF7E
S11327B05B055B0D40F22313B3825288BA421ABF01
S11327C05205520D40F22132F28291F8991001F033
S11327D00F020F2A02D10120B07424E00022B27447
S11327E00A071BD5052232740069B0F89A00020A60
S11327F08DF80B20420902F007028DF809208208A7
S113280000F003008DF80C0002F00702080900F044
S113281007008DF80A208DF8080006E001F0070093
S11328200528307401DB04203074012001902B460C
S113283005F158000090012204A9E0B200F01AF951
S113284096F91000052806D10420307402A9E0B2DC
S113285000F0EBF807E00FF2941100EB8000411850
S1132860E0B200F0E2F8B07C28B1012070740121DC
S1132870E0B200F039FA4FF0FF320021E0B200F08C
S1132880DAF8002706E04FF0FF330021E0B200F051
S1132890DCF87F1CFFB204983A468242F3D300204E
S11328A03070082070603246F38A0821E0B200F0EC
S11328B078F90821E0B200F012FA00203072082002
S11328C0F06005F14802B38A0921E0B200F01EF974
S11328D007B0F0BD10B504463F4841606068A26887
S11328E0022190476068FFF74EFF002010BD10B52D
S11328F004466068C0B200F07CF96068A268BDE874
S11329001040002110472DE9F043DFF8D08083B058
S1132910044689461546002608F14C0711E00820B4
S1132920386008364FF47A700190CDF8009008F1C1
S1132930480260683B890921C0B200F000F9386898
S11329408144AE4205D2A81B0928E8D238602E463D
S1132950E8E70020BDE8FE83224951F8200000F09A
S11329603FBB70B504461F481F4E50F82450B07842
S113297060B3286A717801291FD144F20801084222
S113298009D010F40C4F06D10121284600F07FFB3A
S1132990002070701AE03078401E40B2002848BF12
S11329A00420307096F900100FF2400001EB810111
S11329B00918204600F039F808E010F44C4F05D00F
S11329C0204600F096F92046FFF7DDFE2846BDE8D4
S11329D0704000F005BB0000F8E1FF1F60E0FF1F3E
S11329E000E0FF1F78050000B0E0FF1F03070707A2
S11329F00303070703030307070103050303010395
S1132A000705050003000000012100F01F029140AA
S1132A10DFF8F82205E0012100F01F029140DFF801
S1132A20F022400942F820107047DFF8E82252F8FB
S1132A30200000F0CDB980B51146DFF8D82252F855
S1132A40200000F0F3FA002002BD10B514461A4627
S1132A50DFF8C03253F8200021B92146BDE8104008
S1132A6000F0CABA012904D12146BDE8104000F0A3
S1132A70CCBA10BD2DE9F84307460C46A548089981
S1132A8050F8278015461E46B1E80C10DFF88892EE
S1132A900C2010FB0790A0E80C10A048016841F03E
S1132AA0100101604046099900F05EF9404600F0CB
S1132AB03FF9404600F06DF92168404600F04AFABB
S1132AC00021404600F0C0FA002106F11000FDF795
S1132AD083FE002106F12800FDF77EFE904838565B
S1132AE0FFF792FF8F483856FFF78EFF8E4838560F
S1132AF0FFF78AFF15B1404600F053FA002030601A
S1132B00706009EB87008661BDE8F18330B5814CC4
S1132B10814D54F8204005EB800085B080698160C8
S1132B205068039010788DF8080001AA08200190DD
S1132B3000200090204600F06CF905B030BD2DE96E
S1132B40F0438846744901EB800185B08D69714971
S1132B5051F8209050680390414610788DF8080091
S1132B6001AA0C2001900C980090484600F051F9FD
S1132B70040012D14146484600F004FA0D9F39463C
S1132B8005F11000FDF740FE0646032EF7D041463E
S1132B90484600F0FEF906B10524204605B0BDE81C
S1132BA0F08370B50C465B4951F820605A4901EB3B
S1132BB0800084B0806944601D46506802902146BC
S1132BC010788DF8040000AA0F200090304600F021
S1132BD05BF928B900F006F810B9042000F002F8F7
S1132BE004B070BD00902B4600AA2146304600F088
S1132BF04BB9F8B504464848484E00EB8405AF6924
S1132C003068C0061ED507F11000FDF73BFE07F142
S1132C102800FDF737FE454800F016F8404800F05C
S1132C2013F8404800F010F83F4800F00DF8394818
S1132C3050F8240000F0BFF80020A861306820F0AC
S1132C40100030600020F2BD2056E4E62DE9F0418A
S1132C508046304850F828502F4800EB880186B051
S1132C608E690C2111FB0807286BA96A08400090A3
S1132C70009870B37068009921FA00F2D0071CD54F
S1132C8006F12800FDF7F2FD7168284600F056F9B8
S1132C90716801AA284600F02CF968B9002406E0FE
S1132CA001A820187A68407A41469047641C9DF830
S1132CB00C00E4B28442F3D3A868B068009921FA06
S1132CC000F2D00744BF06F11000FDF7CFFD0098D5
S1132CD02863284600F084F906B0BDE8F0810D4A67
S1132CE052F8200000F04EB90A4A52F8200000F0D1
S1132CF0ABB9084951F8200000F004BA064A0C2385
S1132D0003FB0020416070470000000000E100E088
S1132D1080E100E07805000008E2FF1F3C800440E9
S1132D20820500008405000086050000800500007F
S1132D300168C1F3005141B10168490049080160CB
S1132D400168C1F300510029FAD170470168C90F25
S1132D5009D14201DFF88033012199500168C1F3A0
S1132D6000510029FAD07047001D4001DFF86C23A0
S1132D70115070470168C1F3005149B94201DFF8AD
S1132D806033012199500168C1F340610029FAD1EF
S1132D90704710B50446FFF7EDFF204600F014F924
S1132DA0DFF8400320616061A061204600F000F973
S1132DB00020A06210BD10B50446FFF7DBFF002021
S1132DC0206560602046FFF7C1FF0020606010BDF1
S1132DD038B500F0BCF860684FF6F87108406060E0
S1132DE06068AA782978120401F0070102F4E0224D
S1132DF011436A78D20402F460121143EA7841EA7A
S1132E0002612A79920502F440021143084360608A
S1132E1099E0F0B500EB011005998030C9B10024A8
S1132E208460C46007E0C4F10707C668FF00BD40C2
S1132E303543C560641C9568AC420AD2655C042CB9
S1132E40F1D2C4F103078668FF00BD4035438560B5
S1132E50F0E74168DFF8904200F036F8016800F0CE
S1132E602AF8936841EA0341016011680F2909D0E7
S1132E701C2905D1016841F4801101600C21116005
S1132E8000F02BF80020F0BD10B500EB011050F855
S1132E90801F00F010F8946841EA04410160DFF8F3
S1132EA04842416800F010F811680F2901D000F081
S1132EB014F8002010BD21F4C0010160016821F460
S1132EC070210160016870476FF39C41416004EA1E
S1132ED083434168194341607047016821F0706180
S1132EE0016001681268120602F070621143016009
S1132EF0704730B500EB011050F8801F1160890253
S1132F00416858BF890C516000218368CC0023FAC2
S1132F1004F5531A491C04291D73F6D30421C3680C
S1132F200C1FE40023FA04F5531A491C08291D75E3
S1132F30F5D30068000C1072002030BD00EB0110C6
S1132F40D0F8800070472046BDE8324030E00446A7
S1132F500D4639E038B5FFF7FAFF2068C00905F0DF
S1132F607F0141EAC01020600022002007E004EB4A
S1132F700011401C41F8802F4A608A60CA60A84250
S1132F80F5D3E0E7826A012303FA01F11143816278
S1132F907047826A012303FA01F122EA0101816286
S1132FA07047001D4001514AFFE70121115070474D
S1132FB041014F4B00225A504E4B5A500168C1F305
S1132FC000610029FAD1704741014A4B01225A504D
S1132FD0474B5A500168C1F300610029FAD0704789
S1132FE0016A11F0070F1CBF072101627047A0643A
S1132FF02046BDE83240DBE770B500F013F83A48EC
S113300004EB850100EA864006E070B500F00AF89A
S1133010B00304EB8501800BC1F880082046BDE8AD
S11330207040C5E704460D461646CDE738B500F0B6
S113303008F800F002F82061DAE72B4800EA85403E
S1133040704704460D46BFE770B504460D46660159
S1133050032D02D1FFF7B8FF04E0042D02D11E496D
S1133060012088512046FFF7AFFF1DB922490020F7
S113307088510BE0201D4001012D02D101211F4A7E
S113308003E0022D02D101211D4A1150C6E738B5D3
S11330900D46032D044602D1FFF78AFF05E0042DF7
S11330A003D120684000400820602046FFF78CFFD1
S11330B025B96101104A012050500BE0201D400148
S11330C0012D02D100210D4A03E0022D02D100217D
S11330D00B4A11508CE700007C000042340000428F
S11330E064000042FFFF03000000FC1F38000042A0
S11330F070000042780000425C0000420C00004274
S113310030000042016841F0007101600168C1F3C0
S113311040610029FAD1704780B5074948680978A9
S113312021B1064931B1C046C04601BD044909B1C7
S1133130FFF784F901BD00BF00E2FF1F000000009B
S11331403D240000002038B50FF2901151F82040C2
S11331505D4901EB0013217A09070AD5217A41F070
S113316008012172E17841F00201E1709968884711
S113317031BDE178E27801F012052A43E27001F0F2
S11331805002102A10D04A0614D54807A0780CD54E
S113319040F01000A07000208DF8000000A819680D
S11331A088479DF80000207131BD00F0EF00A07049
S11331B0207931BDA278C2F300121AB1C807EAD54A
S11331C0A078F2E72279014610465A68904731BD4B
S11331D0F8B504460FF204103B4F50F824500E4645
S11331E096E80F0007EB041787E80F0037480168DB
S11331F041F0400101600020A87001214020A87125
S11332000220E8702046FDF761FE2878317B4008F3
S11332104941297000206871A87118202872FF2084
S1133220A872E87200206870A87840F08000A87046
S1133230A87840F04000A870F1BD24480168490610
S113324015D5234A4FF080711160002221498A70FC
S11332500A7802F001020A7000228A7108220A72B6
S113326000228A72CA72016821F04001016070472D
S113327030B50FF2680353F820004FF47A73B1FBB2
S1133280F3F1154BB3FBF1F1002300E023465C1C82
S113329001FB04F59542F9D32BB90A2462438A420F
S11332A004D3012302E0202B28BF1F23817901F0DE
S11332B0A00103F00F021143817130BD024A02EBF9
S11332C0001041607047000028E2FF1F3480044072
S11332D080E100E00060064040420F0000600640CC
S11332E040682F494018007C70472E494A6842B113
S11332F00A6813780370501C08604868401E4860D0
S1133300704700210170704725494969084738B55D
S113331004465A2C08460BD1214D4219012111743F
S11333202149FFF7CBFF6969BDE834405A200847BB
S113333031BD10B504461A49FFF74AFFFDF701FFF6
S113334001462046BDE810403222FFF791BF10B578
S113335004461348416115498968096991F8811047
S1133360FF2918BF01736068A26802219047606852
S1133370FFF7DFFF002010BD10B504466068FFF7BB
S11333805CFF6068A268BDE8104000211047054852
S11333900160426041680029FCD1002070470000B0
S11333A0C4E0FF1F4CE2FF1F0933000000E0FF1FD1
S11333B070B50D0082B00446164601D1002076BDDA
S11333C000AA00F071F830B9009B9B685B68324634
S11333D029462046984776BD70B50D0082B0044654
S11333E0164601D1002076BD00F07FF800B14CE014
S11333F000F047F868B9009B9B689B6832462946F1
S1133400204698474E49002806BF009A9268002239
S11334100A6076BD38B504460D4600AA00F044F8AB
S1133420A0B900988068406908B9662032BD294671
S1133430204600F05AF810B142F2D87032BD009A1A
S11334409268526929462046904732BD002DFCD12E
S1133450002032BD70B50D0082B00446164601D17D
S1133460002076BD00F041F800B10EE000F009F84C
S113347030B9009B9B68DB68324629462046984752
S113348076BD00AA294620460EE042F2D87076BDE9
S113349010B52B4C2168002029B109690A0002D01B
S11334A088470021216010BD70B5264C646800294E
S11334B018BF002A42F2D87314D000E00C348CB147
S11334C02568002D04BF6668002E01D1A6684EB1A0
S11334D0A84224BF65688542F0D30818401E85427F
S11334E028BF00231460184670BD30B5154A926891
S11334F01269536BA3B10918491E002302EBC304DC
S1133500603465682468002C08BF002D05D085420E
S113351028BFA14201D3012030BD5B1C022BEDDB8F
S1133520002030BD10B50748446804E0006801007D
S113353018BF80470C34A0680028F7D110BD0000E4
S113354054E2FF1F00E0FF1F10B596488068006931
S113355000F1700430224AF2C0312046FDF7CEFF5C
S113356020689149884204D0FF2230212046FEF78A
S1133570CBFCFDF721FE002010BD38B5894DA868AD
S113358004694B20E07004F110020120A0700421B2
S113359005206070012020705020E0710120A0718E
S11335A002206071002020715420E0720120A0727A
S11335B000206072207201202063606340F67F5017
S11335C0A06300F05EF804F11402012100F059F840
S11335D004F11802002100F054F804F11C02022145
S11335E000F04FF804F12002032100F04AF804F13E
S11335F04C02052100F045F804F15002062100F0C8
S113360040F804F15402072100F03BF8A069674A2E
S1133610404252424FF0FF310240891A644A6166C7
S11336201040206600216348A0666348E06668692C
S1133630E16007E094F88030134202D0E3681A4353
S1133640E260491C182202FB01021268002AF1D12F
S11336505A480168A1644168616481682164C06852
S1133660E063686850F80C1F616241680068081ADA
S1133670401CA0622046FDF70BF80120A065002045
S113368032BD05F12000FEF75DBC0000F8B514461C
S1133690444A4B4F91680426401E096917281D4669
S11336A04ED8DFE800F00C121416181A20224D240C
S11336B0282F261C1E323540434547494D4B05B142
S11336C02E6004B121600020F2BD0C31F7E7103107
S11336D0F5E71431F3E71831F1E72031EFE724314E
S11336E0EDE72831EBE73831E9E72C31E7E7303112
S11336F0E5E73431E3E7D0694169496988473860CF
S11337003946DCE710266031D9E72E480068F6E731
S113371000A902F12000FEF7D5F99DF80000002869
S1133720EDD00120EBE710263C31C8E74C31C6E769
S11337305031C4E75431C2E75831C0E70831BEE71D
S113374042F63C00F2BD174A92681369401E0728EE
S113375042F63E0220D909380CD0401E01281BD95C
S1133760801E0DD0401E032816D908380ED0801EA6
S113377012D014E0002918BF012909D11963704738
S1133780002918BF012903D159637047032901D3C4
S1133790104670479965704742F63D00704742F6FF
S11337A03C00704700E0FF1F6B636667F03F00005A
S11337B00000000000E0FF1FBFE5FF1F548004402D
S11337C01CE3FF1F24800440012100F01F029140EC
S11337D05D4A04E0012100F01F0291405B4A400968
S11337E042F8201070470021C170817001700421DB
S11337F041700021817241747047F8B5544E3360B2
S1133800130191FBF3F633010025B1FBF3F30446F6
S113381093424FF0FF3038BF761E00D310D00127FB
S11338204B0007EB461CB3FBFCF39A4234BF9B1AD4
S1133830D31A984224BF18463D467F1C212FEFDB44
S1133840642192FBF1F101EB4101884235D24149F7
S1133850414F8C4203D041498C4207D00DE01F20D8
S1133860FFF7B2FF386840F4806005E02120FFF7DD
S1133870ABFF386840F400603860E07800F0F30093
S1133880E070310A0020A07001F01F01207800F0E0
S1133890E000084320706670A07A00F0E00028433E
S11338A0A072C0206074E07840F02000E070E078FE
S11338B040F00C00E0700020F2BD0120F2BD02795E
S11338C01206FCD5C171704725480178890600D5D8
S11338D00AE07047234801788A0701D5C078704709
S11338E0890600D500E07047C0781949096808477F
S11338F058B51849184E8842044603D017498842DF
S113390007D00DE01F20FFF765FF306840F48060AA
S113391005E02120FFF75EFF306840F4006030606E
S11339202046FFF760FF0B48844203D00B488442D3
S113393004D051BD306820F4806002E0306820F487
S11339400060306051BD000000E100E080E100E073
S113395020E3FF1F00A006403480044000B006406E
S113396004A0064004B0064038B5044600A96068C7
S1133970FDF747F9E8B96068284DFDF7EDFB01460E
S113398060682B68009A012814BF25482548FFF772
S113399034FF58B96068A2680221904729685A2008
S11339A088472968A6208847012032BD6068FDF752
S11339B00FF9002032BD10B5044618480160606854
S11339C0A268012190476068FDF702F9002010BD4C
S11339D010B504466068012814BF11481148FFF768
S11339E087FF6068FDF70BF96068A268BDE81040C6
S11339F00021104770B504460D46164602E00978CA
S1133A00FFF75DFF3046461E38B1294660684D1CFD
S1133A10012814BF02480348F1E770BD24E3FF1FE7
S1133A2000A0064000B00640A649D1F88820531CE7
S1133A305218C1F8883082F82000D1F8880000F0CC
S1133A403F00C1F88800704700207047B8E02DE9B6
S1133A50FC410C00154614BF002D0420984628D0C4
S1133A60984F002007F190062860707000F0A8F8C5
S1133A7018B11EE0A22000F075F820213846FEF7A8
S1133A803BF84246394600A800F0E7F810B100219F
S1133A9029600EE0394600A800F030F9BDF80410A2
S1133AA08142E7D1012030702760BDF80200286010
S1133AB00020BDE8F6812DE9F0410C0082B01546E6
S1133AC01E4635D0212D33D200F07AF800283FD19C
S1133AD0DFF8F08198F8910010B1002088F8910087
S1133AE008F160075A203870A42078700EB1A52020
S1133AF078707D802DB12A46214608F16600FDF7D5
S1133B00EDFC08F16601384600F0F8F8B880A91D0C
S1133B10384600F064F8D8B900A800F0DDF8B8B968
S1133B209DF80100A12812D0A22806D0A32801D014
S1133B3004200DE042F212700AE07888811D3846B4
S1133B4000F04DF820B99DF80100A228E4D000202F
S1133B50BDE8F6815C480121817000210170704745
S1133B602020704780B55A218DF800108DF801008F
S1133B700120544981F89100022100A800F02FF897
S1133B8002BD10B50446504801784278807811404F
S1133B90014282B011D10FF294100088ADF80000F8
S1133BA0022223695B6800A92046984723690FF223
S1133BB080115B6808222046984742F2137016BDB4
S1133BC04148017819B100210170A12004E08178F5
S1133BD019B100218170A320C4E7002070473B4A3B
S1133BE0D3690A46014618461B695B6818472DE9E4
S1133BF0F14F8B461446FCF71EFF06464FF47A70CD
S1133C0089466043FCF727FF0025DFF8B8A0044687
S1133C10A8460AF188070EE07868396888420CD013
S1133C205044009990F8200068546D1C7868401C3A
S1133C3000F03F0078605D450CD0002CECD0FCF720
S1133C40FAFE801B61EB0901414501D8A042E3D390
S1133C50052000E00020BDE8F28F70B582B0054673
S1133C600C46164600F038F858BB6878A62804D1EC
S1133C701648C069FFF785FF76BDA42106B1A521CA
S1133C80884201D0012076BD00F022F8BDF8001072
S1133C906980B0B908462128A8BF2020688000F0B8
S1133CA017F8BDF80010A98058B9698849B12046B1
S1133CB0FDF750FC69880A2000FB01F22046FFF75B
S1133CC096FF76BD28E3FF1FB8E3FF1F00E0FF1F48
S1133CD01422022100A88AE710B50446002201211B
S1133CE02046FFF784FF40B920785A28F6D1601C9B
S1133CF0BDE810400A22012179E710BD30B583B038
S1133D0004460D4600A800F017F80422214600A836
S1133D1000F015F86288294600A800F010F801A9FF
S1133D2000A800F02FF8BDF804003EBD5AA700001B
S1133D30000201500000AAEA0021018070477FB50B
S1133D40044600208DF800000D4620880190164698
S1133D5041F2210002900020ADF80C008DF80E0015
S1133D606EB1FCF79AFD00A90020FCF7B7FD3246BE
S1133D7029460020FCF7CBFD0190FCF794FD019847
S1133D8020807FBD008808800020FCF7B1BD0000C2
S1133D9005484CF22051C1814DF62811C1814FF4E0
S1133DA0E9710180704700BF002005404EF688513C
S1133DB0CEF20001086840F470000860BFF34F8F32
S1133DC0BFF36F8F4FF00070E1EE100A70470000F0
S1133DD000F00BF8002801D000F00AF80020C046DB
S1133DE0C046FDF72AF9FDF769F901207047000084
S1133DF010B5074979441831064C7C44163404E064
S1133E000A68081D511888470146A142F8D110BD1F
S1133E10D0010000DC010000A0050000DCE0FF1F71
S1133E204806000040E0FF1F00000000D00500002D
S1133E30000000000000000000000000000000007E
S1133E40000000000000000000000000000000006E
S1133E500000000000000000E5150000F31500005C
S1133E60680400004CE1FF1F00000000B8E1FF1FE0
S1133E70D8E1FF1F00000000000000000000000067
S1133E80000000000000000000000000000000002E
S1133E90000000000000000000000000000000001E
S1133EA0000000000000000000000000000000000E
S1133EB000000000000000000000000000000000FE
S1133EC000000000000000000000000000000000EE
S1133ED0000000005D27000087270000EB3200008F
S1133EE00F33000033330000100000000000000016
S1133EF00000000000000000FFFF03004405000074
S1133F0000C0FF1FFF3F0020B80500000000004074
S1133F10FFFF0740F004000000F00F40FFFF0F40D8
S1133F20F0040000000000E0FFFF0FE0F0040000D8
S1133F30000000000000000000000000000040013C
S1133F4030B504E012F8014B00F8014B491ED1B121
S1133F50C507F7D40129F5D0850701D4042904D273
S1133F6032F8024B20F8024B891E8B08EFD000EB8D
S1133F70830403E052F8045B40F8045BA042F9D3E5
S1133F80A1EB8301E3E730BD80B513460246184632
S1133F9000E080B5FFF7D4FF002002BD10B5144641
S1133FA00A462146BDE810400123FEF7A1B906E008
S1133FB00020FEF7D1BC0020FEF7D3BC00BF0020D8
S1133FC0FEF744BE00E000BF0120FEF73FBEFBE762
S1133FD0FAE7C046C046FFF7E9FEFFF7F9FE000026
S1133FE0CFCBFFFF9802000028E1FF1F0000000074
S9030411E7
