S01A0000666C6173686C6F616465725F6C6F616465722E73726563AF
S11300000000032011040000FF6D0000FF6D0000DC
S1130010FF6D0000FF6D0000FF6D0000FCFD02207D
S1130020000000000000000000000000FF6D000060
S1130030FF6D000000000000FF6D0000FF6D000078
S1130040CD6F0000CD6F0000CD6F0000CD6F0000BC
S1130050CD6F0000CD6F0000CD6F0000CD6F0000AC
S1130060CD6F0000CD6F0000CD6F0000CD6F00009C
S1130070CD6F0000CD6F0000CD6F0000CD6F00008C
S11303F0CD6F0000CD6F0000CD6F0000FFFFFFFF49
S1130400FFFFFFFFFFFFFFFFFFFFFFFFFEFFFFFFF9
S113041072B60E480E49886000220023002400258D
S113042000260027B846B946BA46BB46BC4609482A
S1130430854609488047094880470948804762B68D
S113044000200021074A9047FEE70000000000005A
S113045000ED00E0000003201D6F0000016E0000AD
S11304603B6E0000B104000072B60D490020086024
S1130470BFF36F8FBFF34F8F704780B546F6D0023E
S11304800FF23401074806F08FFCFFF7EDFF064832
S113049080F3088880F309880448BDE802400047D7
S11304A008ED00E00000FF1F2093FF1F1104FF1F51
S11304B080B5FFF7E2FFFEE72093FF1F1104FF1F43
S11304C01B0EFF1F8513FF1F8713FF1F8913FF1FB9
S11304D08B13FF1F0405FF1F000000000000000035
S11304E0000000001B0EFF1F1B0EFF1F000000007A
S11304F01B0EFF1FB109FF1FAF68FF1FAF68FF1F6F
S1130500AF68FF1FAF68FF1FAF68FF1FAF68FF1F13
S1130510AF68FF1FAF68FF1FAF68FF1FAF68FF1F03
S1130520AF68FF1FAF68FF1FAF68FF1FAF68FF1FF3
S1130530AF68FF1FAF68FF1FAF68FF1FAF68FF1FE3
S1130540AF68FF1FAF68FF1FAF68FF1FAF68FF1FD3
S1130550AF68FF1FAF68FF1F5144FF1F5544FF1FC3
S11305604544FF1F4944FF1FAF68FF1FAF68FF1FCB
S1130570AF68FF1FDF56FF1FAF68FF1FEB56FF1F5B
S1130580AF68FF1F0757FF1FAF68FF1F1357FF1FF9
S1130590AF68FF1FAF68FF1FAF68FF1FAF68FF1F83
S11305A0AF68FF1FAF68FF1FAF68FF1FAF68FF1F73
S11305B0AF68FF1FAF68FF1FAF68FF1FAF68FF1F63
S11305C0AF68FF1FAF68FF1FAF68FF1FA73EFF1F85
S11305D0AF68FF1FAF68FF1FAF68FF1FAF68FF1F43
S11305E0AF68FF1FAF68FF1FAF68FF1FAF68FF1F33
S11305F0AF68FF1F110BFF1FAF68FF1F4D44FF1FA4
S11306001F57FF1FAF68FF1FAF68FF1FAF68FF1FB3
S1130610AF68FF1FAF68FF1FAF68FF1FAF68FF1F02
S1130620AF68FF1FAF68FF1FAF68FF1FAF68FF1FF2
S1130630AF68FF1FAF68FF1FAF68FF1FAF68FF1FE2
S1130640AF68FF1FAF68FF1FAF68FF1FAF68FF1FD2
S1130650AF68FF1FAF68FF1FAF68FF1FAF68FF1FC2
S1130660AF68FF1FAF68FF1FAF68FF1FB53EFF1FD6
S1130670AF68FF1FAF68FF1FAF68FF1FAF68FF1FA2
S1130680AF68FF1FAF68FF1FAF68FF1FAF68FF1F92
S1130690AF68FF1FAF68FF1FAF68FF1FAF68FF1F82
S11306A0AF68FF1FAF68FF1FAF68FF1FAF68FF1F72
S11308B0AF68FF1FFFFFFFFFFFFFFFFFFFFFFFFF0B
S11308C0FFFFFFFFFEFFFFFF72B60E480E49886070
S11308D0002200230024002500260027B846B9463C
S11308E0BA46BB46BC46094885460948804709487C
S11308F080470948804762B600200021074A904794
S1130900FEE700000000FF1F00ED00E02093FF1F42
S1130910715CFF1FE911FF1F2312FF1F990DFF1FB9
S1130920030201460111FF1FAD24FF1FE143FF1F16
S1130930B923FF1FED22FF1F9519FF1F9520FF1FED
S1130940DD24FF1F3124FF1F5923FF1FB921FF1F7F
S11309504311FF1FE520FF1F3521FF1FDD1FFF1F70
S11309600000000000000000000000000000000083
S1130970436F707972696768742028632920323064
S113098031332D3230313420467265657363616CC6
S1130990652053656D69636F6E647563746F722C43
S11309A020496E632E20416C6C20726967687473F1
S11309B02072657365727665642E0000BF0BFF1F9D
S11309C00105014BB804FF1FD068FF1F6804FF1F17
S11309D0AC04FF1FC714FF1F00000000D914FF1F41
S11309E0000000006F15FF1FB716FF1F5D15FF1FE6
S11309F0E715FF1F7F17FF1F000000002118FF1FCE
S1130A00000000001315FF1F00000000ED14FF1F7D
S1130A10E715FF1F9317FF1F00000000FD17FF1FBE
S1130A20000000007F14FF1F000000004715FF1F97
S1130A300000000000000000000000002F18FF1F4D
S1130A40000000004318FF1F000000006518FF1F8E
S1130A50B716FF1F000000000000000000000000A7
S1130A608968FF1F9368FF1F9D68FF1F0000000037
S1130A7000000000892AFF1FD72AFF1F0B2BFF1F2E
S1130A8000000000000000002B2BFF1F2F2FFF1F72
S1130A90832FFF1F000000004F32FF1F5132FF1F42
S1130AA0E336FF1FBD35FF1F7136FF1F5338FF1F8D
S1130AB09538FF1FBB38FF1FCF36FF1F5735FF1F69
S1130AC0E337FF1F6B35FF1F0B38FF1FDF38FF1F96
S1130AD01539FF1F6139FF1F0000000000000000EE
S1130AE0000008000000100000002000000040008A
S1130AF00000800000000001000000020400024029
S1130B00D119FF1FFD19FF1F391AFF1F0B1BFF1FF0
S1130B1000000000E31BFF1FE545FF1F5346FF1FB6
S1130B207D46FF1F00000000000000009346FF1FE9
S1130B30054CFF1F2F4CFF1F974CFF1FD74DFF1F66
S1130B40214EFF1FCB4FFF1FBF4CFF1F814DFF1FC7
S1130B501F4FFF1FB550FF1FC950FF1F00000000AB
S1130B602550FF1F3D50FF1F00000000B74EFF1F20
S1130B70FD50FF1F3151FF1F2147FF1F7B51FF1FF6
S1130B802153FF1FAD51FF1FD551FF1F5152FF1FAE
S1130B908D52FF1F1152FF1F8522FF1F8922FF1F45
S1130BA09B22FF1FD922FF1F00000000000000004D
S1130BB00100000004000000D109FF1F9C07FF1F73
S1130BC0AC07FF1FB407FF1F020000000000000075
S1130BD0190AFF1F6006FF1F7006FF1FB407FF1FDF
S1130BE00400000002000000610AFF1FBC05FF1F93
S1130BF0CC05FF1FB407FF1F100000000000000019
S1130C0000000000E407FF1F00000000F407FF1FBE
S1130C10100000000200000000000000E407FF1FB5
S1130C2000000000F407FF1F0000000000000000A7
S1130C3000000000000000000000000000000000B0
S1130C404553FF1F7753FF1F7154FF1F2755FF1F85
S1130C50EC6EFF1F2558FF1F6D58FF1F8758FF1F9D
S1130C600000000000000000CB58FF1F4559FF1F83
S1130C704B59FF1FB359FF1F515AFF1F4959FF1FFB
S1130C805D5AFF1F2559FF1F043A2622446AFF1F9D
S1130C90806AFF1FBC6AFF1FE46AFF1FF75EFF1F25
S1130CA01F60FF1FD760FF1F8B62FF1F0D61FF1FB7
S1130CB03B61FF1FBD61FF1F7362FF1F8362FF1F44
S1130CC08762FF1F0000000005E00020704700203D
S1130CD07047002070474FF6FF70704738B50446E0
S1130CE03D4D0020C5E90000C5E90200C5E9040046
S1130CF0A8612862394800F09EF8E8612046BDE802
S1130D0034400FF2590100F06FB900F080B970B5AA
S1130D10314D0C46A969072904BF296A88421AD1B2
S1130D2000F09FF8C0EB0016D5E90001D5E90223D5
S1130D301018B6FBF0F00A2148434FF49661B0FB5B
S1130D40F1F0401D0A21B0FBF1F04FF496614843E5
S1130D502060002070BD012070BD00002DE9F84323
S1130D60064600F058F81C4F0446D7E90459884653
S1130D70B8690021421C651B68EB0909F8694945FB
S1130D8002D82CBFA8420122012ABA6106D0042A43
S1130D9008D0052A0ED0072A0FD018E0C7E900486A
S1130DA03E6214E0D7E90001201A68EB0101C7E9AB
S1130DB000010CE0C7E9024809E0D7E90201201A62
S1130DC068EB0101C7E90201304600F020F9C7E9E8
S1130DD00448BDE8F1830000786BFF1F80380100F0
S1130DE02448002101606FF07F4223494A600022B9
S1130DF08A6007220A602149214A0968C900B1FBB7
S1130E00F2F101B90121416070471B48016821F0EA
S1130E1006010160704717490A681A4800680B68A0
S1130E20C0430002000A9A42F6D1002110EB02608E
S1130E3051EB122170470F4949684843C008704775
S1130E4038B50446FFF7E7FF0A4A5268624300EBED
S1130E50D2040025FFF7DFFFA94201D8A042F9D34D
S1130E6031BD06480068704702480168491C0160AA
S1130E7070470000E06EFF1F10E000E08069FF1F74
S1130E8040420F0018E000E0042820D16848694A75
S1130E9019B1022911D006D370474168114041604D
S1130EA00168114012E04168114041F480714160D1
S1130EB06148016821F0007108E04168114041F483
S1130EC0407141600168114041F440710160704714
S1130ED000B1704710B55948594B564C594A11B195
S1130EE002290AD010BD1168214011600021196047
S1130EF051682140516000210CE01168214041F407
S1130F0000711160012119605168214041F40071A0
S1130F1051600121016010BD022825D1454A4A488B
S1130F2011B102290CD07047016811400160416879
S1130F3011404160816811408160C168114012E034
S1130F400168114041F4007101604168114041F4AD
S1130F50007141608168114041F400718160C16891
S1130F60114041F40071C160704780B500F084F80D
S1130F703648016841F47851016001BD3448416B41
S1130F8021F478514163016821F4403101607047D4
S1130F90012070472F48304900680968C0F3036096
S1130FA0401CB1FBF0F0704730B1022807D003D3E6
S1130FB0042804D003D303E0274800687047E9E716
S1130FC0002070470020704710B5244C2068C0F3FF
S1130FD0006040B122480168080004D0042088471A
S1130FE04FF0FF30E06310BD04280FD11D4A1E4BA3
S1130FF0102010704FF000401C4A1060174802681F
S11310001A4042F420220260154801607047042807
S11310100BD11749144A4FF0004008600F4801688B
S11310201140016000200E49086070470000000074
S113103060D00440FFF8FFFE14F10F40940498427E
S11310401404984220C004402CC00440388004405A
S113105004800440448004408069FF1F64D004403D
S1131060046EFF1F3FE400E0FFFFF0FE04E100E038
S113107084E100E0704770470848817804290BD167
S1131080017801F09F010170FF218278012A04BFD9
S1131090034A1278491EF8D17047000001E0074066
S11310A002D00740022811D80FF22C0280560129E1
S11310B004D100F01F029140054A04E0012100F030
S11310C01F029140034A400942F820107047000073
S11310D000E100E080E100E01A1B4100022811D881
S11310E00FF22C028056012904D100F01F02914016
S11310F0054A04E0012100F01F029140034A40091F
S113110042F820107047000000E100E080E100E0B8
S113111018194A0038B504460D46002000F0DAF8E4
S11311206648674A0560446000211160016881F3E4
S1131130088881F3098840688047BDE83240002070
S113114000F0C8B85F498968096900281EBF10F11A
S1131150010F5D4A904206D00A69904203D34B695D
S11311609A18904208D34A6A904207D3896A891828
S113117088428041C00F70470120704700207047AB
S11311802DE9F0474F4F514CB868006900F17009E0
S113119025460AE099F81010014205D06869EA680A
S11311A08169526828469047183528680028F1D18B
S11311B04FF47A70FFF73FFE0546FFF703FF002662
S11311C050BBFFF7BFFF38B3B868006990F88E00D2
S11311D0C00703D400210846FFF79CFFB9F81200AA
S11311E04FF6FF71884208BF41F2883005FB00F6D4
S11311F0FFF711FE80468A4676B1FFF70CFEB0EB8E
S1131200080061EB0A010027B94201D8B04203D3B8
S113121000210846FFF77EFF254600E018352868C0
S11312200028E9D0E9680968284688470028F5D0ED
S1131230002DE1D006E0A54203D0E168896820468C
S11312408847183420680028F5D12846BDE8F0877F
S113125038B500F088F8FFF788FE1A4CA0680068DB
S11312608047002000F098F8FFF7BAFD04F1200051
S113127000F0A2F9206800688047A06840688047B1
S1131280FFF77EFFE061016919B109680A0018BF20
S11312908847E069416919B109680A0018BF88479D
S11312A0E06800688047E569E06840688047E8686E
S11312B0C1680800F8D028468847F5E79C6BFF1FF3
S11312C008ED00E0D068FF1F1104FF1FF806FF1FA0
S11312D07047FEE770B50446022C04D0002000F0ED
S11312E0D5F9012C0ED00026114D06E04019C16835
S11312F089680A0018BF8847761C18207043415932
S11313000029F3D174B900F034F8FFF77EFD00F042
S1131310E4F9084900200860012000F03DF8FFF7D7
S11313202DFE62B6BFF36F8FBFF34F8F70BD00BF4A
S1131330F806FF1F08ED00E04FF47A714843FFF709
S11313407FBD0160704772B60168491C016062B6D6
S113135001680029FCD10120704772B60168491E5A
S1131360016062B6704772B60A490020086062B62E
S1131370704772B607480168491C01607047054808
S11313800168022901D20021EAE70168491E0160CF
S113139070470000006EFF1F2DE9F041744C754D3D
S11313A00100207864D1296C6160734989680969F6
S11313B001F170027149137CDB060BD4127FD20752
S11313C008D52A6C120F4FF0A070521CB0FBF2F03B
S11313D0086054E001226A4E00E0521C694BB3FBE2
S11313E0F2F3B342F9D2164617469446DFF898E171
S11313F000E0761CDFF88C81B8FBF6F8F045F8D2F3
S1131400DFF88081B8FBF7F8F04528BF7F1CF7D2DE
S113141001E00CF1010CDFF86CE1DFF87081BEFB38
S1131420FCFEC645F5D2012A05D1092E3CBF092F81
S1131430BCF1090F23D2761E7F1E3E433606521E90
S113144006F0706646EA0272ACF10106360406F450
S1131450702632432A640B60042100F012F8042041
S11314602070286820F4403040F48030286006E082
S1131470012904D1002100F004F860682864BDE863
S1131480F081884200D1704710B504294048414A90
S113149038D141490B6843F400730B603F49404B1A
S11314A01C680C401C605C6821405960002101727A
S11314B08021117024214170A2210170C17801F0B2
S11314C01F01C170012101710021417181798907D6
S11314D0FCD58179C906FCD400F068F84E2141712D
S11314E000F064F881794906FCD5017801F03F01E8
S11314F00170817901F00C010C29FAD1817C002959
S1131500FCD110BD99BB0023017801F03F0141F0EB
S113151080010170012423490B70234B1C700024AB
S11315200C77847904F00C04082CFAD1047804F0C4
S1131530C70444F01804047000241C7083799B06CB
S1131540FCD4037803F03F03037001230B7081790B
S1131550C906FCD581790C231942FBD11470817919
S11315608907FCD48021417004210170047110BDED
S1131570A46BFF1F04800440D068FF1F8069FF1F15
S11315800195BA0A000E270701879303013FAB01B7
S1131590004006400050064038800440FFF8FFFE3B
S11315A0489004400800C842B800C842817901F05C
S11315B00C010829FAD1704708B904207047204A61
S11315C020491268C2F3036231F81210090301D1F1
S11315D0642070470022026041604FF4807204214D
S11315E081604FF48051C160174991F900309A40ED
S11315F04261C9788161002102E008B90420704782
S113160001610020704708B9042070475B1E19422D
S113161008BF1A4201D0652070470368994221BF70
S11316204068C0185118884201D2662070470020D3
S113163070470649884201D06B20704700207047EC
S11316404C8004402406FF1F280002406B66656B33
S113165020B112B1082A03D000E021B10420704760
S113166009B10C29FAD20020704750F8041B61B16B
S113167050F8042BD30744BFA9F101039A1800239F
S1131680091F42F8043BFAD1EFE7704703490968A0
S113169051F47001014A1160704700BF04F0014029
S11316A080B518491848086018491948421A194859
S11316B088421CBF002A00F03DF817481749091A50
S11316C018BF00F073F816491648421A04D0BDE852
S11316D00840154800F02EB801BD14484FF0FF3102
S11316E0016041608160C160016141618161C161EA
S11316F00F48016041608160C160016141618161A5
S1131700C161704708ED00E00000FF1F9865FF1FEE
S11317104068FF1FD068FF1F786BFF1F9074FF1F86
S1131720D068FF1FD068FF1F2091FF1F80E100E0F9
S113173080E200E062B38B0708D0521E11F8013B2F
S113174000F8013B00F024808B07F6D1830740F0BA
S1131750208000BF103A07D330B4B1E83810103AF3
S1131760A0E83810F9D230BC530724BFB1E8081000
S1131770A0E8081044BF51F8043B40F8043BD207EA
S113178024BF31F8022B20F8022B44BF0B780370DE
S11317907047083A07D3B1E80810083A40F8043B08
S11317A040F804CBF7D25307E4E70000002200F02E
S11317B005B8000062F30F2262F31F42401810F0D4
S11317C0030308D0C91A1FD3DB0748BF00F8012D53
S11317D028BF20F8022D130030B4144615461039E2
S11317E028BF20E93C00FAD8490728BF20E90C00AB
S11317F048BF40F8042D890028BF20F8022D48BFB7
S113180000F8012D30BC7047C91818BF00F8012D2D
S1131810CB0728BF00F8012D70470000BFF34F8F9E
S11318200448054A016801F4E06111430160BFF313
S11318304F8FFEE70CED00E00400FA05EEE7EDE75C
S1131840ECE7EBE7DFF8F015C968C9680020086029
S113185070472DE9F041DFF8E055E86982B00024D3
S11318608DF801404669002E62D0E968C9680A68AB
S1131870012A4CD001F1080274680023091DA04715
S113188004001FBF42F21270844242F21370844279
S11318904ED1E868C168D1F80880B8F1000F47D08C
S11318A04E68377837B1122F04DA806800EBC7002E
S11318B0083800E00020086200281CBF00680028E7
S11318C01CD000A905F1200000F0C0FA040017D1D3
S11318D09DF8000048B14FF4E750791E20FA01F258
S11318E0D00758BF42F211740AD5EA68D268126A66
S11318F01268414630469047002406E042F21074D4
S11319003946204600F01FFA94B901200DE0086A18
S113191048B14168080003D00DF10100884704462E
S11319200CB1002001E09DF80100E968C968086075
S11319302046BDE8F68180B50178002000F003FA66
S1131940DFF8F404C0694169096988470220FFF798
S1131950C1FCBFF34F8FDFF8E404DFF8E42401682F
S113196001F4E06111430160BFF34F8FFEE7DFF83C
S1131970C804C068C06814210C3000F081BA10B5E6
S1131980044600F0A5FBFFE72178BDE81040DAE14A
S113199010B5DFF8A424126852690446A16860688F
S11319A09047F1E710B500F04AF8DFF88C04C068FE
S11319B0C06861680161082101770020217800F086
S11319C0C2F9BDE8104000F0FEBC30B583B0DFF8CA
S11319D06844A56800210191009100AB81684068CA
S11319E0AD6801AAC9B2C0B2A847E268D2680021B2
S11319F0116100998A08019900F0B9F937BD10B551
S1131A00DFF834249268D26804466068A168C0B2E2
S1131A109047B9E710B500F012F800F012F804216D
S1131A2001770020B0E710B500F009F800F009F8DC
S1131A30032101770020A168BDE81040AEE104460F
S1131A4095E7DFF8F403C068C068A16801616168C4
S1131A504161704738B5DFF8E0530446E868C06870
S1131A60002141610161007F042804D128680069D4
S1131A70804704B90446E868C068017F204600F046
S1131A8062F942F21270844208D1E868C068007FAB
S1131A90082804BFBDE8314000F0D7BC31BD2DE9B2
S1131AA0FC4100F0C2F821B900202070FFF7D2FFFA
S1131AB05AE0012121700669476900200090012342
S1131AC0E869D0F814C0DCF804C000AA01A9E04712
S1131AD05FEA000805D0E8694169C968884740465B
S1131AE003E0009830B942F21270FFF7B3FF002010
S1131AF020703AE0B04288BF30460090E868C06881
S1131B00017F082913D10199C1600099816101986D
S1131B10009900F062FC804642F27D7080451CBF53
S1131B2042F2747080450BD14FF0000808E02B6836
S1131B30019A00999B683846984780460098C719CF
S1131B400098361A06D0B8F1000F09D0E869416947
S1131B50C96888474046FFF77DFF0020207003E0F6
S1131B60E868C068066147610020BDE8F6812DE998
S1131B70F04700F05AF88AB021B900202070FFF72E
S1131B8069FF4EE00121217006694769C168027F3F
S1131B90212E2CBF4FF02008B046A9B1424601A81F
S1131BA0FFF7C8FDE869D0F814C0DCF808C00123C9
S1131BB0424601A9E047A6EB080606B168B3FFF761
S1131BC049FF002020702CE0032A08EB070906D106
S1131BD02B685B6801AA4146384698470CE0102AF6
S1131BE018BF4F46DED1407F0090434601AA3946D4
S1131BF005F1200000F04EFC5FEA000A4F46D1D008
S1131C00E8694569AD680123002201A9A847504647
S1131C10FFF720FF0020207004E0E868C068066138
S1131C20476100200AB0BDE8F087834D0446E868A8
S1131C30C0680169704710B57F4B1B68DB680446B8
S1131C40E268A168606898479EE62DE9F041054680
S1131C507C4C6E68D5F80880E868774920600027D6
S1131C6049680C3130B10A68904223BF4968491C65
S1131C70814204273046FFF765FA00B90427297822
S1131C80384600F060F89FB966600020FFF722FB39
S1131C902068C4F8088018B180F3088880F30988A4
S1131CA0616840468847BDE8F0410020FFF712BB59
S1131CB0BDE8F08138B504466068FFF743FA08B917
S1131CC0042005E065680120FFF704FBA068A8472D
S1131CD02178BDE8344036E010B50446211D5A4849
S1131CE000F034FC50E610B50446A3686168564819
S1131CF004F10C0200F052FC46E61CB5044600A8B0
S1131D000021002206C0A36861684F4800AA00F0C1
S1131D106DFCA26800A900F045F813BD10B5FFF7EB
S1131D208EFE4548C168C968A2680A6162684A6152
S1131D3010220A77C068C068E16841770020A16872
S1131D40BDE810405BE010B584B0A02201908DF88E
S1131D500020002200F06AF88DF80220029102228D
S1131D608DF8032000234469A4680C225BE010B5BD
S1131D7088B0A72300F03AF80020531C8DF80330F4
S1131D8006E000AC51F8203004EB8004401CA36052
S1131D909042F6DB00F021F800231AE010B584B07D
S1131DA0A3222FE010B588B0AF2300F01FF8022360
S1131DB08DF8033040B99008801C8DF8030002921E
S1131DC003A8FFF7C7FC01E000200290002300F005
S1131DD004F800A9A04708B010BD1748C0699DF8D1
S1131DE003104469A46889000A1D70478DF8003007
S1131DF0019000238DF801308DF80230704710B542
S1131E0084B0B0228DF800200190012200F00EF879
S1131E10029100228DF80220002302228DF8032073
S1131E200C224469A46800A9A0471FBD0248C069E8
S1131E308DF8012070470000D068FF1F0CED00E012
S1131E400400FA05D06BFF1FF068FF1F002818BFBD
S1131E50002901D1042070470848007800F00302EB
S1131E60022A08BF002005D000F0C00080280CBF63
S1131E700120022008700020704700BF02000240C9
S1131E80002200F0DBBB000038B5AC4C65682A4684
S1131E90042104F1200000F0EBFB00AA012104F16D
S1131EA0200000F0E5FB286800990818401E6860CF
S1131EB0002032BDF8B50446A0480D46416B1646D5
S1131EC04A4202EA0401671AEF197F423A4000AB22
S1131ED05242203000F0F0FB48B99DF8000008B1F0
S1131EE06C20F2BD32462946204600F029FCF2BDA2
S1131EF02DE9F047914C88B08046A0680069056BD5
S1131F008A464FEADA06F6009146AAEB060705B1BF
S1131F1001254FF0FF30CDE906002FB13A4606EB1C
S1131F20090106A8FFF706FCCAF10000C008C000BA
S1131F30414203AA404600F0DFF8002838D19DF85A
S1131F400C0000B1002506EB080A3EB133464A46B0
S1131F50414604F1200000F025FC38B93FB10823C4
S1131F6006AA514604F1200000F01CFC00BBEDB2AF
S1131F70EDB16EB104A802904B4605A8019032461B
S1131F8000F019F8414604F1200000F041FC68B962
S1131F906FB104A8029006AB05A80190082200F0D6
S1131FA00AF8514604F1200000F032FC00B9002088
S1131FB008B0BDE8F087A0680069806DC0B20090E9
S1131FC070472DE9F0475D4D8146A8680069066BAE
S1131FD08AB08A46904606B1012601200024A0FB5F
S1131FE0082310FB043300FB0833CAF10000C008C7
S1131FF0CDE90823C00041420AF0070005282FBF9D
S11320000F464FEADA07FF00AAEB070403AA484683
S113201000F072F800282BD19DF80C0088B100263E
S11320200FE0082308AA00F026F8002820D12EB1DA
S113203004A8029008AB00F023F8C8B909F1080914
S1132040083F002FEDD194B10024B8F1000064F1F1
S11320500101CDE90601082306AA00F00CF838B9FD
S11320602EB104A8029006AB00F00AF800B90020D3
S11320700AB0BDE8F087494605F1200000F092BBA4
S113208005A801900822A8680069806DC0B200907C
S1132090494605F1200000F0BBBB70B504460D466F
S11320A0264E274B2A46214606F1200000F0E0FB8D
S11320B068B9B16809690A6B4AB12A4606F1200079
S11320C08B6D2146BDE87040DBB200F00DBC70BDE5
S11320D010B51A4C1A4904F1200000F043FC50B921
S11320E0A16809690A6B1AB1896D00F02DF810B95D
S11320F0144A0121117010BD38B5154600222A700A
S11321000A460E4C014600AB04F1200000F0D4FA5C
S113211090B99DF8001029709DF8001061B1094D27
S1132120297849B9A0680069816D00F00DF808B1FB
S11321306C2032BD0121297032BD0000D068FF1F20
S11321406B66656B8C74FF1FC9B204F1200000F04C
S113215021BC0000416882688A4209D2891A416020
S113216082660FF2ED110160012181600020704749
S113217042F2787070470FF2050113E0416ADFF80C
S1132180F4324A898282CA68921E42604A689A423C
S113219002D1097A022902DB42F2757070470FF20C
S11321A00D0100BF016000207047000010B5044617
S11321B082B0606A41686268A1610168C91E914287
S11321C0A16002D342F2767016BD008910B142F2CA
S11321D0777016BD8DF8000000A9A748FFF736FEFA
S11321E09DF8000010B142F2817016BD2046FFF741
S11321F0B1FF16BD38B5A14D2B689B680446626AD1
S1132200216EE06D984780B928680069804760B9FD
S113221000F03AF800F033F80098616E884200D07C
S113222038E00FF22D102060002032BD38B504468E
S1132230924D00F029F82B68626AE06D9B681021CA
S11322409847D8B9E06D1030E065206E10382066EC
S1132250112828BF8A480FD208B18A480CE02868A0
S11322600069804750B900F00AF80098616E88420E
S113227000D00FE00FF2D9002060002032BD00A989
S113228004F11C0000F0AEBB616A102204F11C00D2
S113229000F092BB42F27A7032BD10B5044604F1EC
S11322A01C0000F083FB206E11282CBF7448754875
S11322B090E0724B1B68426E016EC06DDB6818477C
S11322C010B5044642F27F70E26D11000ED0606ECC
S11322D004F118019047012803D12046BDE81040BD
S11322E038E7022802D100F06EF8002010BD10B5C6
S11322F000F15C01031D1C684A685A60944202D2D2
S113230042F2767010BD0A7AD20707D50A685C6972
S1132310A24203D148689860002010BD90F85A107A
S1132320C9075CBFBDE81040FFF714BF42F27C70E0
S113233010BD90F85A10C90748BFFFF7C9BE4F4AED
S1132340126852695C304168006810470000000060
S1132350B0B5044604F15805606A0FC885E80F005B
S11323605A270120415D7F18401C1028FAD3287891
S1132370F9B2884202D042F27970B0BD6878072879
S11323801ED8DFE800F01B04080C10131B172046AE
S1132390BDE8B040ABE72046BDE8B0407DE720464D
S11323A0BDE8B04085E742F21270B0BD2046BDE8FA
S11323B0B04085E72046BDE8B040BAE70020B0BD94
S11323C042F27B70B0BD10B52F4C70212046FFF750
S11323D057FD2E482060002010BDF8B504460D4678
S11323E0002000262A4FAE4217D03869C0F11000F1
S11323F0A91B09E079B13B69325DDA55761C3A696B
S1132400521C3A61401E491E0028F3D1386100F085
S113241005F810B9E7E742F27D70F2BD1A491C4A8B
S11324204A620020CA6842B10869904202D2401C44
S1132430086104E042F2747070478A6E12B908466B
S113244009680847521E8A66704738B50E4890F8E6
S1132450591004290CD100F15C042568280004D02B
S11324600020FEF737FFA068A84742F27E7032BD15
S1132470002032BD53544D50F068FF1FD068FF1F39
S1132480751DFF1F3D1DFF1FA86FFF1FBF1CFF1FF2
S11324901870FF1F2DE9F8435FEA0008914614BF46
S11324A0B9F1000F04200E461D461CD0089C22469C
S11324B02946304600F019F8A8B907E0796849F8C8
S11324C0041B0836B96849F8041B083D5DB11B4874
S11324D007681B483E60032101700471404600F008
S11324E097FC0028EAD0BDE8F28310B510F0070F7E
S11324F008BF11F0070F01D0652010BD022A1BDAB6
S11325000C18641E012A06D1082804BFC81D0F2810
S113251012D1002010BD002AFBD1B4F5806FF8D38E
S1132520B0F5802F02D307498C42F2D3B0F5002FC7
S113253002D305488442ECD3042010BD4406FF1F97
S113254007000240000404000004080010B50A4615
S1132550002818BF002A01D1042010BD0E4B1C789E
S1132560002104F00304022C14D045215971117880
S11325705972517819729178D971D1789971117908
S11325805973517919739179D972D179997200F08B
S11325903FFC0146084610BD02000240F8B5160093
S11325A004460D461F4601D10420F2BD3A46FFF70A
S11325B04FF8B0B90B484321417005700A480068D0
S11325C0316841600DB10C2D03D2082F04BF71682E
S11325D08160204600F01CFC05462046FFF756F8B3
S11325E02846F2BD060002404406FF1FF8B5150058
S11325F007460C461E4601D10420F2BD3246FFF7C1
S113260027F890B90948412141700470384600F018
S1132610FFFB50B9064909684A682A600CB10C2CC2
S113262003D2082E04BF89686960F2BD0600024027
S11326304406FF1F62F30F2262F31F4200B500BF7E
S1132640130096469446103928BFA0E80C50FAD8D7
S11326505FEA417C28BF0CC048BF40F8042BC9077F
S113266028BF20F8022B48BF00F8012B00BD000052
S1132670002818BF002A01D104207047072918D860
S1132680DFE801F004080A0D0F111315C06810608B
S1132690002070474068FAE740688008F7E78068E0
S11326A0F5E70068F3E70120F1E74069EFE78069A7
S11326B0EDE76A20704700002DE9F04180461E00D6
S11326C00D46174608BF042034D00823FEF79BFFAD
S11326D080BBD8F814307A195F42C2F1000C07EAC3
S11326E00C0CCCF1000C2F40ACEB07070021B7FB1E
S11326F0F3F7DFF844C00AE0DCF800E0203C6FEABE
S11327000E0E2EFA04F4E40748BF491C5D199542E5
S11327100AD2B5FBF3F4202C38BFDCF804E0EED386
S1132720D8F818E07445E7D319B1B94234BF02218F
S113273001213170BDE8F0811800024000F082BB35
S1132740134680B50A4601461846FEF7F3FF0020FB
S113275002BD70B510F0030F0C46154612D0B0F14F
S1132760005F0FD22118491EB1F1005F0AD3C0F1F6
S1132770005632462946FEF7DDFFA21B71194FF0C1
S1132780005001E022462946FEF7D4FF002070BD28
S113279010B514460A462146BDE81040012300F056
S11327A091BB00002DE9F041044615000E461F467A
S11327B008BF042025D008233A46FEF724FF5FEA29
S11327C0000802D01DE00836083FB7B10E48006883
S11327D0066055F8041B416055F8041B816007200E
S11327E00A490870204600F013FB80462069010066
S11327F018BF8047B8F1000FE5D02046FEF746FF2A
S11328004046BDE8F08100BF4406FF1F07000240B8
S11328102DE9F04106465FEA03080D46174608BF56
S113282004201ED00423FEF7EEFED0B9069C01E07E
S11328303F1F2D1DAFB10C480C49006805600222F2
S11328400A700C7158F8041B8160304600F0E0FAFD
S11328500028EDD0079901B10D60089909B1002253
S11328600A60BDE8F08100BF4406FF1F0700024074
S11328702DE9F041984604460D4616461023FEF70E
S1132880C2FE07001AD17019461EE068B6FBF0F1CB
S113289000FB11622AB1491C4843461E01E0E0686E
S11328A04519AE4217D30E480E4900680560092049
S11328B008704046FEF7BDFE070002D03846BDE86A
S11328C0F081204600F0A4FA07462069010018BFF1
S11328D08047002FE3D02046FEF7D8FEEEE700BF86
S11328E04406FF1F070002402DE9F84F98460446AE
S11328F00D4692461023FEF786FE60BB6068A16811
S1132900164FB0FBF1F96842C9F100010840464294
S1132910AE4208BF4E4403E0AAEB0B0A5D444E44AA
S1132920BAF1000F16D00E4909680D60701BD3462A
S1132930824588BF8346012139704FEA1B10010A82
S11329403971F87087F80280204600F061FA002897
S1132950E2D000E00020BDE8F28F00BF0700024093
S11329604406FF1F38B50400084601D1042032BDD7
S1132970074A44211170FEF75CFE050007D120468A
S113298000F046FA05462046FEF780FE284632BD92
S11329900700024008B904207047034A40235370DB
S11329A0117000F035BA00BF060002404FF0FF314D
S11329B0016000214160704730B544680368141910
S11329C044600FF24C0407E011F8015B85EA1365DB
S11329D054F8255085EA032315466A1E002DF3D1C9
S11329E0036030BD30B54368026813F0030F0CD0A8
S11329F003F00303C3F104030FF21404150E54F897
S1132A0025505B1E85EA0222F8D102600A6030BDBF
S1132A1000000000B71DC1046E3B8209D926430D96
S1132A20DC7604136B6BC517B24D861A0550471E2E
S1132A30B8ED08260FF0C922D6D68A2F61CB4B2BCE
S1132A40649B0C35D386CD310AA08E3CBDBD4F3876
S1132A5070DB114CC7C6D0481EE09345A9FD524116
S1132A60ACAD155F1BB0D45BC2969756758B5652AE
S1132A70C836196A7F2BD86EA60D9B6311105A674E
S1132A8014401D79A35DDC7D7A7B9F70CD665E74F6
S1132A90E0B6239857ABE29C8E8DA1913990609556
S1132AA03CC0278B8BDDE68F52FBA582E5E664866E
S1132AB0585B2BBEEF46EABA3660A9B7817D68B38E
S1132AC0842D2FAD3330EEA9EA16ADA45D0B6CA0B6
S1132AD0906D32D42770F3D0FE56B0DD494B71D9D6
S1132AE04C1B36C7FB06F7C32220B4CE953D75CAEE
S1132AF028803AF29F9DFBF646BBB8FBF1A679FF0E
S1132B00F4F63EE143EBFFE59ACDBCE82DD07DEC35
S1132B1077708634C06D4730194B043DAE56C539C5
S1132B20AB0682271C1B4323C53D002E7220C12AFD
S1132B30CF9D8E1278804F16A1A60C1B16BBCD1FFD
S1132B4013EB8A01A4F64B057DD00808CACDC90C45
S1132B5007AB9778B0B6567C69901571DE8DD47545
S1132B60DBDD936B6CC0526FB5E6116202FBD0667D
S1132B70BF469F5E085B5E5AD17D1D576660DC537D
S1132B8063309B4DD42D5A490D0B1944BA16D840C5
S1132B9097C6A5AC20DB64A8F9FD27A54EE0E6A105
S1132BA04BB0A1BFFCAD60BB258B23B69296E2B2BD
S1132BB02F2BAD8A98366C8E41102F83F60DEE873D
S1132BC0F35DA9994440689D9D662B902A7BEA9405
S1132BD0E71DB4E0500075E4892636E93E3BF7ED85
S1132BE03B6BB0F38C7671F7555032FAE24DF3FE3D
S1132BF05FF0BCC6E8ED7DC231CB3ECF86D6FFCBBD
S1132C008386B8D5349B79D1EDBD3ADC5AA0FBD884
S1132C10EEE00C6959FDCD6D80DB8E6037C64F64E4
S1132C203296087A858BC97E5CAD8A73EBB04B779C
S1132C30560D044FE110C54B383686468F2B47425C
S1132C408A7B005C3D66C158E4408255535D435124
S1132C509E3B1D252926DC21F0009F2C471D5E2864
S1132C60424D1936F550D8322C769B3F9B6B5A3B1C
S1132C7026D6150391CBD40748ED970AFFF0560EDC
S1132C80FAA011104DBDD014949B93192386521DA4
S1132C900E562FF1B94BEEF5606DADF8D7706CFCA4
S1132CA0D2202BE2653DEAE6BC1BA9EB0B0668EFDC
S1132CB0B6BB27D701A6E6D3D880A5DE6F9D64DA1C
S1132CC06ACD23C4DDD0E2C004F6A1CDB3EB60C964
S1132CD07E8D3EBDC990FFB910B6BCB4A7AB7DB024
S1132CE0A2FB3AAE15E6FBAACCC0B8A77BDD79A35C
S1132CF0C660369B717DF79FA85BB4921F4675969C
S1132D001A163288AD0BF38C742DB081C3307185E3
S1132D1099908A5D2E8D4B59F7AB085440B6C95033
S1132D2045E68E4EF2FB4F4A2BDD0C479CC0CD434B
S1132D30217D827B9660437F4F460072F85BC176AB
S1132D40FD0B86684A16476C93300461242DC565D3
S1132D50E94B9B115E565A1587701918306DD81CB3
S1132D60353D9F0282205E065B061D0BEC1BDC0FCB
S1132D7051A69337E6BB52333F9D113E8880D03A2B
S1132D808DD097243ACD5620E3EB152D54F6D42953
S1132D907926A9C5CE3B68C1171D2BCCA000EAC873
S1132DA0A550ADD6124D6CD2CB6B2FDF7C76EEDB0B
S1132DB0C1CBA1E376D660E7AFF023EA18EDE2EEEB
S1132DC01DBDA5F0AAA064F4738627F9C49BE6FD93
S1132DD009FDB889BEE0798D67C63A80D0DBFB84F3
S1132DE0D58BBC9A62967D9EBBB03E930CADFF978B
S1132DF0B110B0AF060D71ABDF2B32A66836F3A26B
S1132E006D66B4BCDA7B75B8035D36B5B440F7B112
S1132E100B4870210170802101700178C909FCD030
S1132E200078810601D567207047C10601D5682066
S1132E307047C00701D5692070470020704700BF64
S1132E40000002401D480068000B00F00F00C01E87
S1132E50082830D8DFE800F005080B0E1114172FEE
S1132E601A004FF4804013E04FF4C04010E04FF4D8
S1132E7000400DE04FF440400AE04FF4803007E09A
S1132E804FF4C03004E04FF4003001E04FF48020F0
S1132E900321421E10420A4A526818BF02214B1CE9
S1132EA0B0FBF3F0C0F1005342F80C3F6FF0604305
S1132EB001FB003050600020704700BF00700440E8
S1132EC0D068FF1F002A01D101207047F0B41F46CB
S1132ED0034603242340002B09D00424E31A017081
S1132EE001300824E141521E26D05B1EF7D1042A8A
S1132EF01ADB13D0002F11D00C460D460E46102AB3
S1132F0002DB72C0103AFAE70C2A02DB32C00C3A38
S1132F10FAE7082A02DB12C0083AFAE7042A03DBBC
S1132F2001600430121FF9E7002A05D00170013056
S1132F300824E141521EF7D1F0BC00207047000084
S1132F4040682C49405C70472B494A6842B10A6882
S1132F5013780370501C08604868401E486070472E
S1132F6000210170704710B55A280CD1214A012361
S1132F708B54142404FB01210FF20D03CB60BDE834
S1132F801040116C084710BD1A49096C084730B548
S1132F90184D296485B0044600A80FF2600114227C
S1132FA0FEF7D8FB6068A26802219047606814218C
S1132FB001FB00510A1D00A900F091F8002005B0A2
S1132FC030BD10B504460B486168142202FB0100B1
S1132FD0001D00F0F0F86068A268BDE81040002110
S1132FE0104705480160426041680029FCD1002077
S1132FF070470000E46BFF1FDC6BFF1F912AFF1F6B
S1133000AF2AFF1F000000000800000001010000BB
S11330102DE9F041044682B0D4F800800FF2082074
S113302050F82870F86A261D00012BD5B2681000EC
S113303028D041464FF49670904723E000F04BF8B7
S113304020699DF80050092805D300F044F89DF844
S1133050000045EA00252069112805D300F03BF85B
S11330609DF8000045EA00452069192805D300F0C1
S113307032F89DF8000045EA00657D63F86A40F087
S11330800070F862F86A8001D8D4F86A800320D509
S1133090BD6BF86A40F40030F86241467268E8B2E9
S11330A090472069092804D3280472684146000E19
S11330B090472069112804D3280272684146000E03
S11330C0904720691928E0D372684146280E90473A
S11330D0DBE7BDE8F3813268414600A81047F0B54C
S11330E004460FF2441050F824700D46164685B07D
S11330F014213046FEF7C4FE0ECD301D0C3D0EC02B
S11331003460E868306146481CB1022C0AD004D30C
S11331100CE0C16841F4805102E0C16841F40051FF
S1133120C16003E0016841F480510160384600F059
S1133130A8F800208DF80000ADF80C0000A9E8689C
S11331400190287C8DF80800687C8DF809003846C9
S113315000F074F868BB386820F4804038600122BD
S11331600121384600F0B9F82E48002100F8341047
S113317000EBC400012246601921384600F0F8F83B
S113318001221121384600F0F3F801221B213846B0
S113319000F0EEF8002078630121F86A40F0007036
S11331A0F8622046FDF77EFF38684008400038602A
S11331B0002005B0F0BD70B504680FF26C00184E25
S11331C050F824501CB1022C0DD006D312E0F06844
S11331D0C00424D5002100200AE0F06880041ED534
S11331E00021012004E03068C00418D50021022029
S11331F0FDF758FF284600F044F81CB1022C0AD011
S113320004D370BDF06820F4805002E0F06820F42C
S11332100050F06070BD306820F48050306070BDA4
S113322030800440C86DFF1F00C0024000D002403F
S113323000C00A404001474A1150704738B50D4656
S113324004462878444A6101C04350500021204676
S1133250FFF7F0FF2A1D0021204600F044F810B1CA
S113326040F2311032BD6A7B297B204600F021F800
S113327000F001F832BD206820F0405020600020AA
S1133280704710B504460122206820F48040206075
S1133290012020600146204600F01FF82F48E0621C
S11332A00020A060E0602061206344F201002060FF
S11332B010BD30B50368C3F380331BB1046824F434
S11332C0804404604401264D295126490A511BB10A
S11332D0016841F48041016030BD4001224B195026
S11332E022490A50704730B51568042D09D3112DB1
S11332F002D30368DB0F04D1212D05D30368DB0F50
S113330002D140F2311030BD00EB810153791479C0
S113331000686D1E5B06A406ED06C00FC86803F0C6
S1133320007304F0806405F0F0450AD020F0FE40FC
S11333309279284320431206184302F08072104306
S113334004E020F0FC40284320431843C8600020D8
S113335030BD00007C0000423800004200000A9AA0
S113336034000042300000422C0000422800004299
S113337010B5036B01248C40A34302FA01F11943F5
S1133380016310BDC0F8BC117047C0F8B01170479C
S1133390C0F8B4117047D0F8B4010840704709B1BF
S11333A000EB8100D0F8C0017047416821F4FE4170
S11333B04160704738B504460D4600F093FD6069DE
S11333C000E0006910B18542FBD10BE06069002880
S11333D00EBF6561A0690561A56100202861E069EF
S11333E0401CE061E2E02DE9F0410446884694F88F
S11333F09D003249D02212FB0011A1F5D076801E27
S113340030604FF4206231682D4802FB010000F562
S1133410C0603061002037697061B061F0610C25D3
S113342039463046FFF7C6FF1C376D1EF8D1C8F881
S11334300060B4600020BDE8F0812DE9F0418046D1
S11334400C0008BF8B2035D004F1B60500F06EFDEA
S11334506873FF262E804046271D00F05DFD38600E
S1133460404600F059FD00F58070F8613868D0F8E6
S1133470240100F01F00E873E87B0928A8BFFF209F
S113348018DA0F484FF4206111FB0800A0F5A05191
S11334903962A0F5805078622246687B0FF2215190
S11334A000F049FD08B98A2004E02E80204600F08F
S11334B009F80020BDE8F08100000000286CFF1F1F
S11334C00078FF1F2DE9F0415FEA000851D000F0B9
S11334D009FD08F1040508F1B406E8690168C9B2F8
S11334E00818A86000222868D0F8A8118908890063
S11334F041F0020100F03FF841F0080100F03BF810
S113350021F00401C0F8A8110021707CA962E962CD
S11335104006296A06E0930140275F505B180127A3
S11335209F60521CD2B2B2EB106FF4D32868C0F87B
S1133530581100206F6A3080102400F0E0F83946FA
S1133540404600F01EF82037641EF6D12868D0F8F3
S1133550481140F247121143C0F8481100F0CCFC66
S1133560FF2070802868D0F8401141F00101C0F8B4
S11335704011BDE8F081C0F8A8112868D0F8A8115E
S1133580704738B504460D4600F0ACFC04F12C003D
S1133590016800290EBF056041680D604560002088
S11335A02860B4F8B400401CA4F8B400BDE831406D
S11335B000F0A2BC2DE9F34F83B000F093FC01238B
S11335C0049886684178027801EB4200090151FAB7
S11335D082F103FA01F10191C0B203990C1D4FF07D
S11335E000082168D1F8581101EB8019039901EB07
S11335F080000025C3460090A76AA06AB6F5804FF4
S11336008CBF4FF4804AB246A6EB0A0628B1A06AE2
S11336100068A062A06A00B9E0621FB900F06CFC07
S1133620972069E00398B0F8B4000399401EA1F80C
S1133630B400BBF1000F08BFB846002038607860C2
S1133640B860F86038617861B86100F058F804989F
S113365040685844B86000F58051F960D34400F5DF
S11336600051396100F54051796100F58040B8613D
S11336704FEA0A400EB940F4004040F08000786000
S11336800098406B10B90098476301250098406F7B
S11336900499F96100994F6700B10760002EABD11E
S11336A0F5B92068D0F8B0010199084221D1206809
S11336B0D0F8401141F48041C0F840112068D0F89E
S11336C0B8012168D1F840114904F0D52168D1F836
S11336D0402122F48042C1F840210199084208D1D6
S11336E0C9F808800020C9F80C0001992068FFF788
S11336F04CFE00F001FC002005B0BDE8F08F012075
S11337003860384651E655E754E72DE9F04F87B065
S113371004464FF0000ACDF818A000F0E3FB102295
S1133720002101A800F00BFCA0680190D34660685A
S1133730D0F8AC61FEB1002504F1C70726FA05F004
S1133740C00714D501208DF812008DF810A00820B0
S11337508DF813A00390002F02977BD03A460021E6
S1133760204600F05EF901A9284600F01AFC6D1C01
S1133770EDB2102DE2DB6068D0F8BC010090014688
S11337806068FFF7FFFD0098002861D000250098CD
S113379020FA05F1C80758D5102DA7BFA5F11006CA
S11337A04FF001082E464FF0000808EB4601C9B25D
S11337B004EB8100406B6268D2F8582102EB81115E
S11337C005910AE017B1394600F064FA01A9F0B294
S11337D000F0E7FB4FF0000A4846B0B34168090621
S11337E033D4C76927B1D7F808B07968029106972E
S11337F0016849094FEA4119416811F0680106D18D
S11338004068C0F30E408244ABEB0A0B06E0480666
S113381004D50598C06888430599C8604246F1B24A
S1133820204600F0BAF90020B9F1000F8DF81060BD
S11338308DF812008DF81380CDF80CB0C2D0D9F8F1
S11338401C0006998842C7D0C0E76D1C202D9EDB62
S113385000F052FB07B0BDE8F08F30B585B00446E8
S1133860002500222946204600F05EF9012229465F
S1133870204600F059F96D1C082DF2DB251D28683F
S1133880D0F85411C901C909C0F854112868D0F8F6
S1133890AC012968D1F8AC2100F00F001043C1F845
S11338A0AC012868D0F8BC112868FFF76BFD2868C4
S11338B0D0F8B0010028FAD128684FF0FF31FFF7A3
S11338C067FD2868D0F88401C00506D504F1B60068
S11338D0012101730321018002E02046FFF7F2FD7C
S11338E06868009000A900208DF80C00ADF80E0067
S11338F001900290102000F054FB05B030BD00B5DB
S113390000F1B60185B00A880A8180220A8000A9E4
S113391080680090FF208DF80C000020ADF80E00A8
S113392001900290142000F03CFB05B000BD30B5BE
S1133930041D85B06168009100F1B605FF218DF882
S11339400C100021ADF80E10287B00B1297300F093
S11339502CF8C00506D400F028F8800546BF0220E4
S1133960A873A97300F021F8000609D528882881D6
S11339708020288002910191112000A900F011FB00
S113398000F013F800060CD42888802809D128896F
S1133990288000A9002002900190132000F001FB70
S11339A001E00220288005B030BD2068D0F88401F1
S11339B07047B0F8BC10491CA0F8BC107047000058
S11339C038B50446606800F5A2700168406800EAF2
S11339D001056068C0F84451680644BF2046FFF7FB
S11339E03CFFE80744BF2046FFF78FFE680744BF4B
S11339F02046FFF79CFFA80744BF2046FFF7D9FFE6
S1133A00E80503D52046BDE8324078E731BD426879
S1133A104B06B630C2F854310174012101800020F4
S1133A207047F8B504460D466068D0F8580116464C
S1133A3000EBC5176068D0F8401141F40051C0F89C
S1133A404011082207F12801304600F070FC60683C
S1133A50D0F840018004EDD56068D0F8401121F41D
S1133A600051C0F8401101216068A940C0F8AC11B0
S1133A700020F2BD38B50D460446A87DC0F34100D0
S1133A802876A8780428BCBF6A78022A4ADA2978FA
S1133A90204600F082F86068D0F858012A786978E6
S1133AA000EBC21000EB8110012302EB01116268EC
S1133AB0D2F8B02103FA01F10A4202BF6268D2F8D7
S1133AC0B8210A422ED1A978012907D1297E01B94A
S1133AD00121AA8A890741EA024105E0A98A090469
S1133AE041F0005141F4004101606068A9786A78AE
S1133AF02B784FF440042BB9002A12BF1222C024A1
S1133B00022206E0002A06BFC0240222122200EB91
S1133B108300D0F8C031914021431943C0F8C0114B
S1133B20002032BD952032BD70B504460D461646C0
S1133B3000F033F86068D0F8580106EB450100EB5B
S1133B408110012105EB061291406268D2F8B02180
S1133B500A4202BF6268D2F8B8210A4211D1002198
S1133B600160002E606800EB850014BF6FF40C0147
S1133B706FF08C01D0F8C4211140C0F8C4110020AA
S1133B8070BD962070BD490051FA82F100EB8100AE
S1133B90406B08B1C069C07870472DE9F04704460E
S1133BA0012001EB021300FA03F502EB4100616806
S1133BB0D1F8581104EB800901EB8018D9F834606E
S1133BC0002E5ED03068470970687F01000617D563
S1133BD060682946FFF7DCFB60682946FFF7DBFBDA
S1133BE00028F9D100F050F80AD060682946FFF7A0
S1133BF0CFFB60682946FFF7CEFB0028F9D1F1E737
S1133C00002070603146012030602046D6F81CA0A8
S1133C10FFF7B7FC87B90020C9F83400BAF1000FE8
S1133C20C9F8740001D000F034F80120C8F8080085
S1133C300020C8F80C0024E0C9F83470BAF1000F71
S1133C401CBFF869504501D000F023F878680006DD
S1133C5017D560682946FFF798FB00F015F810D1D6
S1133C606068D0F8B0012842FAD100F00DF808D10C
S1133C70C8F808700020C8F80C0029466068FFF7EF
S1133C8084FB0020BDE8F0876068D0F8B8012842C2
S1133C90704751462046FFF78DBB4168D1F8482153
S1133CA022F04702C1F848214168D1F84021520866
S1133CB05200C1F8402102214068C0F840110020A0
S1133CC0704710B54368D3F8583103EBC11394011E
S1133CD0E35840681B0407D509B100EB8100D0F814
S1133CE0C01141F001110CE04FF4803311B92AB92D
S1133CF0012303E002B9012300EB8100D0F8C011D5
S1133D001943C0F8C011002010BD50B543684FF4EA
S1133D10803611B92AB9012603E002B9012603EB62
S1133D208103D3F8C041B443C3F8C041406859B1DA
S1133D3000EB8100002AD0F8C01114BF4FF48002B8
S1133D4040221143C0F8C011002050BD38B50C46C4
S1133D504068154604F00F01FFF721FB21064CBF14
S1133D604FF480310121084018BF01202880002031
S1133D7032BD80B501F00F01092901DBFF2002BD2E
S1133D80012A03D10022FFF79CFF02E00AB9FFF7E2
S1133D90BCFF002002BD70B504000D46164601D1DB
S1133DA0FF2070BD00F09EF8012D04F1B60007D08D
S1133DB0042D07D0052D07D0062D08BF468004E04A
S1133DC0068002E0468100E0868021E070B50500AF
S1133DD0144618BF002C0E4601D1FF2070BD00F020
S1133DE081F8012E05F1B60008D0032E0AD0042E66
S1133DF00AD0052E0AD0062E02D009E0008806E07B
S1133E00408804E0007C02E0408900E08088208053
S1133E1000F072F8002070BD38B504000D4601D1E1
S1133E209C2032BD00F05EF8E06918B900F064F837
S1133E30C12032BD60692860606928B16069006989
S1133E406061606900B9A061E069401EE06100F052
S1133E5053F8002032BD000070B5A0F11003DBB2AE
S1133E600829B8BFFB2B1CDA03F0030423F0030377
S1133E7003F1604303F56143E400D3F80053FF26E4
S1133E804901A64001F0E001B543A1402943C3F82C
S1133E90001312B100F008F801E000F010F800205F
S1133EA070BD4FF0FF3070BD1038C0B2FB2805DA8A
S1133EB0012100F01F029140144A0DE009E010387E
S1133EC0C0B2FB2805DA012100F01F029140104A1C
S1133ED002E04FF0FF307047400942F82010002004
S1133EE0704700000B480168002900D172B60168D0
S1133EF0491C0160704700000648016800291EBF84
S1133F00491E0160002900D162B6704700E100E05B
S1133F1080E100E0E86EFF1F08B9024870470248DC
S1133F20704700000020074000100A4008B94520EF
S1133F3070476D20704700F001BAFFF78DBF10B5D0
S1133F40044610460A4601462046FDF733FC204647
S1133F5010BD000038B50D460446687B38B1102802
S1133F6002BF002204F1080000F098FA04E00022E5
S1133F7004F1080000F004FA00200C2101FB0041C8
S1133F8001F13C026B7B117A994205D151681268A8
S1133F9028469047002032BD401C0828EDD38320DA
S1133FA032BD0A68487310F07F0307D000F07F0029
S1133FB0102803DAC87B43EAC01048731046C9E7E7
S1133FC04268126B13001CBF00681047FF20704743
S1133FD070B500F01EF86068E90606D5436A18005B
S1133FE00AD000F006F9984718E0436C180003D093
S1133FF000F0FFF89847F7E714E070B500F009F80F
S11340006068036C180003D000F0F3F8984705E0EB
S113401008E004460D461646FFF764BFFFF76CFF41
S1134020002070BDFFF768FFFF2070BD2DE9F84345
S11340300446884600260020A422344912FB0015B9
S113404005F19C073978012905D1401CC0B2042828
S1134050F3DBC1204EE000212846FFF770FF01206A
S113406038707C70FCF730FE05F108092849786047
S1134070602212FB0411C9F81410FF2231460C23EC
S113408013FB0153491C082983F84420F7DB214919
S11340901CB1012C02D10E4604E00E46022C14BFC2
S11340A0032C1D4E1EB900203870C02022E06E6023
S11340B03268100002D0294628469047286808B97B
S11340C0872017E0C9F80400C9F80850204600F01A
S11340D031FB30B1716B08001CBF28688847C420CD
S11340E008E07268100007D029682046904728B974
S11340F0C8F80050BDE8F283FF20FBE7716B0800AD
S11341001CBF286888478D20F4E700000471FF1F56
S1134110A08FFF1F7806FF1FD405FF1F10B54B6843
S11341209B68024600201C0003D0BDE810401046E6
S1134130184710BD38B5040001D1FF2032BD04F189
S11341409C056868FCF7C5FD6068416B08001CBFEE
S1134150206888470020287032BD00B587B0C0B100
S11341600B788DF800308B788DF801304B68ADF802
S1134170143049788DF802108DF816200021029130
S1134180039141688A69110003D0006800A990472F
S113419000E0FF2007B000BDF8B500F097F81F4617
S11341A001D1FF20F2BDFFF79DFE00200C2101FB91
S11341B0004292F84420AA4203D1FFF79DFE8420D6
S11341C0F2BD401C0828F2D3002001FB00423C321F
S11341D0137AFF2B06D1157216605760FFF78CFE19
S11341E00020F2BD401C0828EFD3FFF785FE812094
S11341F0F2BD2068324629467047F8B504000F46E0
S113420015461E4619D06068826C100015D02068CF
S113421000A9904788B9FFF765FE00980770002051
S113422000F033F80269100007D000992068904725
S113423000F050F81CB90020F2BDFF20F2BD94201C
S1134240F2BDF8B504000F4615461E4619D0606845
S1134250826C100015D0206800A9904788B9FFF738
S113426041FE00980770012000F00FF8C2681000AA
S113427007D000992068904700F02CF81CB9002062
S1134280F2BDFF20F2BD9320F2BD00994870009862
S113429086600098456000200099C8600620009957
S11342A0C8706068704770B500F010F80CD0FFF764
S11342B019FE6068036A180006D0FFF79AFF984752
S11342C000F008F8204670BDFF2070BD04000D46C4
S11342D0164670470446FFF70FBE10B538B1436861
S11342E0DB6B1C0003D0BDE8104000681847FF20BA
S11342F010BD08B9FF207047016242620020704778
S113430008B9FF2070478162C2620020704708B973
S1134310FF207047016342630020704728B1416861
S1134320C96C0A001CBF00680847FF20704710B51D
S11343300446FDF7FFF9204610BD000045280F4B49
S113434002D119605A6008E06D2802D1D9601A615F
S113435003E0332804BF59619A600120704707487D
S113436001680A001CBF4068084770470348C168D9
S11343700A001CBF0069084770470000C870FF1F8F
S11343807FB504460020ADF8080003900E46A068EF
S113439002AA0121FFF71CFEB07BCE25002850D0D5
S11343A07168082204F10C00FFF7C1FF208A217B09
S11343B020826022E089E0811142608A608217D104
S11343C0607B354901EB8002966A32005AD0BDF811
S11343D00820032A56DA00EB40004018105C01283C
S11343E050D101AB03AA04F10C012046B04726E0EA
S11343F00190D8B1207B000618D4019808305528C4
S113440005D3A06800220021FFF767FF7FBD606924
S1134410082204F10C01FFF78AFF6069019B00F197
S1134420080230680021FFF7E8FE7FBD266A3000ED
S113443028D0636A01AA03A904F10C00B047054619
S113444020E0BDF80800042805D16188A068C9B23D
S1134450FFF7B6FD7FBD207B00061CD4F07BD0B9EE
S1134460608AC0B1206A48B1B06808300190636ABC
S11344706069256A01AA03A9A8470546B06810F136
S1134480010F08D001A8009003AB04F10C02E9B2BB
S1134490204600F029F87FBD1C6BFF1F30B5044691
S11344A083B0A0680D46FFF739FF00208DF80200A5
S11344B08DF8000001224020019000A900208DF811
S11344C001002868FFF749FE01208DF8020001224F
S11344D0286800A9FFF741FEE269A06918B1A36941
S11344E000210020984737BD38B50446CE2915462B
S11344F0184606D1A068BDE8384001220021FFF724
S1134500ECBE0499EA880B689A4238BF0A600268D4
S11345100B68A0680021FFF794FE2878000608D5F0
S1134520A06801B0BDE83040002200231146FFF727
S113453064BE31BD70B5154604461E460A78FF2098
S11345401F231A4209D1A06822460621FFF740FD25
S1134550217801F00301218013E002F01F03012BF5
S113456003D10021218001210CE002F01F02022A64
S113457009D1888840F01001A0682246C9B2FFF72B
S113458027FD022131602C60C0B270BD70B50446B5
S113459082B000201860CE250A7848781F231A427A
S11345A0C0F3400012D1897811F0030138D00129F9
S11345B036D1002814BF11261226A369002518003D
S11345C02ED0626A00213046984729E002F01F028B
S11345D0022A02BF8A7803231A4221D189888DF8DE
S11345E000109DF800209DF8001001F00F01D20981
S11345F020B1A068FFF771FE132608E09DF80000C3
S113460014260F23184203D1A068FFF74CFE054679
S1134610A369180004D0626A00A9304698470025AF
S1134620E8B276BD38B50446002018600D46A0688F
S113463004220121FFF7E1FC68886080002032BD7C
S113464001211960303010600020704738B5002215
S113465004461A604888ADF8000000B90122A06839
S11346600121FFF7CAFC0546BDF80000A3692086B6
S113467018000BD0E26900A901209847BDF800009A
S113468020B1E269A369002103209847E8B232BD52
S113469038B50446012018601546A06A436818001E
S11346A001D1CA2032BD8988E06A2246C9B298473E
S11346B02C6032BD38B5044600200D4618602878B9
S11346C000F00300012801D0042032BDA06A8368F1
S11346D0180001D1CA2032BD6A88A988E06AD2B222
S11346E0C9B29847A369180003D0E269A91C022043
S11346F09847002032BD38B504460220186015469C
S1134700A06822460521FFF763FC2C60C0B232BDCD
S113471030B5846A83B02468250001D1CA203EBD27
S11347204D8801930092EAB28B88C06A290AA04797
S11347303EBD0000B0B5054600244C4F4C4815BBA7
S1134740016841F48021016009214164016B41F455
S113475080210163002D47490C606BD1386840F01B
S1134760807038601021386840F00040386042485A
S113477004700172017B41F0400101730020FFF7D6
S1134780D5FB01226CE0022D51D13C490A7842F05C
S113479002020A703A490A7842F080020A700168FB
S11347A041F002010160C16A41F00601C1620120C9
S11347B0FCF7C2FD33483449B8601F200860334811
S11347C0016841F480510160016841F00101016018
S11347D0016821F480310160016841F04001016009
S11347E001680029FCD52A490A6B520052080A6361
S11347F00A6B22F080420A630A6B42F440420A6365
S11348000C60026E42F4C0720266026E0266026EB0
S113481022F480620266026E22F002020266026ED6
S1134820002AFCD5086940F08070086192E74FF0D7
S1134830FF3418E0022DFAD11648016841F0020154
S1134840016001688907FCD40221816601220168A4
S113485021F47F010160816E41F0080181666D20C1
S11348600421FFF76AFB2046B0BD00BF007004407E
S11348700480044000D0004000210740004006406E
S1134880005006400001600030210A40A0200A4088
S113489000200A4040110A4038B50400084601D1FE
S11348A0042032BD074A49211170FCF7C2FE0500FD
S11348B007D12046FEF7ACFA05462046FCF7E6FE93
S11348C0284632BD0700024080B5094901EBC00209
S11348D011F8300028B1074840B15068C046C046BE
S11348E001BD054810B15068FEF792FB01BD000000
S11348F0C86DFF1F00000000592BFF1F0020E3E7D5
S11349000120E1E70220DFE7002000E0012038B5C4
S11349100FF2781151F82040594901EB0013E17866
S1134920E27801F012052A43E27001F05002102AE5
S113493010D04A0614D54807A0780CD540F01000D2
S1134940A07000208DF8000000A8196888479DF821
S11349500000207131BD00F0EF00A070207931BD5E
S1134960A278C2F300121AB1C807EAD5A078F2E718
S11349702279014610465A68904731BD0FF20C1156
S113498051F8200000218170017081717047F8B5E1
S113499004000FF2F8003A4F50F824600D4695E8F1
S11349A00F0007EB041787E80F00364801680CBFB7
S11349B040228022114301600020B0700121402078
S11349C0B0710220F0702046FCF788FB3078297B18
S11349D040084941317000207071B0717070B07836
S11349E040F08000B070B07840F04000B070F1BD8D
S11349F038B50500234C03D12068400605D431BDE9
S1134A00012D10D1206800060DD500212846FCF7A1
S1134A1065FB2846FFF7B2FF2068002D0CBF40213C
S1134A2080218843206031BD30B50FF2600353F814
S1134A3020004FF47A73B1FBF3F1134BB3FBF1F1A4
S1134A40002300E023465C1C01FB04F59542F9D3E6
S1134A502BB90A2462438A4204D3012302E0202BA7
S1134A6028BF1F23817901F0A00103F00F02114335
S1134A70817130BD024A02EB0010416070470000B2
S1134A80E06DFF1F3480044040420F000060064088
S1134A900070064000600E4000700E4040682F49D0
S1134AA04018007C70472E494A6842B10A6813785E
S1134AB00370501C08604868401E4860704700211D
S1134AC00170704725494969084738B504465A2C8E
S1134AD008460BD1214D4219012111742149FFF7D8
S1134AE0C9FF6969BDE834405A20084731BD10B593
S1134AF004461A49FFF74BFFFCF74CFA01462046DF
S1134B00BDE810403222FFF78FBF10B504461348AA
S1134B10416115498968096991F88110FF2918BF15
S1134B2001736068A268022190476068FFF7DFFFA5
S1134B30002010BD10B504466068FFF759FF606897
S1134B40A268BDE81040002110470548016042609A
S1134B5041680029FCD10020704700002069FF1F34
S1134B60186EFF1F0D46FF1FD068FF1FC9B2012A30
S1134B70DFF8B82912F821300CBF0120002008E02A
S1134B80C9B2012ADFF8A42912F821300CBF04208D
S1134B900820184302F821007047DFF89009C9B2D1
S1134BA010F8212002F0FD0200F82120704738B5EA
S1134BB004460D46FFF796F9206900280EBF2561CB
S1134BC060690561656100202861A069401CA061DD
S1134BD0BDE83140FFF790B938B504460D46FFF7FC
S1134BE081F9A06918B9FFF787F9C12032BD20699E
S1134BF02860206918B10069206100B96061A0696A
S1134C00401EA061FFF778F9002032BDDFF82019BB
S1134C1001F5007201F51471C1600161C2620C21D9
S1134C2081610B22C16801F11C030B61521E1946FC
S1134C30F9D10A6141610020704710B582B0044681
S1134C4000A9FFF7C9FFDFF8EC08406804F12C0164
S1134C50400A0A68CB7D40020BB9426005E040F08F
S1134C60080402F1080363600832009B5A600022C2
S1134C70009B1A70009B5A70009B9A60009B9A706C
S1134C800122009BDA75009A8A6000224A75C97D68
S1134C9001F0010140EAC100DFF89C18016013BD76
S1134CA0F8B506460F4614461D46FFF71BF900F0FB
S1134CB0E9FA07F00F0140EA4110142111FB0761E2
S1134CC041318A7802F0010240EAC20254608A78D3
S1134CD0097802F0010240EAC200AA0501F00101CC
S1134CE0920D890141EA024141F088010160FFF718
S1134CF003F900F069FBF2BD10B5142414FB0100A4
S1134D0001F00F0130F8384F9C4288BF1C46029BCB
S1134D101C60DFF820385B685B0A5B0243EA4111E0
S1134D20837A03F0010341EAC30343F010035A609A
S1134D30827A007A02F0010200F0010041EAC20125
S1134D40A205920D800141F0100140EA024040F0BA
S1134D50880000F038FB10BDF0B5DFF8E017DFF88D
S1134D60D447FF220A720B7D43F002030B750B7EBE
S1134D7003F080030B76002365686D0A6D0203F06F
S1134D800F0645EA4615002645F008072E603E60EA
S1134D9045F0100745F018053E602E60142505FB0C
S1134DA0030542356E702E700025DFF88067DFB290
S1134DB05B1C06F82750062BDED3257001230B70ED
S1134DC01C300B7D03F0FD030B75C57302230380B8
S1134DD0032343800A73087940F08D000871087D2D
S1134DE000F0DF0008750020F0BD2DE9F047DFF882
S1134DF04C5788B08146287CDFF838678DF81C0052
S1134E00287C00090090012814BF0228287C08216E
S1134E10287C2A7C2970C0F3C0007168009B490A71
S1134E20490241EA431141EA0013C2F3800243EA12
S1134E30C2021268C2F3094AC2F3830202920D2A23
S1134E400CBF4FF001084FF00008009A142303FB35
S1134E50029202F13004009A4AEA0202019270B30B
S1134E602768002F25D0F8685044F860B968091AFB
S1134E70A07C80F00100A074207C80F001002074EC
S1134E8002D02089824515D200F08CF82060484673
S1134E90FFF78DFE2089824504BF009800285ED16B
S1134EA0012030700022D9F8040000231146FFF7D6
S1134EB0C8F974E03946484600F0E9F96FE0019812
S1134EC0002854D0307808B1002030706768002F73
S1134ED065D0F87D68B9E07CFA6800F0010041EA29
S1134EE0C00041687868101881421CBF5246FFF721
S1134EF01EFAF8685044F860B9680E1A0098002841
S1134F0004BF02980D280ED101220021484600F06A
S1134F10B8FA09F14000012101704170C17881F0B3
S1134F200101C17007E0607C80F001006074E07CE6
S1134F3080F00100E074B868002818BF002E02D089
S1134F402089824506D200F02DF860604846FFF7BC
S1134F502EFE0CE03946484600F0BEF91FE00198E9
S1134F60002801BF307800284846FFF766FED9F8CC
S1134F70040003908DF81A8003A900988DF8180096
S1134F809DF81C00C00800F001008DF81B0000987B
S1134F90C0B2FFF706F8287D00F0DF00287508B0DE
S1134FA0BDE8F087F86805903946786804900020D9
S1134FB07047DFF8881504220A70DFF88425137916
S1134FC0127842EA0322028420200870704770B5E8
S1134FD004460025142000FB054000F13806B07893
S1134FE0012822D1D4F8AC002946FFF7D6FDDFF81A
S1134FF0440532884068400A400205F00F0140EA47
S11350004110B17A01F0010140EAC101920541F079
S11350101001920942F008020A60F17A01F00101DC
S113502040EAC100318800F01EFA6D1C062DD1DB68
S1135030DFF808158020087094F83A00012806D19A
S1135040002084F83A002046BDE87040F5E570BDC4
S113505030B5DFF8E844DFF8EC5485B020782179E6
S11350600840000744BF2846FFF7BFFE2078217997
S11350700840C00710D501202070207C6968009189
S113508000098DF80C0000A90020ADF80E00019075
S113509002901020FEF785FF207821790840400710
S11350A044BF2846FFF785FF207821790840000691
S11350B044BF2846FFF78BFF05B030BD70B50446EA
S11350C0DFF880640D463046FFF7A0FDDFF8781462
S11350D0DFF878040860FBF7F7FDC6F8A8002E6037
S11350E07460002070BD70B506460C4604F12805B6
S11350F0FEF71CFF28703046FEF70EFFC4F8AC0024
S11351001020A870FF20DFF8346430702246DFF8E6
S11351104004017801F07F0101702878DFF834142D
S1135120FEF709FF08B98A2070BDDFF80814DFF81C
S113513000044860010A3177020CDFF81C140A707D
S1135140000E08712046FFF707FE002070BDDFF84F
S11351500004017841F080010170DFF80004017857
S113516041F001010170DFF8F803017801F07F01DB
S113517001700020704738B50D46044629786A78D6
S1135180142010FB01415118012281F83C20AB7816
S1135190A98A012B05D1B1F5806F05DB40F2FF31FF
S11351A002E04129A8BF40212A7810FB024282F87C
S11351B03E302A786B7810FB024282F83F302A781E
S11351C010FB024211870022297810FB014181F86B
S11351D03A20297810FB014181F83B2029786A782C
S11351E010FB0141403132B94A70297810FB01406B
S11351F00021416305E000220A70297810FB014078
S11352000263A87829780128D4F8AC0018BF0122D9
S1135210FFF7ACFC6A7802B101222978D4F8AC001B
S1135220FFF7AEFC6878002801BF287800282046E4
S1135230FFF703FD002032BD70B505460E46144647
S113524000F01FF9B949002001F8260006F00F010B
S113525000F018F840EA411004F0010140EA01109E
S11352604FF0FF31416040F008004160142010FB12
S113527006504FF6FF7101872018002180F83C107A
S1135280002070BDAB484068400A40027047F0B54A
S11352900D460446A868E96883B0401A01901426B4
S11352A0E86818B9297816FB01410D6301A900913A
S11352B06968019B421829782046FFF71DFD070005
S11352C008D0287816FB00400021016320462946B7
S11352D0FFF76DFC3846FEBD2DE9F0410D4604464E
S11352E0E868A9680E1A142718B9297817FB014130
S11352F04D63297817FB0141098FB14238BF0E462F
S1135300696842189048006858B116F0030F08BF46
S113531012F0030105D00021E975414201F00301B7
S11353200A18297833462046FFF7BAFC5FEA0008DA
S113533008D0287817FB0040002141632046294605
S1135340FFF735FC002E04BF287800280CD129462D
S11353502046FFF72CFC94F8430080F0010084F809
S113536043002046FFF769FC4046BDE8F08170B574
S11353700D46142111FB050101F138060121F170DC
S1135380B1701446294600F07CF86A4930884968AF
S11353908005490A8009490205F00F0240F08C009B
S11353A041EA42113CB1B27A02F0010241EAC2017F
S11353B041F0100104E0F27A02F0010241EAC20174
S11353C000F001F870BD08606448017801F0DF0165
S11353D00170002070472DE9F84381460D461420E2
S11353E010FB059000F138070020F870B8701646DD
S11353F0D9F8AC004F4CFFF7D0FB05F00F004FEA93
S11354004018D9F8AC0096B101222946FFF7AEFB4B
S1135410D9F8AC0001222946FFF7B2FB002038720C
S11354206068B97A00F025F840F0100014E0012219
S11354302946FFF79BFBD9F8AC0000222946FFF769
S11354409FFB002078721DB94846FFF7F6FB06E083
S11354506068F97A00F00DF8398800F004F8FFF775
S1135460B3FFBDE8F2838905890941F008010160B1
S11354707047400A48EA402001F0010140EAC100B7
S11354807047F0B506460C46142085B0154610FB4F
S113549004601DB9476B0021416302E0076B0021E2
S11354A00163C7B139463046FFF781FB4FF0FF3047
S11354B0029000A978680190706800908DF80C4003
S11354C000208DF80E00280018BF01208DF80F0071
S11354D02046FEF766FD002005B0F0BD214A137892
S11354E003F080030B431C301370C173012101804E
S11354F00020704780B51C490A7800220A700A7D92
S113550002F080020A7500220A7415490A7842F0F2
S113551040020A700A7842F080020A70FF218183F7
S1135520D0F8A800FBF7D5FB002002BDC02007403F
S1135530008CFF1F206EFF1F88000800802007409A
S1135540A0200740286EFF1FD86EFF1F108EFF1F7C
S11355501C200740994BFF1FB020074094200740B0
S113556000210740982007408420074001F00F01E4
S1135570142313FB010090F83A00108000207047B8
S113558038B501F00F041425FF2315FB0405012A87
S113559005F83A2F04D1CA092146FFF7E8FE06E0D0
S11355A032B9697821B16A792146FFF714FF0346BD
S11355B0184632BD70B504460D46D4F8A800164608
S11355C0FBF783FB012D04F11C0007D0042D07D049
S11355D0052D07D0062D08BF468004E0068002E0B2
S11355E0468100E086801EE070B504460E46D4F87D
S11355F0A8001546FBF769FB012E04F11C0008D036
S1135600032E0AD0042E0AD0052E0AD0062E02D06C
S113561009E0008806E0408804E0C07B02E040899D
S113562000E080882880D4F8A800FBF750FB002015
S113563070BD38B504460025002229462046FFF7F0
S1135640FBFD012229462046FFF7F6FD6D1C062DC1
S1135650F2DB2046FFF780FB2046FFF7D7FA002055
S113566032BD000070B50D0082B00446164601D16B
S1135670002076BD00AA00F071F830B9009B9B6849
S11356805B68324629462046984776BD70B50D00C2
S113569082B00446164601D1002076BD00F07FF8A2
S11356A000B14CE000F047F868B9009B9B689B6828
S11356B032462946204698474E49002806BF009A9C
S11356C0926800220A6076BD38B504460D4600AAE9
S11356D000F044F8A0B900988068406908B96620D1
S11356E032BD2946204600F05AF810B142F2D87073
S11356F032BD009A9268526929462046904732BDCD
S1135700002DFCD1002032BD70B50D0082B00446DE
S1135710164601D1002076BD00F041F800B10EE03C
S113572000F009F830B9009B9B68DB6832462946D3
S11357302046984776BD00AA294620460EE042F24C
S1135740D87076BD10B52B4C2168002029B10969A9
S11357500A0002D088470021216010BD70B5264C94
S11357606468002918BF002A42F2D87314D000E0FC
S11357700C348CB12568002D04BF6668002E01D15D
S1135780A6684EB1A84224BF65688542F0D30818C4
S1135790401E854228BF00231460184670BD30B5F2
S11357A0154A92681269536BA3B10918491E002364
S11357B002EBC304603465682468002C08BF002D24
S11357C005D0854228BFA14201D3012030BD5B1C16
S11357D0022BEDDB002030BD10B50748446804E01F
S11357E00068010018BF80470C34A0680028F7D176
S11357F010BD0000DC6EFF1FD068FF1F10B58F487E
S11358008068006900F1700430224FF47071204602
S1135810FBF7A0FF20688A49884204D0FF22302188
S11358202046FCF707FFFBF725FC002010BD38B528
S1135830824CA06805694B20E87005F11002012034
S1135840A870042105206870012028705020E87198
S11358500120A87102206871002028715420E87288
S11358600120A872002068722872012028636863EE
S11358704EF6FF70A86300F052F805F114020121FE
S113588000F04DF805F11802002100F048F805F188
S11358901C02022100F043F805F12002032100F06C
S11358A03EF805F14C02052100F039F805F15002EB
S11358B0062100F034F805F15402072100F02FF816
S11358C000202866686600215E48A8665E48E8668F
S11358D06069E96007E095F88030134202D0EB6814
S11358E01A43EA60491C182202FB01021268002ACA
S11358F0F1D156480168A9644168696481682964E2
S1135900C068E863606850F80C1F69624168006809
S1135910081A401CA8620120A865002032BD04F1C9
S11359202000FCF7A5BE0000F8B51446434A484FD2
S113593091680426401E096917281D464CD8DFE8E3
S113594000F00C121416181A204B4B22262D241C7E
S11359501E30333E414345474B4905B12E6004B1E7
S113596021600020F2BD0C31F7E71031F5E7143166
S1135970F3E71831F1E72031EFE72431EDE728317F
S1135980EBE73831E9E73031E7E73431E5E7D0696F
S113599041694969884738603946DEE71026603135
S11359A0DBE72C480068F6E700A902F12000FCF7C9
S11359B04DFA9DF800000028EDD00120EBE71026F9
S11359C03C31CAE74C31C8E75031C6E75431C4E72B
S11359D05831C2E70831C0E742F63C00F2BD174A2D
S11359E092681369401E062842F63E0220D90938FF
S11359F00CD0401E01281BD9801E0DD0401E032848
S1135A0016D908380ED0801E12D014E0002918BF11
S1135A10012909D119637047002918BF012903D14D
S1135A2059637047032901D310467047996570473D
S1135A3042F63D00704742F63C007047D068FF1FB5
S1135A406B6366670000FF1F1F93FF1F54800440B1
S1135A50A46FFF1F24800440012100F01F02914025
S1135A60904A04E0012100F01F0291408E4A40094F
S1135A7042F8201070470021C17081700170042128
S1135A8041700021817241747047F8B5874E3360CC
S1135A90130191FBF3F633010025B1FBF3F3044644
S1135AA093424FF0FF3038BF761E00D310D0012749
S1135AB04B0007EB461CB3FBFCF39A4234BF9B1A22
S1135AC0D31A984224BF18463D467F1C212FEFDB92
S1135AD0642192FBF1F101EB4101884254D27449F3
S1135AE0744F8C420CD074498C4210D073498C4250
S1135AF014D073498C4218D072498C421DD023E0D3
S1135B001F20FFF7A9FFF86840F4806013E021200C
S1135B10FFF7A2FFF86840F400600CE02320FFF7D1
S1135B209BFFF86840F4805005E02520FFF794FFC0
S1135B30F86840F40050F86006E04220FFF78CFF5C
S1135B40386840F480603860310AE07800F0F3008F
S1135B50E07001F01F010020A070207800F0E00048
S1135B60084320706670A07A00F0E0002843A07219
S1135B70C0206074E07840F02000E070E07840F0ED
S1135B800C00E0700020F2BD0120F2BD0279120683
S1135B90FCD5C17170474C480178890600D50AE0EC
S1135BA070474A4801788A0701D5C078704789064A
S1135BB000D500E07047C0783C490968084744486C
S1135BC00178890600D5F6E77047424801788906CE
S1135BD000D5F0E7704740480178890600D5EAE728
S1135BE0704758B53249334E884204460CD0324986
S1135BF0884210D03149884214D03149884218D0A3
S1135C00304988421DD023E01F20FFF72BFFF068A6
S1135C1040F4806013E02120FFF724FFF06840F493
S1135C2000600CE02320FFF71DFFF06840F4805073
S1135C3005E02520FFF716FFF06840F40050F060FF
S1135C4006E04220FFF70EFF306840F480603060C9
S1135C502046FFF710FF164884420CD016488442B1
S1135C600DD0164884420ED0154884420FD01548F2
S1135C70844211D051BDF06820F480600AE0F068DD
S1135C8020F4006006E0F06820F4805002E0F06840
S1135C9020F40050F06051BD306820F48060306022
S1135CA051BD000000E100E080E100E02C70FF1F26
S1135CB000A006402880044000B0064000C0064012
S1135CC000D0064000A00E4004A0064004B00640E8
S1135CD004C0064004D0064004A00E4038B5044673
S1135CE000A96068FBF713F8D0B96068FBF75CF9AA
S1135CF0014600F033F8334D009A2B68FFF7C5FED8
S1135D0058B96068A2680221904729685A208847D8
S1135D102968A6208847012032BD6068FAF7DEFFB3
S1135D20002032BD10B50446264801606068A268B0
S1135D30012190476068FAF7D1FF002010BD10B52B
S1135D40044600F00BF8FFF74CFF6068FAF7DDFF3C
S1135D506068A268BDE8104000211047606801280F
S1135D600BD00CD3032804D005D3042807D116483C
S1135D7070471648704716487047164870471648CB
S1135D80704770B504460D46164603E0124809787C
S1135D90FFF7FCFE3046461E90B1294660684D1C54
S1135DA001280BD0F2D3032804D005D30428EDD165
S1135DB00548ECE70548EAE70548E8E70548E6E76B
S1135DC070BD00003070FF1F00A00E4000D00640E0
S1135DD000C0064000B0064000A00640A649D1F825
S1135DE08820531C5218C1F8883082F82000D1F85A
S1135DF0880000F03F00C1F8880070470020704719
S1135E00B8E02DE9FC410C00154614BF002D042018
S1135E10984628D0984F002007F1900628607070AB
S1135E2000F0A8F818B11EE0A22000F075F82021B7
S1135E303846FCF725F84246394600A800F0E7F852
S1135E4010B1002129600EE0394600A800F030F9B5
S1135E50BDF804108142E7D1012030702760BDF8FD
S1135E60020028600020BDE8F6812DE9F0410C0015
S1135E7082B015461E4635D0212D33D200F07AF873
S1135E8000283FD1DFF8F08198F8910010B100208C
S1135E9088F8910008F160075A203870A4207870BF
S1135EA00EB1A52078707D802DB12A46214608F1D7
S1135EB06600FBF73FFC08F16601384600F0F8F88D
S1135EC0B880A91D384600F064F8D8B900A800F0DD
S1135ED0DDF8B8B99DF80100A12812D0A22806D097
S1135EE0A32801D004200DE042F212700AE0788861
S1135EF0811D384600F04DF820B99DF80100A22814
S1135F00E4D00020BDE8F6815C48012181700021C5
S1135F10017070472020704780B55A218DF8001019
S1135F208DF801000120544981F89100022100A854
S1135F3000F02FF802BD10B50446504801784278AD
S1135F4080781140014282B011D10FF29410008880
S1135F50ADF80000022223695B6800A92046984737
S1135F6023690FF280115B6808222046984742F2A9
S1135F70137016BD4148017819B100210170A120A8
S1135F8004E0817819B100218170A320C4E70020C6
S1135F9070473B4AD3690A46014618461B695B6849
S1135FA018472DE9F14F8B461446FAF734FF06469D
S1135FB04FF47A7089466043FAF73DFF0025DFF815
S1135FC0B8A00446A8460AF188070EE07868396844
S1135FD088420CD05044009990F8200068546D1CFD
S1135FE07868401C00F03F0078605D450CD0002CC0
S1135FF0ECD0FAF710FF801B61EB0901414501D891
S1136000A042E3D3052000E00020BDE8F28F70B584
S113601082B005460C46164600F038F858BB68783E
S1136020A62804D11648C069FFF785FF76BDA421D0
S113603006B1A521884201D0012076BD00F022F8E6
S1136040BDF800106980B0B908462128A8BF2020F7
S1136050688000F017F8BDF80010A98058B9698865
S113606049B12046FBF7A2FB69880A2000FB01F234
S11360702046FFF796FF76BD3470FF1FC470FF1FE4
S1136080D068FF1F1422022100A88AE710B5044635
S1136090002201212046FFF784FF40B920785A28C6
S11360A0F6D1601CBDE810400A22012179E710BD39
S11360B030B583B004460D4600A800F017F804225A
S11360C0214600A800F015F86288294600A800F0CF
S11360D010F801A900A800F023F8BDF804003EBDA3
S11360E05AA70000000201500000AAEA0021018022
S11360F0704770B5038800240EE0655C83EA0523CD
S113610008255E001B0444BF86F4805686F02106F1
S11361106D1E3346F5D1641C9442EED3038070BDEA
S113612000880880704700000748016841F4700146
S113613001604CF220510548C1814DF62811C181FE
S11361404FF4E9710180704788ED00E000200540BC
S1136150F8B5044615461E460020174A02EB001700
S11361607A6822B1401C0228F7DBC120F2BDF96035
S11361707C60BE6032462046FEF7BBF832462946B4
S11361802046FEF7BDF8069932462046FEF7BFF8D2
S11361903846F2BD0020084A02EB00128A4204D0BD
S11361A0401C0228F7DB9E207047002050601060DE
S11361B09060D06070470000E070FF1F00281CBF93
S11361C04068FEF73EB8FF20704770477CB50E4626
S11361D014461D4600F0E2F8069A07993D4B032E3B
S11361E016D0212E0CD0222E2FD1002818BF022821
S11361F004D103F1300010604C200860002076BD0B
S1136200002812BF022803F1160010600920F4E7E9
S113621025B903F17C0010600420EEE7002001237F
S113622040F20946B54203D1032C02DA234600E0CA
S113623001200FF240140C2515FB0040C46854F8EB
S1136240234014600069185CD7E7082E21DA10B9DE
S11362500FF2D80403E0022804D10FF2F40454F836
