S0180000746F7765725F626F6F746C6F616465722E7372656351
S1130000D0C5FF1F11040000B3090000BD1100009A
S1130010BF110000C1110000C31100000000000066
S1130020000000000000000000000000B309000010
S1130030B309000000000000B3090000BB07000082
S1130040F7380000F7380000F7380000F7380000F0
S1130050F7380000F7380000F7380000F7380000E0
S1130060F7380000F7380000F7380000F7380000D0
S1130070F7380000F7380000F7380000F7380000C0
S1130080F7380000F7380000F7380000F7380000B0
S1130090F7380000F7380000F7380000F7380000A0
S11300A0A12A0000A52A0000992A00009D2A000028
S11300B0F7380000F7380000F73800001D32000060
S11300C0F738000029320000F738000045320000FC
S11300D0F7380000F7380000F7380000F738000060
S11300E0F7380000F7380000F7380000F738000050
S11300F0F7380000F7380000F7380000F738000040
S1130100F7380000F7380000F7380000F73800002F
S1130110F7380000F7380000F7380000F73800001F
S1130120F7380000F7380000F7380000F73800000F
S1130130D5080000F7380000F7380000F738000051
S1130140F7380000F7380000F7380000F7380000EF
S1130150F7380000F7380000F7380000F7380000DF
S1130160F7380000F7380000F7380000F7380000CF
S1130170F7380000F7380000F7380000F7380000BF
S11303F0F7380000F7380000F7380000FFFFFFFF70
S1130400FFFFFFFFFFFFFFFFFFFFFFFFFEFFFFFFF9
S113041072B60E480E49886000220023002400258D
S113042000260027B846B946BA46BB46BC4609482A
S1130430854609488047094880470948804762B68D
S113044000200021074A9047FEE70000000000005A
S113045000ED00E0D0C5FF1F35370000BD0F0000E0
S1130460F70F0000590B0000FF120000000000000D
S11304701113000000000000A7130000EF14000097
S1130480951300001F140000B715000000000000C1
S113049059160000000000004B130000000000008B
S11304A0251300001F140000CB15000000000000FD
S11304B03516000000000000B71200000000000024
S11304C07F13000000000000000000000000000096
S11304D067160000000000007B160000000000000A
S11304E09D160000EF140000000000000000000052
S11304F000000000D1380000DB380000E5380000BF
S113050000000000000000004926000097260000BB
S1130510CB2600000000000000000000EB260000D5
S1130520000000000000080000001000000020008F
S113053000004000000080000000000100000002F4
S1130540040002400918000035180000711800006A
S11305505B19000000000000F719000000200340B0
S11305602D2C00009B2C0000C52C00000000000076
S113057000000000DB2C0000712E0000FD2C0000A8
S1130580252D0000A12D0000DD2D0000612D0000AF
S1130590F9200000FD2000000F2100004D21000083
S11305A00000000000000000010000000000000046
S11305B0F70700001C0600002C06000034060000AB
S11305C002000000000000003F0800006005000079
S11305D07005000034060000040000000000000064
S11305E08508000008050000180500003406000016
S11305F000000000000000000000000000000000F7
S11306000000000000000000952E0000C72E00002E
S1130610D12F000087300000F0C1FF1FF13200002D
S113062047330000613300000000000000000000B8
S11306308D330000ED330000F33300005B34000021
S1130640F9340000F133000005350000CD3300001B
S113065038B504463D4D0020C5E90000C5E9020057
S1130660C5E90400A8612862394800F09EF8E861F1
S11306702046BDE834400FF2590100F03BB900F0C8
S11306804EB970B5314D0C46A969072904BF296AD2
S113069088421AD100F08EF8C0EB0016D5E90001AB
S11306A0D5E902231018B6FBF0F00A2148434FF4B1
S11306B09661B0FBF1F0401D0A21B0FBF1F04FF45C
S11306C0966148432060002070BD012070BD000089
S11306D02DE9F843064600F058F81C4F0446D7E9C4
S11306E004598846B8690021421C651B68EB090956
S11306F0F869494502D82CBFA8420122012ABA61EF
S113070006D0042A08D0052A0ED0072A0FD018E0F4
S1130710C7E900483E6214E0D7E90001201A68EBFB
S11307200101C7E900010CE0C7E9024809E0D7E983
S11307300201201A68EB0101C7E90201304600F00A
S1130740EEF8C7E90448BDE8F1830000C0C0FF1F0C
S1130750803801001C48002101606FF07F421B4972
S11307604A6000228A6007220A601949194A096806
S1130770C900B1FBF2F101B901214160704713488E
S1130780016821F00601016070470F490A681248A8
S113079000680B68C0430002000A9A42F6D10021A7
S11307A010EB026051EB1221704707494968484336
S11307B0C008704706480068704703480168491C30
S11307C00160704700000000E4C1FF1F10E000E07A
S11307D0BCC0FF1F40420F0018E000E009010028E0
S11307E006D5594A00F00F00801800F8041C704721
S11307F0564A8154704708BB554A564819B10229D4
S113080012D006D37047016811400160416811405D
S113081013E00168114041F4807101604E480168A1
S113082021F48031016070470168114041F4407146
S113083001604168114041F440714160704700B16A
S1130840704710B5454A4648464B414C11B1022900
S11308500AD010BD196821401960596821405960B7
S113086000211160016010BD5968214041F4E0612C
S113087059601968214041F4E06119600121016067
S1130880116010BD28BB324A374811B102290CD07F
S113089070470168114001604168114041608168FE
S11308A011408160C168114012E00168114041F4B7
S11308B0007101604168114041F400714160816838
S11308C0114041F400718160C168114041F400712C
S11308D0C160704710B51F4C2068C0F3006040B180
S11308E022480168080004D0002088474FF0FF30F8
S11308F0206610BD10B50C4680B901213C20FFF7DD
S11309006DFF1B491B4A4FF0805008601148016875
S1130910114041F4202101601448046010BD00B16D
S1130920704780B514494FF08050086000213C2086
S1130930FFF754FF07480F4A016811400160002087
S11309400A49086001BD000018ED00E000E400E081
S1130950FFF8FFFE40A0044054F00F4014019842F9
S11309609401984208C0044040D00440ECC1FF1FE9
S113097004E100E0FFFFF0FE84E100E0012811D86B
S11309800FF22C028056012904D100F01F0291407D
S1130990054A04E0012100F01F029140034A400986
S11309A042F820107047000000E100E080E100E020
S11309B01A1BFEE7012811D80FF22C0280560129D8
S11309C004D100F01F029140054A04E0012100F027
S11309D01F029140034A400942F82010704700006A
S11309E000E100E080E100E0181950F8041B61B157
S11309F050F8042BD30744BFA9F101039A1800232C
S1130A00091F42F8043BFAD1EFE7704738B50446B2
S1130A100D46002000F0E2F86A486B4A0560446025
S1130A204FF420411160016881F3088881F309883B
S1130A3040688047BDE83240002000F0CFB86349E9
S1130A408968096900281EBF10F1010F604A9042AD
S1130A5006D00A69904203D34B699A18904208D38E
S1130A604A6A904207D3896A891888428041C00F34
S1130A70704701207047002070472DE9F84F534D0F
S1130A80544EA868006900F1700A37460AE09AF8E3
S1130A901010014205D07869FA68816952683846B5
S1130AA09047183738680028F1D14FF47A70FFF76F
S1130AB07CFE07464FF42040002441680091D0F8A2
S1130AC000B000F0DDF858BB0098FFF7B8FF38B36A
S1130AD0A868006990F88E00C00703D400985946AE
S1130AE0FFF794FFBAF812004FF6FF71884208BF6F
S1130AF041F2883007FB00F4FFF747FE8046894641
S1130B0074B1FFF742FEB0EB080061EB0901002568
S1130B10A94201D8A04203D300985946FFF776FFB3
S1130B20374600E0183738680028E9D0F9680968C2
S1130B30384688470028F5D0002FE1D006E0B742B8
S1130B4003D0F16889683046884718363068002831
S1130B50F5D13846BDE8F28F38B500F0C0F800F0A2
S1130B606FF81A4CA06800688047002000F0D0F8A5
S1130B70FFF7F0FD04F1200000F085F9206800681B
S1130B808047A06840688047FFF777FFE06101690C
S1130B9019B109680A0018BF8847E069416919B1A9
S1130BA009680A0018BF8847E06800688047E5695B
S1130BB0E06840688047E868C1680800F8D02846C3
S1130BC08847F5E7E4C0FF1F08ED00E000C0FF1F01
S1130BD011040000A80500007047000070B5044629
S1130BE0022C04D0002000F0D4F9012C0ED00026F1
S1130BF0114D06E04019C16889680A0018BF88478A
S1130C00761C1820704341590029F3D174B900F0BF
S1130C106CF8FFF7B4FD00F0EEF908490020086015
S1130C20012000F075F800F011F862B6BFF36F8F81
S1130C30BFF34F8F70BD00BFA805000008ED00E0B2
S1130C401E48016841F47851016070471B480168EF
S1130C5021F478510160704719481A4A0168006804
S1130C601268000F401CC1F303615043491CB0FBE0
S1130C70F1F0704710B913480068704700207047BE
S1130C801148124A0168114041F480710160104911
S1130C904A6822F040024A60026842F0130202608D
S1130CA000204FF4FA720B68C3F380131818521E15
S1130CB0F9D1FA288041C00F704700003880044001
S1130CC044800440BCC0FF1F18B00440FFF8FFFE7E
S1130CD090F00F4070470000016062B6704772B632
S1130CE00A490020086062B6704772B60748016876
S1130CF0491C0160704705480168022901D200219E
S1130D00EAE70168491E016070470000D4C1FF1F73
S1130D10F8B5454C454D0100207847D129686160FC
S1130D2043498968096901F170024249137FDB076D
S1130D3008D52A68120F4FF0A070521CB0FBF2F0D5
S1130D400860F1BD527F3C4FD24302F00F02521CA7
S1130D50B7FBF2F70F6001260123384F00E0761C41
S1130D603549B1FBF6F1B942F9D23349344FB1FBFD
S1130D70F3F1B94228BF5B1CF7D2012A03D1092E33
S1130D8038BF092B19D2511E721E120602F070626E
S1130D9042EA01715A1E120402F4702211432960BE
S1130DA0012100F00BF801202070F1BD012904D1CC
S1130DB0002100F003F860682860F1BD884232D059
S1130DC001292048204B214A1DD1517801F0CF013F
S1130DD041F020015170117801F0C70141F0300158
S1130DE01170D17801F09F0141F02001D1700021F0
S1130DF01970117B01F0FC0141F0020111730178BB
S1130E000029FCD1704771B90121197001780029BA
S1130E10FCD00420107080205070D07800F09F0027
S1130E20D070002010737047ECC0FF1F4480044052
S1130E3000C0FF1FBCC0FF1F006CDC0201879303CE
S1130E4041787D01D000C8420800C84200400640F5
S1130E5008B904207047C06920B10068022801D194
S1130E60002070476D20704710B508B9042010BDEC
S1130E70C469606800F0F3F8A06800F07DF802200F
S1130E802060002010BD10B5040001D1042010BD65
S1130E90224923480968C1F3036130F811000003B3
S1130EA001D1642010BD0021216060604FF4807185
S1130EB00120A0604FF40060E0601A4890F900201F
S1130EC091406161C078A061002020612046FFF755
S1130ED0BFFF20B11448E0612046FFF7C5FF0020A2
S1130EE010BD08B9042070475B1E194208BF1A429E
S1130EF001D0652070470368994221BF4068C0183B
S1130F005118884201D26620704700207047074973
S1130F10884201D06B207047002070474C80044009
S1130F20200500002800024050C0FF1F6B66656B5F
S1130F3068B1042A02D0082A0BD008E079B110293C
S1130F400DD320290BD0A1F12100132807D30420AD
S1130F507047102903D0A1F111000328F7D2002013
S1130F6070470000016841F470010160BFF36F8FA6
S1130F70BFF34F8F7047704710B504460B480C49B8
S1130F800A1A411E204600F099F80A49601C0860BC
S1130F9010BD38B504002000FFF75AFF0500002DEE
S1130FA003D1054803490968884731BD650F00002E
S1130FB0770F00005CC1FF1F04F0014080B51849A1
S1130FC01848086018491948421A194888421CBF31
S1130FD0002A00F073F817481749091A18BF00F0DF
S1130FE0A9F816491648421A04D0BDE80840154825
S1130FF000F064B801BD14484FF0FF310160416056
S11310008160C160016141618161C1610F4801601A
S113101041608160C160016141618161C16170476A
S113102008ED00E000000000C83700008838000028
S113103000C0FF1FC0C0FF1FD0C3FF1F183900002E
S113104018390000D0C3FF1F80E100E080E200E017
S11310508021017001780906FCD57047704710B5EE
S11310600446124812490A1A411E204600F026F886
S11310701049601C086010BD10B50F4C7021217020
S1131080FFF7E6FE88B90B490968204688472078AF
S1131090810601D5672010BDC10601D5682010BDA9
S11310A0C00701D5692010BD002010BD51100000FB
S11310B05D10000060C1FF1F0000024062B38B0797
S11310C008D0521E11F8013B00F8013B00F02480C7
S11310D08B07F6D1830740F0208000BF103A07D376
S11310E030B4B1E83810103AA0E83810F9D230BC66
S11310F0530724BFB1E80810A0E8081044BF51F812
S1131100043B40F8043BD20724BF31F8022B20F8FB
S1131110022B44BF0B7803707047083A07D3B1E839
S11311200810083A40F8043B40F804CBF7D25307C0
S1131130E4E70000002200F001B80000401810F0BD
S1131140030308D0C91A1FD3DB0748BF00F8012DD9
S113115028BF20F8022D130030B414461546103968
S113116028BF20E93C00FAD8490728BF20E90C0031
S113117048BF40F8042D890028BF20F8022D48BF3D
S113118000F8012D30BC7047C91818BF00F8012DB4
S1131190CB0728BF00F8012D70470000BFF34F8F25
S11311A00448054A016801F4E06111430160BFF39A
S11311B04F8FFEE70CED00E00400FA05EEE7EDE7E3
S11311C0ECE7EBE7DFF8F015C968C96800200860B0
S11311D070472DE9F041DFF8E055E86982B000245A
S11311E08DF801404669002E62D0E968C9680A6832
S11311F0012A4CD001F1080274680023091DA0479C
S113120004001FBF42F21270844242F213708442FF
S11312104ED1E868C168D1F80880B8F1000F47D012
S11312204E68377837B1122F04DA806800EBC700B4
S1131230083800E00020086200281CBF006800286D
S11312401CD000A905F1200000F0C0FA040017D159
S11312509DF8000048B14FF4E750791E20FA01F2DE
S1131260D00758BF42F211740AD5EA68D268126AEC
S11312701268414630469047002406E042F210745A
S11312803946204600F01FFA94B901200DE0086A9F
S113129048B14168080003D00DF1010088470446B5
S11312A00CB1002001E09DF80100E968C9680860FC
S11312B02046BDE8F68180B50178002000F003FAED
S11312C0DFF8F404C0694169096988470220FFF71F
S11312D085FCBFF34F8FDFF8E404DFF8E4240168F2
S11312E001F4E06111430160BFF34F8FFEE7DFF8C3
S11312F0C804C068C06814210C3000F081BA10B56D
S1131300044600F09EFBFFE72178BDE81040DAE1D7
S113131010B5DFF8A424126852690446A168606815
S11313209047F1E710B500F04AF8DFF88C04C06884
S1131330C06861680161082101770020217800F00C
S1131340C2F9BDE8104000F02CBD30B583B0DFF821
S11313506844A56800210191009100AB8168406850
S1131360AD6801AAC9B2C0B2A847E268D268002138
S1131370116100998A08019900F0B9F937BD10B5D7
S1131380DFF834249268D26804466068A168C0B269
S11313909047B9E710B500F012F800F012F80421F4
S11313A001770020B0E710B500F009F800F009F863
S11313B0032101770020A168BDE81040AEE1044696
S11313C095E7DFF8F403C068C068A168016161684B
S11313D04161704738B5DFF8E0530446E868C068F7
S11313E0002141610161007F042804D1286800695B
S11313F0804704B90446E868C068017F204600F0CD
S113140062F942F21270844208D1E868C068007F31
S1131410082804BFBDE8314000F005BD31BD2DE909
S1131420FC4100F0C2F821B900202070FFF7D2FF80
S11314305AE00121217006694769002000900123C8
S1131440E869D0F814C0DCF804C000AA01A9E04798
S11314505FEA000805D0E8694169C96888474046E1
S113146003E0009830B942F21270FFF7B3FF002096
S113147020703AE0B04288BF30460090E868C06807
S1131480017F082913D10199C160009981610198F4
S1131490009900F090FC804642F27D7080451CBFAC
S11314A042F2747080450BD14FF0000808E02B68BD
S11314B0019A00999B683846984780460098C71956
S11314C00098361A06D0B8F1000F09D0E8694169CE
S11314D0C96888474046FFF77DFF0020207003E07D
S11314E0E868C068066147610020BDE8F6812DE91F
S11314F0F04700F05AF88AB021B900202070FFF7B5
S113150069FF4EE00121217006694769C168027FC5
S1131510212E2CBF4FF02008B046A9B1424601A8A5
S1131520FFF7CCFDE869D0F814C0DCF808C001234B
S1131530424601A9E047A6EB080606B168B3FFF7E7
S113154049FF002020702CE0032A08EB070906D18C
S11315502B685B6801AA4146384698470CE0102A7C
S113156018BF4F46DED1407F0090434601AA39465A
S113157005F1200000F07CFC5FEA000A4F46D1D060
S1131580E8694569AD680123002201A9A8475046CE
S1131590FFF720FF0020207004E0E868C0680661BF
S11315A0476100200AB0BDE8F087834D0446E8682F
S11315B0C0680169704710B57F4B1B68DB6804463F
S11315C0E268A168606898479EE62DE9F041054607
S11315D07C4C6E68D5F80880E8687749206000275D
S11315E049680C3130B10A68904223BF4968491CEC
S11315F0814204273046FFF722FA00B904272978EC
S1131600384600F060F89FB966600020FFF7E6FAFC
S11316102068C4F8088018B180F3088880F309882A
S1131620616840468847BDE8F0410020FFF7D6BA1C
S1131630BDE8F08138B504466068FFF700FA08B9E0
S1131640042005E065680120FFF7C8FAA068A847F0
S11316502178BDE8344036E010B50446211D5A48CF
S113166000F04EFC50E610B50446A3686168564885
S113167004F10C0200F06CFC46E61CB5044600A81C
S11316800021002206C0A36861684F4800AA00F048
S11316908BFCA26800A900F045F813BD10B5FFF754
S11316A08EFE4548C168C968A2680A6162684A61D9
S11316B010220A77C068C068E16841770020A168F9
S11316C0BDE810405BE010B584B0A02201908DF815
S11316D00020002200F06AF88DF802200291022214
S11316E08DF8032000234469A4680C225BE010B544
S11316F088B0A72300F03AF80020531C8DF803307B
S113170006E000AC51F8203004EB8004401CA360D8
S11317109042F6DB00F021F800231AE010B584B003
S1131720A3222FE010B588B0AF2300F01FF80223E6
S11317308DF8033040B99008801C8DF803000292A4
S113174003A8FFF7CBFC01E000200290002300F087
S113175004F800A9A04708B010BD1748C0699DF857
S113176003104469A46889000A1D70478DF800308D
S1131770019000238DF801308DF80230704710B5C8
S113178084B0B0228DF800200190012200F00EF800
S1131790029100228DF80220002302228DF80320FA
S11317A00C224469A46800A9A0471FBD0248C0696F
S11317B08DF801207047000000C0FF1F0CED00E011
S11317C00400FA0518C1FF1F20C0FF1F002818BF1E
S11317D0002901D1042070470848007800F0030272
S11317E0022A08BF002005D000F0C00080280CBFEA
S11317F00120022008700020704700BF0200024050
S1131800002200F0FDBB000038B5C64C65682A46CE
S1131810042104F1200000F00DFC00AA012104F1D0
S1131820200000F007FC286800990818401E686032
S1131830002032BDF8B50446BA480D46416B164641
S11318404A4202EA0401671AEF197F423A4000ABA8
S11318505242203000F00EFC48B99DF8000008B157
S11318606C20F2BD32462946204600F047FCF2BD0A
S11318702DE9F04FDFF8AC828146D8F80800006902
S11318800D4687B0AE08B600046B9246AF1B04B198
S113189001244FF0FF3004902FB13A4606EB0A01C1
S11318A004A8FFF70BFCFFF720FA684280088000C9
S11318B0414203AA484600F010F9050002D0FFF7A0
S11318C01AFA3DE09DF80C0000B1002406EB090B68
S11318D046B133465246494608F1200000F040FC28
S11318E0050008D13FB1042304AA594608F1200099
S11318F000F036FC0546FFF7FEF90DBBE4B20CB36D
S1131900FFF7F3F976B105A80290534606A80190B3
S1131910324600F01BF8494608F1200000F052FC62
S113192005000AD14FB100F05FF800F00FF85946F6
S113193008F1200000F046FC0546FFF7DCF90DB184
S1131940284600E0002007B0BDE8F08FD8F8080072
S11319500069806DC0B2009070472DE9F041714D6F
S11319608046A8680069066B88B006B10126484223
S1131970800804928000474203AA3946404600F09A
S1131980ACF804002AD19DF80C0020B1002602E036
S113199008F104083F1F1FB3FFF7A7F9042304AAA3
S11319A0414605F1200000F0DBFB0446FFF7A3F9F4
S11319B0A4B9002EECD0FFF798F900F015F8A86848
S11319C00069806DC0B20090414605F1200000F02E
S11319D0F9FB0446FFF78FF9002CD9D0204600E02C
S11319E0002008B0BDE8F08105A8029004AB06A869
S11319F0019004227047F8B504460D46FFF775F9C7
S1131A00484E494B2A46214606F1200000F00AFCC4
S1131A100746FFF770F997B9B0680069006B70B1B9
S1131A20FFF763F9B0680069836DDBB22A4621468B
S1131A3006F1200000F032FC0746FFF75CF9384657
S1131A40F2BDF8B5374EB068006900F160040025B6
S1131A50216821B96268521E9241D20F00E000222F
S1131A608369406BB8B1B2B95F4231B1394004D037
S1131A700020FFF7C0FF05002DD171686068496838
S1131A80404238404042884225D2491C091AFFF797
S1131A90B2FF05461FE0FFF728F9234906F12000AD
S1131AA000F03AFC0546FFF726F9A5B9B0680069CD
S1131AB0006B68B1FFF719F9B0680069816DC9B2AC
S1131AC006F1200000F040FC0546FFF714F915B9B3
S1131AD01649012008702846F2BD38B51546002283
S1131AE02A700A460F4C014600AB04F1200000F0B6
S1131AF0C1FAA8B99DF8001029709DF8001079B1B9
S1131B000A4D297861B9A0680069816DC9B204F1F0
S1131B10200000F019FC08B16C2032BD01212970AD
S1131B2032BD000000C0FF1F6B66656BCCC3FF1F96
S1131B30416882688A4209D2891A416082660FF23A
S1131B40ED110160012181600020704742F278703C
S1131B5070470FF2050113E0416ADFF8F4324A8955
S1131B608282CA68921E42604A689A4202D1097A05
S1131B70022902DB42F2757070470FF20D0100BFBB
S1131B80016000207047000010B5044682B0606A0E
S1131B9041686268A1610168C91E9142A16002D3D3
S1131BA042F2767016BD008910B142F2777016BD0C
S1131BB08DF8000000A9A748FFF708FE9DF8000073
S1131BC010B142F2817016BD2046FFF7B1FF16BD79
S1131BD038B5A14D2B689B680446626A216EE06D9E
S1131BE0984780B928680069804760B900F03AF8DE
S1131BF000F033F80098616E884200D038E00FF2AC
S1131C002D102060002032BD38B50446924D00F0FE
S1131C1029F82B68626AE06D9B6810219847D8B94F
S1131C20E06D1030E065206E10382066112828BF62
S1131C308A480FD208B18A480CE0286800698047B6
S1131C4050B900F00AF80098616E884200D00FE0A5
S1131C500FF2D9002060002032BD00A904F11C005D
S1131C6000F0ACBB616A102204F11C0000F07EBBE2
S1131C7042F27A7032BD10B5044604F11C0000F043
S1131C806FFB206E11282CBF7448754890E0724B8E
S1131C901B68426E016EC06DDB68184710B50446C0
S1131CA042F27F70E26D11000ED0606E04F11801F3
S1131CB09047012803D12046BDE8104038E70228A8
S1131CC002D100F06EF8002010BD10B500F15C01E7
S1131CD0031D1C684A685A60944202D242F276702C
S1131CE010BD0A7AD20707D50A685C69A24203D1FB
S1131CF048689860002010BD90F85A10C9075CBF6E
S1131D00BDE81040FFF714BF42F27C7010BD90F89C
S1131D105A10C90748BFFFF794BE4F4A1268526968
S1131D205C3041680068104700000000B0B504460C
S1131D3004F15805606A0FC885E80F005A2701208E
S1131D40415D7F18401C1028FAD32878F9B28842E4
S1131D5002D042F27970B0BD687807281ED8DFE857
S1131D6000F01B04080C10131B172046BDE8B040FC
S1131D70ABE72046BDE8B0407DE72046BDE8B04073
S1131D8085E742F21270B0BD2046BDE8B04085E759
S1131D902046BDE8B040BAE70020B0BD42F27B70F7
S1131DA0B0BD10B52F4C70212046FFF729FD2E48F9
S1131DB02060002010BDF8B504460D460020002622
S1131DC02A4FAE4217D03869C0F11000A91B09E0B0
S1131DD079B13B69325DDA55761C3A69521C3A6135
S1131DE0401E491E0028F3D1386100F005F810B9EF
S1131DF0E7E742F27D70F2BD1A491C4A4A620020AC
S1131E00CA6842B10869904202D2401C086104E0E9
S1131E1042F2747070478A6E12B90846096808471E
S1131E20521E8A66704738B50E4890F85910042936
S1131E300CD100F15C042568280004D00020FEF7D2
S1131E40CDFEA068A84742F27E7032BD002032BDAC
S1131E5053544D5020C0FF1F00C0FF1F091C000039
S1131E60D11B0000ACC2FF1F531B00001CC3FF1F8B
S1131E702DE9F8435FEA0008914614BFB9F1000F59
S1131E8004200F461D4619D0089C22462946384690
S1131E9000F01AF890B904E0716849F8041B3F1D7A
S1131EA02D1F5DB10648066806483760032101709E
S1131EB004724046FFF7E0F80028EDD0BDE8F28355
S1131EC0400500000700024010B510F0030F08BFE2
S1131ED011F0030F01D0652010BD022A0EDA0C1890
S1131EE0641E012A06D1002804BF481E072805D114
S1131EF0002010BD002AFBD1FF2CF9D9042010BD0D
S1131F0010B50A46002818BF002A01D1042010BDCC
S1131F100E4B1C78002104F00304022C14D045213C
S1131F20597111785972517819729178D971D1789F
S1131F30997111795973517919739179D972D17948
S1131F409972FFF799F80146084610BD0200024055
S1131F50F8B5160004460D461F4601D10420F2BD13
S1131F603A46FEF7E5FFC8B90D48432141700570B4
S1131F70102D0C4800683168416003D0A5F11101AF
S1131F80032903D2082F04BF716881602046FFF73C
S1131F9073F805462046FEF7FCFF2846F2BD00BF55
S1131FA00600024040050000F8B5150007460C463F
S1131FB01E4601D10420F2BD3246FEF7B9FFA8B98E
S1131FC00B484121417004703846FFF755F868B951
S1131FD0084909684A682A60102C03D0A4F1110248
S1131FE0032A03D2082E04BF89686960F2BD00BFCA
S1131FF0060002404005000062F30F2262F31F4214
S113200000B500BF130096469446103928BFA0E8D7
S11320100C50FAD85FEA417C28BF0CC048BF40F896
S1132020042BC90728BF20F8022B48BF00F8012B56
S113203000BD0000002818BF002A01D10420704709
S1132040072915D8DFE801F00408080A0C0E10125D
S1132050C0681060002070474068FAE78068F8E7BD
S11320600068F6E70120F4E74069F2E78069F0E7E9
S11320706A2070472DE9F04180461E000D46174640
S113208008BF042034D00423FEF72BFF80BBD8F80C
S113209014307A195F42C2F1000C07EA0C0CCCF13F
S11320A0000C2F40ACEB07070021B7FBF3F7DFF878
S11320B044C00AE0DCF800E0203C6FEA0E0E2EFA81
S11320C004F4E40748BF491C5D1995420AD2B5FBE4
S11320D0F3F4202C38BFDCF804E0EED3D8F818E091
S11320E07445E7D319B1B94234BF022101213170DB
S11320F0BDE8F0811800024000F076B9134680B5BF
S11321000A4601461846FEF7D9FF002002BD70B505
S113211010F0030F0C46154612D0B0F1005F0FD239
S11321202118491EB1F1005F0AD3C0F100563246AE
S11321302946FEF7C3FFA21B71194FF0005001E0BE
S113214022462946FEF7BAFF002070BD10B514469A
S11321500A462146BDE81040012300F07FB9000083
S11321602DE9F041044615000E461F4608BF042021
S113217022D004233A46FEF7B4FE5FEA000802D0F8
S11321801AE0361D3F1F9FB10C480068066055F8E1
S1132190041B416006200A4908702046FEF76CFFC4
S11321A080462069010018BF8047B8F1000FE8D0CD
S11321B02046FEF7EEFE4046BDE8F08140050000F3
S11321C0070002402DE9F04106465FEA03080D4688
S11321D0174608BF04201ED00423FEF782FED0B9A0
S11321E0069C01E03F1F2D1DAFB10C480C4900684F
S11321F0056002220A700C7158F8041B8160304695
S1132200FEF73AFF0028EDD0079901B10D60089957
S113221009B100220A60BDE8F08100BF400500005A
S1132220070002402DE9F041984604460D46164643
S11322300823FEF756FE07001AD17019461EE068FF
S1132240B6FBF0F100FB11622AB1491C4843461E5B
S113225001E0E0684519AE4217D30E480E49006804
S11322600560092008704046FEF751FE070002D0C1
S11322703846BDE8F0812046FEF7FEFE0746206999
S1132280010018BF8047002FE3D02046FEF781FEEF
S1132290EEE700BF40050000070002402DE9F84FBB
S11322A0984604460D4692460823FEF71AFE60BB84
S11322B06068A168164FB0FBF1F96842C9F10001EA
S11322C008404642AE4208BF4E4403E0AAEB0B0A64
S11322D05D444E44BAF1000F16D00E4909680D60F2
S11322E0701BD346824588BF8346012139704FEA6B
S11322F0DB00010A3971F87087F802802046FEF786
S1132300BBFE0028E2D000E00020BDE8F28F00BF51
S1132310070002404005000038B50400084601D11A
S1132320042032BD074A44211170FEF7F0FD050078
S113233007D12046FEF7A0FE05462046FEF729FEFB
S1132340284632BD0700024008B904207047034AFA
S1132350402353701170FEF78FBE00BF0600024089
S11323604FF0FF3101600021416070477FB50446A2
S113237001208DF800000E462068019015460E4895
S113238002900020ADF80C008DF80E006DB1FEF740
S1132390ACFC00A9002000F0ABF82A46314600202E
S11323A000F0BFF80190FEF7A6FC01982060606879
S11323B0281860607FBD0000B71DC10438B504460D
S11323C00D46207910F0030007D000A900220A600E
S11323D0C0F104022046FFF7C9FF206828600020EE
S11323E000F090F831BD00001A480068000B00F0BE
S11323F00F00C01E08282BD8DFE800F005080B0EDC
S11324001114172A1A004FF4804013E04FF4C0400F
S113241010E04FF400400DE04FF440400AE04FF468
S1132420803007E04FF4C03004E04FF4003001E0A6
S11324304FF48020084949680322B0FBF2F0C0F150
S1132440005241F80C2F6FF0604202EB40004860EC
S1132450002070470070044000C0FF1F002A01D113
S113246001207047F0B41F46034603242340002B89
S113247009D00424E31A017001300824E141521EFA
S113248026D05B1EF7D1042A1ADB13D0002F11D0FB
S11324900C460D460E46102A02DB72C0103AFAE7CB
S11324A00C2A02DB32C00C3AFAE7082A02DB12C01B
S11324B0083AFAE7042A03DB01600430121FF9E743
S11324C0002A05D0017001300824E141521EF7D1E1
S11324D0F0BC00207047000008304001484A115009
S11324E0704782689200920842EA81718160704765
S11324F009B90120704720B9424A136843F4802384
S1132500136051E0404951F8201041F221024A6021
S113251000228A6020B93B48016821F480210160CF
S11325207047F8B50E46384951F82040A068870F27
S1132530154605D0022F07D004D3032F06D00EE092
S1132540032104E0022102E0012100E000212046F1
S1132550FFF7C7FF03E016F8010B20706D1E16F09D
S1132560030006D0002DF6D103E056F8040B2060DA
S11325702D1F042DF9D2012D0AD00BD3032D03D026
S11325803CBF3088208005E030882080B07800E0AF
S113259030782070204600F03DF805463946204644
S11325A0FFF79FFF2846F2BD70B50C0001D1012052
S11325B070BD154951F82050144905F10800460131
S11325C0207888512846217BFFF78BFF607BA96820
S11325D0000721F0405100F040500843A8600C4926
S11325E0A07B88510121A06868602846FFF774FF2A
S11325F06068286000212846FFF76EFF002070BD48
S1132600640000423C8004405C050000600000421D
S11326106800004200F1080252010A4B9A58002156
S1132620D2B21AB1012A08BF016808E08168090F13
S113263001F0030102291ABF0329018841880846D1
S1132640704700006000004240682C49405C7047BD
S11326502B494A6842B10A6813780370501C086019
S11326604868401E4860704700210170704710B5EB
S11326705A280CD1214A01238B54142404FB012130
S11326800FF20D03CB60BDE81040D16A084710BDBE
S11326901A49C96A084730B5184DE96285B004463D
S11326A000A80FF260011422FEF718FD6068A2680A
S11326B0022190476068142101FB00510A1D00A902
S11326C000F091F8002005B030BD10B504460B4869
S11326D06168142202FB0100001D00F0EAF8606842
S11326E0A268BDE81040002110470548016042601F
S11326F041680029FCD10020704700002CC1FF1F55
S113270024C1FF1F512600006F26000000000000B6
S113271008000000010100002DE9F041044682B0E8
S1132720D4F800800FF2E41050F82870F86A261DDF
S113273000012BD5B268100028D041464FF49670A2
S1132740904723E000F04BF820699DF800500928D9
S113275005D300F044F89DF8000045EA00252069FF
S1132760112805D300F03BF89DF8000045EA004528
S11327702069192805D300F032F89DF8000045EAD5
S113278000657D63F86A40F00070F862F86A8001C1
S1132790D8D4F86A800320D5BD6BF86A40F40030C1
S11327A0F86241467268E8B290472069092804D368
S11327B0280472684146000E90472069112804D30A
S11327C0280272684146000E904720691928E0D318
S11327D072684146280E9047DBE7BDE8F381326812
S11327E0414600A81047F0B504460FF2201050F8F7
S11327F024700D46164685B014213046FFF700F8C4
S11328000ECD301D0C3D0EC03460E86830613D488B
S113281014B1012C04D007E0016841F4805102E0B6
S1132820016841F400510160384600F09AF8002034
S11328308DF80000ADF80C0000A9E8680190287C30
S11328408DF80800687C8DF80900384600F066F8B9
S113285068BB386820F48040386001220121384682
S113286000F0ABF82848002100F8341000EBC40055
S1132870012246601921384600F0EAF801221121AC
S1132880384600F0E5F801221B21384600F0E0F854
S1132890002078630121F86A40F00070F862204655
S11328A0FEF76CF83868400840003860002005B036
S11328B0F0BD70B505680FF25400124C50F8256055
S11328C015B1012D06D00CE02068C00418D50021F4
S11328D0002004E02068800412D500210120FEF7C6
S11328E04DF8304600F03DF815B1012D04D070BD0F
S11328F0206820F4805002E0206820F4005020601A
S113290070BD00003C800440A4C1FF1F00C0024011
S113291000D002404001474A1150704738B50D4677
S113292004462878444A6101C0435050002120469F
S1132930FFF7F0FF2A1D0021204600F044F810B1F3
S113294040F2311032BD6A7B297B204600F021F829
S113295000F001F832BD206820F0405020600020D3
S1132960704710B504460122206820F4804020609E
S1132970012020600146204600F01FF82F48E06245
S11329800020A060E0602061206344F20100206028
S113299010BD30B50368C3F380331BB1046824F45D
S11329A0804404604401264D295126490A511BB133
S11329B0016841F48041016030BD4001224B19504F
S11329C022490A50704730B51568042D09D3112DDA
S11329D002D30368DB0F04D1212D05D30368DB0F79
S11329E002D140F2311030BD00EB81016D1E5379EC
S11329F014790068ED065B06A406C00FC86803F0EE
S1132A00007304F080640CD020F0FE4005F0F04523
S1132A109279284320431206184302F0807210432F
S1132A2004E020F0FC40284320431843C860002001
S1132A3030BD00007C0000423800004200000A9AC9
S1132A4034000042300000422C00004228000042C2
S1132A5010B5036B01248C40A34302FA01F119431E
S1132A60016310BD80B5094901EBC00211F83000C3
S1132A7028B1074840B15068C046C04601BD05486A
S1132A8010B15068FFF748FE01BD0000A4C1FF1F4C
S1132A9000000000192700000020E3E70120E1E71F
S1132AA0002000E0012038B50FF2781151F82040E1
S1132AB0594901EB0013E178E27801F012052A4349
S1132AC0E27001F05002102A10D04A0614D54807CB
S1132AD0A0780CD540F01000A07000208DF8000004
S1132AE000A8196888479DF80000207131BD00F0E6
S1132AF0EF00A070207931BDA278C2F300121AB1A0
S1132B00C807EAD5A078F2E72279014610465A6848
S1132B10904731BD0FF20C1151F820000021817053
S1132B20017081717047F8B504000FF2F8003A4F54
S1132B3050F824600D4695E80F0007EB041787E86A
S1132B400F00364801680CBF402280221143016007
S1132B500020B07001214020B0710220F0702046A6
S1132B60FDF728FF3078297B400849413170002067
S1132B707071B0717070B07840F08000B070B0784F
S1132B8040F04000B070F1BD38B50500234C03D1CE
S1132B902068400605D431BD012D10D120680006FF
S1132BA00DD500212846FDF705FF2846FFF7B2FFA3
S1132BB02068002D0CBF402180218843206031BD56
S1132BC030B50FF2600353F820004FF47A73B1FB71
S1132BD0F3F1134BB3FBF1F1002300E023465C1C3B
S1132BE001FB04F59542F9D32BB90A2462438A42C6
S1132BF004D3012302E0202B28BF1F23817901F095
S1132C00A00103F00F021143817130BD024A02EBAF
S1132C100010416070470000B4C1FF1F34800440BD
S1132C2040420F00006006400070064040682F4993
S1132C304018007C70472E494A6842B10A681378EC
S1132C400370501C08604868401E486070470021AB
S1132C500170704725494969084738B504465A2C1C
S1132C6008460BD1214D4219012111742149FFF766
S1132C70CDFF6969BDE834405A20084731BD10B51D
S1132C8004461A49FFF74FFFFDF7E6FF01462046C9
S1132C90BDE810403222FFF793BF10B50446134835
S1132CA0416115498968096991F88110FF2918BFA4
S1132CB001736068A268022190476068FFF7DFFF34
S1132CC0002010BD10B504466068FFF75DFF606822
S1132CD0A268BDE810400021104705480160426029
S1132CE041680029FCD10020704700005CC0FF1F30
S1132CF0D8C1FF1F552C000000C0FF1F70B50D0088
S1132D0082B00446164601D1002076BD00AA00F028
S1132D1071F830B9009B9B685B68324629462046AF
S1132D20984776BD70B50D0082B00446164601D1B1
S1132D30002076BD00F07FF800B14CE000F047F8C9
S1132D4068B9009B9B689B68324629462046984791
S1132D504E49002806BF009A926800220A6076BD98
S1132D6038B504460D4600AA00F044F8A0B900980E
S1132D708068406908B9662032BD2946204600F0C3
S1132D805AF810B142F2D87032BD009A9268526972
S1132D9029462046904732BD002DFCD1002032BD8B
S1132DA070B50D0082B00446164601D1002076BDF0
S1132DB000F041F800B10EE000F009F830B9009BD2
S1132DC09B68DB68324629462046984776BD00AAB0
S1132DD0294620460EE042F2D87076BD10B52B4C41
S1132DE02168002029B109690A0002D0884700211E
S1132DF0216010BD70B5264C6468002918BF002AF4
S1132E0042F2D87314D000E00C348CB12568002D44
S1132E1004BF6668002E01D1A6684EB1A84224BF43
S1132E2065688542F0D30818401E854228BF0023F8
S1132E301460184670BD30B5154A92681269536B18
S1132E40A3B10918491E002302EBC304603465686A
S1132E502468002C08BF002D05D0854228BFA1425C
S1132E6001D3012030BD5B1C022BEDDB002030BD03
S1132E7010B50748446804E00068010018BF8047A3
S1132E800C34A0680028F7D110BD0000E0C1FF1F7A
S1132E9000C0FF1F10B593488068006900F17004FA
S1132EA030224AF2C0312046FEF718F920688E49D4
S1132EB0884204D0FF2230212046FFF79DF8FDF719
S1132EC009FF002010BD38B5864DA86804694B2061
S1132ED0E07004F110020120A0700421052060704C
S1132EE0012020705020E0710120A0710220607147
S1132EF0002020715420E0720120A0720020607232
S1132F0020720120206360634EF6FF70A06300F01E
S1132F105BF804F11402012100F056F804F11802E0
S1132F20002100F051F804F11C02022100F04CF8D9
S1132F3004F12002032100F047F804F14C020521BA
S1132F4000F042F804F15002062100F03DF804F1CB
S1132F505402072100F038F8A069644A4042524202
S1132F604FF0FF310240891A614A616610402066C1
S1132F7000216048A0666048E0666869E16007E097
S1132F8094F88030134202D0E3681A43E260491C8B
S1132F90182202FB01021268002AF1D15748016885
S1132FA0A1644168616481682164C068E063686801
S1132FB050F80C1F616241680068081A401CA06246
S1132FC00120A065002032BD05F12000FFF732B8D2
S1132FD0F8B51446434A4A4F91680426401E0969CD
S1132FE017281D464CD8DFE800F00C121416181AE6
S1132FF0204B4B22262D241C1E30333E4143454793
S11330004B4905B12E6004B121600020F2BD0C31A2
S1133010F7E71031F5E71431F3E71831F1E7203120
S1133020EFE72431EDE72831EBE73831E9E73031D8
S1133030E7E73431E5E7D069416949698847386091
S11330403946DEE710266031DBE72E480068F6E7F4
S113305000A902F12000FEF7B9FB9DF8000000284A
S1133060EDD00120EBE710263C31CAE74C31C8E72C
S11330705031C6E75431C4E75831C2E70831C0E7DC
S113308042F63C00F2BD174A92681369401E0628B6
S113309042F63E0220D909380CD0401E01281BD923
S11330A0801E0DD0401E032816D908380ED0801E6D
S11330B012D014E0002918BF012909D119637047FF
S11330C0002918BF012903D159637047032901D38B
S11330D0104670479965704742F63D00704742F6C6
S11330E03C00704700C0FF1F6B636667183900001F
S11330F00000000000C0FF1FCFC5FF1F5480044024
S1133100A8C2FF1F24800440012100F01F02914047
S11331106D4A04E0012100F01F0291406B4A40090E
S113312042F8201070470021C170817001700421A1
S113313041700021817241747047F8B5644E336068
S1133140130191FBF3F633010025B1FBF3F30446BD
S113315093424FF0FF3038BF761E00D310D00127C2
S11331604B0007EB461CB3FBFCF39A4234BF9B1A9B
S1133170D31A984224BF18463D467F1C212FEFDB0B
S1133180642192FBF1F101EB410188423FD25149A4
S1133190514F8C4206D051498C420AD050498C423E
S11331A00ED014E01F20FFF7AFFF386840F48060B2
S11331B00CE02120FFF7A8FF386840F4006005E028
S11331C02320FFF7A1FF386840F480503860E0788E
S11331D000F0F300E070310A0020A07001F01F013C
S11331E0207800F0E000084320706670A07A00F0B8
S11331F0E0002843A072C0206074E07840F0200012
S1133200E070E07840F00C00E0700020F2BD012096
S1133210F2BD02791206FCD5C171704731480178BC
S1133220890600D50AE070472F4801788A0701D53E
S1133230C0787047890600D500E07047C0782449FB
S11332400968084729480178890600D5F6E77047D8
S113325058B52049204E8842044606D01F4988426A
S11332600AD01F4988420ED014E01F20FFF752FFF6
S1133270306840F480600CE02120FFF74BFF306899
S113328040F4006005E02320FFF744FF306840F479
S1133290805030602046FFF746FF0E48844206D037
S11332A00E48844207D00E48844208D051BD30688D
S11332B020F4806006E0306820F4006002E03068AA
S11332C020F48050306051BD00E100E080E100E076
S11332D030C3FF1F00A006403480044000B0064005
S11332E000C0064004A0064004B0064004C00640E6
S11332F038B5044600A96068FDF7C3F908BB6068E7
S1133300FDF7B8FC01466068012804D002280CBF10
S11333102A482B4800E02B482B4D009A2B68FFF7D6
S11333200CFF58B96068A2680221904729685A20A6
S113333088472968A6208847012032BD6068FDF7C8
S113334087F9002032BD10B504461F48016060684B
S1133350A268012190476068FDF77AF9002010BD4A
S113336010B504466068012804D002280CBF134835
S1133370134800E01348FFF76BFF6068FDF77FF91F
S11333806068A268BDE810400021104770B504468B
S11333900D46164602E00978FFF73BFF3046461E0D
S11333A058B1294660684D1C012804D002280CBF7E
S11333B002480348EFE70348EDE770BD00C006404C
S11333C000A0064000B0064034C3FF1FA649D1F850
S11333D08820531C5218C1F8883082F82000D1F894
S11333E0880000F03F00C1F8880070470020704753
S11333F0B8E02DE9FC410C00154614BF002D042053
S1133400984628D0984F002007F1900628607070E5
S113341000F0A8F818B11EE0A22000F075F82021F1
S11334203846FEF7EDF94246394600A800F0E7F8C1
S113343010B1002129600EE0394600A800F030F9EF
S1133440BDF804108142E7D1012030702760BDF837
S1133450020028600020BDE8F6812DE9F0410C004F
S113346082B015461E4635D0212D33D200F07AF8AD
S113347000283FD1DFF8F08198F8910010B10020C6
S113348088F8910008F160075A203870A4207870F9
S11334900EB1A52078707D802DB12A46214608F111
S11334A06600FDF70BFE08F16601384600F0F8F8F7
S11334B0B880A91D384600F064F8D8B900A800F017
S11334C0DDF8B8B99DF80100A12812D0A22806D0D1
S11334D0A32801D004200DE042F212700AE078889B
S11334E0811D384600F04DF820B99DF80100A2284E
S11334F0E4D00020BDE8F6815C4801218170002100
S1133500017070472020704780B55A218DF8001053
S11335108DF801000120544981F89100022100A88E
S113352000F02FF802BD10B50446504801784278E7
S113353080781140014282B011D10FF294100088BA
S1133540ADF80000022223695B6800A92046984771
S113355023690FF280115B6808222046984742F2E3
S1133560137016BD4148017819B100210170A120E2
S113357004E0817819B100218170A320C4E7002000
S113358070473B4AD3690A46014618461B695B6883
S113359018472DE9F14F8B461446FDF7F6F8064619
S11335A04FF47A7089466043FDF7FFF80025DFF891
S11335B0B8A00446A8460AF188070EE0786839687E
S11335C088420CD05044009990F8200068546D1C37
S11335D07868401C00F03F0078605D450CD0002CFA
S11335E0ECD0FDF7D2F8801B61EB0901414501D80D
S11335F0A042E3D3052000E00020BDE8F28F70B5BF
S113360082B005460C46164600F038F858BB687878
S1133610A62804D11648C069FFF785FF76BDA4210A
S113362006B1A521884201D0012076BD00F022F820
S1133630BDF800106980B0B908462128A8BF202031
S1133640688000F017F8BDF80010A98058B969889F
S113365049B12046FDF76EFD69880A2000FB01F29E
S11336602046FFF796FF76BD38C3FF1FC8C3FF1F70
S113367000C0FF1F1422022100A88AE710B50446E7
S1133680002201212046FFF784FF40B920785A2800
S1133690F6D1601CBDE810400A22012179E710BD73
S11336A030B583B004460D4600A800F017F8042294
S11336B0214600A800F015F86288294600A800F009
S11336C010F801A900A800F02FF8BDF804003EBDD1
S11336D05AA70000000201500000AAEA002101805C
S11336E070477FB5044600208DF800000D46208801
S11336F00190164641F2210002900020ADF80C0022
S11337008DF80E006EB1FDF7F0FA00A90020FEF767
S1133710EFFE324629460020FEF703FF0190FDF735
S1133720EAFA019820807FBD008808800020FEF717
S1133730E9BE00000748016841F4700101604CF2E1
S113374020510548C1814DF62811C1814FF4E9711A
S11337500180704788ED00E0002005404EF6885156
S1133760CEF20001086840F470000860BFF34F8F88
S1133770BFF36F8F4FF00070E1EE100A7047000046
S113378000F00BF8002801D000F00AF80020C04631
S1133790C046FDF7E1F9FDF71FFA0120704700006C
S11337A010B5074979441831064C7C44163404E0BA
S11337B00A68081D511888470146A142F8D110BD76
S11337C048010000540100007805000074C0FF1F88
S11337D00806000040C0FF1F00000000A80500000C
S11337E000000000000000000000000000000000D5
S11337F000000000000000000000000000000000C5
S11338000000000000000000C5110000D3110000FA
S113381068040000F4C0FF1F0000000064C1FF1F23
S113382084C1FF1F372C00005B2C00007F2C00009C
S11338301000000000000000000000000000000074
S1133840FFFF03004405000000C0FF1FFF7F0020AE
S11338509005000000000040FFFF0740F004000056
S113386000F00F40FFFF0F40F0040000000000E0F4
S1133870FFFF0FE0F0040000000000000000000063
S1133880000000000000400130B504E012F8014BD4
S113389000F8014B491ED1B1C507F7D40129F5D071
S11338A0850701D4042904D232F8024B20F8024BD4
S11338B0891E8B08EFD000EB830403E052F8045B0D
S11338C040F8045BA042F9D3A1EB8301E3E730BDE8
S11338D080B513460246184600E080B5FFF7D4FFD2
S11338E0002002BD10B514460A462146BDE810402A
S11338F00123FEF7B3BDFFF7FEBFC046C046FFF786
S11339002DFFFFF73DFF0000E3D0FFFF1003000091
S10B3910C0C0FF1F000000000D
S9030411E7
